:020000040800F2
:10000000880400209D0100089D850008E90800087B
:100010009B850008910400088D8B000800000000FB
:1000200000000000000000000000000049870008F8
:10003000B10600080000000025860008E7870008D8
:10004000B7010008B7010008B7010008B7010008B0
:10005000B7010008B7010008B7010008B7010008A0
:10006000B7010008B7010008B7010008B701000890
:10007000B7010008B7010008B7010008B701000880
:10008000B7010008B7010008B7010008B701000870
:10009000B7010008B7010008B7010008B701000860
:1000A000B7010008B7010008B7010008B701000850
:1000B000B7010008B7010008B7010008B701000840
:1000C000B7010008B7010008B7010008B701000830
:1000D000B7010008ED880008B70100089189000801
:1000E000B7010008B7010008B7010008B701000810
:1000F000B7010008B7010008B7010008B701000800
:10010000B7010008B7010008B7010008B7010008EF
:10011000B7010008B7010008B7010008B7010008DF
:10012000B7010008B7010008B7010008B7010008CF
:10013000B7010008B7010008B7010008B7010008BF
:10014000B7010008B7010008B7010008B7010008AF
:10015000B7010008B7010008B7010008B70100089F
:10016000B7010008B7010008B7010008B70100088F
:10017000B7010008B7010008B7010008B70100087F
:10018000B7010008B7010008DFF80CD000F082F8D2
:1001900000480047A58F00088804002006488047D3
:1001A00006480047FEE7FEE7FEE7FEE7FEE7FEE75C
:1001B000FEE7FEE7FEE7FEE7E987000889010008A1
:1001C000C1F30A5210B5C1F3130140F2FF3341F4F9
:1001D00080119A4201DA002010BD40F233439A4266
:1001E000A2F2334203DC524200F043F810BD9040CB
:1001F00010BD2DE9F05F0546002092469B468846DB
:100200000646814640241BE0284641464746224692
:1002100000F02FF853465A46C01A914110D31146A8
:100220001846224600F016F82D1A67EB01084F46D3
:1002300022460120002100F00DF817EB00094E4185
:10024000201EA4F10104DFDC484631462A4643461D
:10025000BDE8F09F202A04DB203A00FA02F10020DA
:1002600070479140C2F1200320FA03F319439040F4
:100270007047202A04DB203A21FA02F0002170475F
:1002800021FA02F3D040C2F12002914008431946FE
:1002900070470000064C074D06E0E06840F001039F
:1002A00094E8070098471034AC42F6D3FFF770FF8C
:1002B0003CAB00085CAB00080029816814BF41F02A
:1002C000010121F001018160704700000849D1F867
:1002D0000423084B1A40D0E9003C43EA0C03D0E960
:1002E00002C04CEA000018431043C1F804037047F1
:1002F00000200140E030FCFFC06C80B27047024635
:10030000002012680A4218BF0120704710B44268EA
:1003100091F804C022F4807222F040720B6842EA25
:100320000C221A43426082680C4B4C791A40D1E986
:1003300003C343EA0C03D1F808C04CEA440C43EA77
:100340000C031A438260C26A097D22F47002491EBE
:10035000C9B242EA0151C16210BC7047FDF7FFC04B
:1003600030B4072409290DD9C568A1F10A0C0CEB9A
:100370004C0C04FA0CF425EA040403FA0CF32343AE
:10038000C3600AE0056901EB410C04FA0CF425EAAC
:10039000040403FA0CF3234303611F23072A0CD23E
:1003A000D0F834C0521E02EB820293402CEA0303C1
:1003B00091401943416330BC70470D2A0CD2D0F8EC
:1003C00030C0D21F02EB820293402CEA030391401B
:1003D0001943016330BC7047D0F82CC00D3A02EBD2
:1003E000820293402CEA030391401943C16230BC5E
:1003F0007047816841F080418160704710B50121EC
:100400008CB0084608F010F90121042008F00CF91E
:100410000121080208F02CF90121480208F028F90E
:1004200060200A9003208DF82C0000248DF82F40C6
:100430000AA9154800F0B2F90121080208F024F9D0
:1004400000214FF4807008F01FF906944FF48030BB
:100450000994CDE9070406A8FFF738FF8DF804409A
:1004600000948DF80540029404940120074C8DF807
:10047000140069462046FFF749FF01212046FFF797
:100480001BFF0CB010BD0000000002400020014026
:10049000FEE7000006498A78012A18BF704700224B
:1004A0008A7004498A78497802EB012101807047FB
:1004B00010000020130000202DE9F04182B001213E
:1004C000402008F0B1F801278DF80470002678026A
:1004D0008DF8066000908DF807700220DFF89C8090
:1004E0008DF805006946404600F058F9D8F800003C
:1004F00020F44020C8F80000D8F8000040F4802024
:10050000C8F800001E4CC4F8A462142008F0D6FC01
:10051000C4F8A4721E2008F01BFDD8F800000025C6
:1005200020F44020C8F80000D8F80000C8F8000007
:1005300004E0681CC5B2012008F00AFDD4F82402CA
:1005400010B1642D04D2F4E7642D38BF002508D320
:1005500002B03846BDE8F081681CC5B2012008F041
:10056000F7FCD4F8240230B1642D38BF3046EFD206
:1005700002B0BDE8F081642DEED3E9E70018024037
:10058000000043422DE9F34F474D83B0286820F423
:1005900040202860286840F480202860434E4FF0B7
:1005A0000009C6F8A492142008F088FC4FF0010A54
:1005B000C6F8A4A21E2008F0CBFC2868002420F472
:1005C000402028602868286004E0601CC4B2012034
:1005D00008F0BEFCD6F8240210B1642C1BD2F4E75C
:1005E000642C38BF002416D204E0601CC4B2012081
:1005F00008F0AEFCD6F8240258B1642C3CBF4FF092
:100600000008EB4607D2002005464006070E0024EE
:100610000AE0642CE9D305B00120BDE8F08F601C2E
:10062000C4B2012008F094FCD6F82402002818BFB8
:10063000642CF4D3002404E0601CC4B2012008F050
:1006400087FCD6F8240208B9642CF5D3282008F0DA
:100650007FFCD6F82402002814BF50464846384391
:10066000691CCDB2082DD0D30BF8080008F10100A9
:1006700000F0FF08B8F1050FC5D39DF800109DF8F4
:1006800001009DF803300A189DF8020003441A4443
:100690009DF804309A4203D1049A117003990870AE
:1006A00005B00020BDE8F08F001802400000434272
:1006B000704700008000A0F1C0400029016812BF0F
:1006C00041F00101014A114001607047FEFF0F0037
:1006D000D0E901121143D0E903231A4311434269BF
:1006E000114382691143C2691143026A1143426A8C
:1006F0001143826A1143C26A1143026B0A430168C3
:100700008900A1F1C0410A608168082907D1016808
:100710008900A1F1C0410A6842F040020A60416BC1
:10072000D1E9002342EA03128B68B1F80CC01B0226
:1007300043EA0C431A430B8A42EA03520B7D896950
:1007400042EA0362114302689200A2F1C042516082
:10075000C16AB1F5804F08D000686FF07041800029
:10076000A0F1C040C0F804117047816BD1E90023AB
:1007700042EA03128B68B1F810C01B0243EA0C5323
:100780001A430B7D896942EA0362006811438000C5
:10079000A0F1C040C0F80411704700002DE9F0013D
:1007A000002201255FF00306D1F800C005FA02F32C
:1007B0000CEA030C9C4537D107684FEA420C06FA55
:1007C0000CF4A74307600F79D0F8008007FA0CF704
:1007D00047EA080707600F79012F18BF022F17D1CA
:1007E000876827EA040787604F79D0F8088007FAFE
:1007F0000CF747EA08078760476827EA0303436066
:1008000043688F7907FA02F7BFB243EA07034360F0
:10081000C36823EA0403C360CB7903FA0CF3D0F86E
:100820000CC043EA0C03C36002F10102102ABBD3DF
:10083000BDE8F00170474B07DB0E9A40C90800EB9A
:100840008100016A4FF00F0C0CFA03F39943016227
:10085000016A11430162704710B50A4C0146072333
:1008600001222046FFF77CFD2046FFF7C2FD022152
:100870002046FFF744FD0028F9D02046BDE810408F
:10088000FFF73ABD002001402DE9F0414FF000058F
:100890000E0007462C4618BFDFF848801DD03946A9
:1008A000072301224046FFF75BFD4046FFF7A1FD0D
:1008B00002214046FFF723FD0028F9D04046FFF70C
:1008C0001BFD010AC0B240EA01200544052008F0E2
:1008D000F5FA601CC4B2B442E1D3B5FBF6F080B2C5
:1008E000BDE8F08100200140FEE700002DE9F04363
:1008F0008046012187B0084607F096FE01211020AE
:1009000007F0B6FE02268DF8046003274FF400704E
:100910008DF805700024DFF8A49000908DF8064053
:1009200001258DF8075069464846FFF737FF8DF8D7
:100930000460A8028DF8057000908DF806408DF8CF
:10094000074069464846FFF729FF07220921484624
:10095000FFF771FF07220A214846FFF76CFFADF849
:100960000C40ADF80E40ADF81040ADF814400C202E
:10097000134CADF81200CDF8088002A9204608F00B
:10098000A1F84FF4A06007F043FE25208DF8180071
:100990008DF819508DF81A508DF81B5006A807F0E5
:1009A000FFFD012240F22551204608F072F8012196
:1009B000204608F038F807B0BDE8F0830000024098
:1009C000001001402DE9F04F374A2C251146907157
:1009D0002B2689884FF430584FF4285941F6631A72
:1009E0002A274FF0F00E45F2105B4FF448744FF495
:1009F000A07C4FF4F073E8B1A2F800C0A2F802E0C6
:100A0000594544D1A2F80880A2F80A90300290819A
:100A100014805380A1F5A640103819BFA1F5EC4011
:100A2000B0F5CB701380A2F802C00020BDE8F04FF3
:100A300007F0D2B9A2F800E0A2F802C059451BD1D4
:100A4000A2F80880A2F80A904FF42C5090811380ED
:100A5000A2F80240A1F5A640103819BFA1F5EC405C
:100A6000B0F5CB70A2F800C05380A1F5184006384D
:100A700004BF13805480D8E75145158101BF5681CA
:100A80009781138054801CBF57819681E2E75145BE
:100A90001CBFA1F51840B0F1060015815781968161
:100AA00004BF14805380B5E7740000202DE9F807D7
:100AB0008E4E01F0FF0C3546B6F804900C0AA98959
:100AC000070A6D89A9F5A04A4FF0D84300F0FF0846
:100AD000BAF5A26A48D0A9F5C85ABAF1630A7DD01E
:100AE000ADF80050BDF80000ADF80000BDF8000002
:100AF000A3F87E00ADF80070BDF80000ADF800006E
:100B0000BDF80000A3F88000ADF80080BDF800003B
:100B1000ADF80000BDF80000A3F88000ADF80010AB
:100B2000BDF80000ADF80000BDF80000A3F87E009D
:100B3000ADF80040BDF80000ADF80000BDF80000C1
:100B4000A3F88000ADF800C0BDF80000ADF80000CB
:100B5000BDF80000A3F880003089A3F87E00A3F858
:100B60008020BDE8F8077047ADF80050BDF80000E0
:100B7000ADF80000BDF80000A3F87E00ADF80070ED
:100B8000BDF80000ADF80000BDF80000A3F880003B
:100B9000681CADF80000BDF80000ADF80000BDF81D
:100BA0000000A3F87E00ADF80080BDF80000ADF8AD
:100BB0000000BDF80000A3F88000ADF80010BDF8FB
:100BC0000000ADF80000BDF80000A3F87E00ADF80D
:100BD0000040BDF80000ADF8000000E019E0BDF8ED
:100BE0000000A3F88000481CADF80000BDF800002C
:100BF000ADF80000BDF80000A3F87E00ADF800C01D
:100C0000BDF80000ADF80000BDF80000A3F88000BA
:100C1000A2E7B7791FB93788381A401E80B2ADF8FD
:100C20000050BDF80050ADF80050BDF80050A3F8DA
:100C30007E50050AADF80050BDF80070ADF80070A8
:100C4000BDF80070A3F88070C0B2ADF80000BDF828
:100C50000070ADF80070BDF80070A3F88070ADF8BA
:100C60000050BDF80050ADF80050BDF80050A3F89A
:100C70008050ADF80000BDF80000ADF80000BDF8F0
:100C80000000A3F88000ADF80010BDF80000ADF83A
:100C90000000BDF80000A3F87E00ADF80040BDF8EC
:100CA0000000ADF80000BDF80000A3F88000ADF82A
:100CB00000C0BDF80000ADF80000BDF80000A3F8CA
:100CC0008000ADF80040BDF80000ADF80000BDF8B0
:100CD0000000A3F88000ADF800C0BDF80000ADF83A
:100CE0000000BDF80000A3F8800035E77400002084
:100CF0002DE9F04FA1B0002401217A201F9407F0C4
:100D000093FC0121084607F09BFC01268DF8046046
:100D10004FF400408DF80640022500908DF80550F4
:100D20008DF807606946FE48FFF738FD8DF80450DE
:100D30004CF233708DF806404FF00309F94F0090E4
:100D40008DF805908DF8076069463846FFF726FD57
:100D50004FF6807000908DF804508DF80640032007
:100D60008DF80500DFF8C0838DF8076069464046BE
:100D7000FFF714FDE80200908DF804508DF806404E
:100D800003208DF805008DF807606946E748FFF7F6
:100D900005FDE80200908DF804508DF80640032010
:100DA0008DF805008DF807606946E148FFF7F6FC0D
:100DB0000C2200213846FFF73EFD0C220121384667
:100DC000FFF739FD0C2204213846FFF734FD0C22D1
:100DD00005213846FFF72FFD0C2208213846FFF782
:100DE0002AFD0C2209213846FFF725FD0C220A2195
:100DF0003846FFF720FD0C220E213846FFF71BFD79
:100E00000C220F213846FFF716FD0C220721404621
:100E1000FFF711FD0C2208214046FFF70CFD0C22C4
:100E200009214046FFF707FD0C220A214046FFF743
:100E300002FD0C220B214046FFF7FDFC0C2211465F
:100E40004046FFF7F8FC0C220D214046FFF7F3FC6B
:100E50000C220E214046FFF7EEFC0C220F214046EB
:100E6000FFF7E9FC0C221146B048FFF7E4FC0C2226
:100E70001146AF48FFF7DFFC0F20CDE911043C20FD
:100E8000CDE91304159409201694CDE917400820E4
:100E9000CDE919401B941C940620CDE902041D9451
:100EA0001E941020CDE9044006940002CDE90A40CA
:100EB000089407948000CDE90C40099411A8CDE96D
:100EC0000E4018A8109002A8FFF702FC012106208E
:100ED000FFF7F0FB322007F0F1FFD320ADF87C00E4
:100EE000BDF87C00ADF87C00BDF87C004FF0D84424
:100EF000A4F87E00B4F88000ADF87C00BDF87C005A
:100F00008C49B4F88000ADF87C00BDF87C00B4F8E2
:100F10008000ADF87C00BDF87C004FF6FF7202EA5D
:100F20000020B4F88020ADF87C20BDF87C20104370
:100F30008880A0F51341413900F046810420ADF8C6
:100F40007C00BDF87C00ADF87C00BDF87C00A4F806
:100F50007E00B4F88000ADF87C00BDF87C00754FD1
:100F6000B4F88000ADF87C00BDF87C00B4F88000D7
:100F7000ADF87C00BDF87C004FF6FF78B4F8801027
:100F800008EA0020ADF87C10BDF87C100843A0F5FD
:100F90000541B880523904BF47F28970B88000F02B
:100FA0003881A0F5EE41893900F00E81D420ADF8EA
:100FB0007C00BDF87C00ADF87C00BDF87C00A4F896
:100FC0007E00B4F88000ADF87C00BDF87C00B4F879
:100FD0008000ADF87C00BDF87C00B4F88000ADF86E
:100FE0007C00BDF87C00B4F8801008EA0020ADF861
:100FF0007C10BDF87C100843A0F5A641B8801039DC
:101000007DD04FF0D30AADF87CA0BDF87C00ADF8E0
:101010007C00BDF87C00A4F87E00B4F88000ADF838
:101020007C00BDF87C00B4F88000ADF87C00BDF811
:101030007C00B4F88000ADF87C00BDF87C00B4F80A
:10104000801008EA0020ADF87C10BDF87C10084341
:10105000A0F5EE41B880963951D04FF4704155203B
:10106000A4F87E10A4F88000481CAA21A4F87E00F1
:10107000A4F88010411C5220A4F87E10A4F880002F
:10108000481C0821A4F87E00A4F88010411C01200F
:10109000A4F87E10A4F880004FF44540ADF87C0021
:1010A000BDF87C00ADF87C00BDF87C00A4F87E00A3
:1010B000B4F88000ADF87C00BDF87C004CF2015122
:1010C00008EA0020ADF87C10BDF87C10ADF87C106B
:1010D000BDF87C10A4F87E10B4F88010ADF87C1038
:1010E000BDF87C100843B880052007F0E7FEB888FB
:1010F000B0F5004F08BF45F210507DD000E063E02E
:10110000A0F5AA4110395FD0ADF87CA0BDF87C00F5
:10111000ADF87C00BDF87C00A4F87E000CE0000077
:1011200000040240000C0240001002400014024083
:101130000018024074000020B4F88000ADF87C0074
:10114000BDF87C00B4F88000ADF87C00BDF87C00F0
:10115000B4F88000ADF87C00BDF87C00B4F88010D5
:1011600008EA0020ADF87C10BDF87C100843A0F51B
:101170001841B880063927D0A120ADF87C00BDF811
:101180007C00ADF87C00BDF87C00A4F87E00B4F8CB
:101190008000ADF87C00BDF87C00B4F88000ADF8AC
:1011A0007C00BDF87C00B4F8801008EA0020ADF89F
:1011B0007C10BDF87C100843A0F5AE41B8806139C1
:1011C00008BF41F6631023D0FE488088A0F5134184
:1011D00041391CBFA0F5EE41B1F1890119D0A0F54C
:1011E000A64110391CBFA0F5A041B1F5A26110D0F5
:1011F000A0F5C851633900E00AE01FBFA0F5EC413B
:10120000B1F5CB71A0F51841B1F1060101D01AE09A
:10121000B8804FF02040D0F81C1121F00F01C0F829
:101220001C11D0F81C1121F47061C0F81C11D0F809
:101230001C1141F00401C0F81C11D0F81C1141F43C
:101240008061C0F81C11DF488188DFA007F0A0FC96
:10125000DC48E0274FF0200B80884FF03A08A0F5DB
:1012600013414FF0290A4FF0110E41391FD0A0F55C
:10127000EE41893900F0F883A0F5A641103900F05D
:10128000D686A0F5AA41103904F0F080A0F5EE4111
:10129000963905F00382A0F51841063905F0178547
:1012A000A0F5C851633906F0C58206F060BDCF20B5
:1012B000ADF87C00BDF87C00ADF87C00BDF87C008A
:1012C000A4F87E000020ADF87C00BDF87C10ADF8DD
:1012D0007C10BDF87C10A4F88010C122ADF87C20F1
:1012E000BDF87C10ADF87C10BDF87C10A4F880101F
:1012F0003021ADF87C10BDF87C30ADF87C30BDF805
:101300007C30A4F88030ED23ADF87C30BDF87C3023
:10131000ADF87C30BDF87C30A4F87E306423ADF8A5
:101320007C30BDF87C30ADF87C30BDF87C30A4F862
:101330008030ADF87C90BDF87C30ADF87C30BDF8E5
:101340007C30A4F880301223ADF87C30BDF87C30BE
:10135000ADF87C30BDF87C30A4F880308123ADF846
:101360007C30BDF87C30ADF87C30BDF87C30A4F822
:101370008030E823ADF87C30BDF87C30ADF87C30AF
:10138000BDF87C30A4F87E308523ADF87C30BDF804
:101390007C30ADF87C30BDF87C30A4F88030102370
:1013A000ADF87C30BDF87CC0ADF87CC0BDF87CC029
:1013B000A4F880C04FF07A0CADF87CC0BDF87CC0BA
:1013C000ADF87CC0BDF87CC0A4F880C04FF0CB0C59
:1013D000ADF87CC0BDF87CC0ADF87CC0BDF87CC069
:1013E000A4F87EC04FF0390CADF87CC0BDF87CC0CD
:1013F000ADF87CC0BDF87CC0A4F880C04FF02C0CC8
:10140000ADF87CC0BDF87CC0ADF87CC0BDF87CC038
:10141000A4F880C0ADF87C00BDF87CC0ADF87CC0FD
:10142000BDF87CC0A4F880C04FF0340CADF87CC08F
:10143000BDF87CC0ADF87CC0BDF87CC0A4F880C00D
:10144000ADF87C50BDF87CC0ADF87CC0BDF87CC068
:10145000A4F880C04FF0F70CADF87CC0BDF87CC09C
:10146000ADF87CC0BDF87CC0A4F87EC0ADF87CB0FF
:10147000BDF87CC0ADF87CC0BDF87CC0A4F880C0CD
:101480004FF0EA0CADF87CC0BDF87CC0ADF87CC074
:10149000BDF87CC0A4F87EC0ADF87C00BDF87CC06F
:1014A000ADF87CC0BDF87CC0A4F880C0ADF87C006D
:1014B000BDF87CC0ADF87CC0BDF87CC0A4F880C08D
:1014C0004FF0C00CADF87CC0BDF87CC0ADF87CC05E
:1014D000BDF87CC0A4F87EC04FF01B0CADF87CC0FA
:1014E000BDF87CC0ADF87CC0BDF87CC0A4F880C05D
:1014F000ADF87C20BDF87C20ADF87C20BDF87C20C8
:10150000A4F87E20ADF87C60BDF87C20ADF87C208E
:10151000BDF87C20A4F88020C522ADF87C20BDF861
:101520007C20ADF87C20BDF87C20A4F87E20ADF8AE
:101530007C10BDF87C20ADF87C20BDF87C20A4F8A0
:101540008020ADF87C10BDF87C10ADF87C10BDF8A3
:101550007C10A4F88010C721ADF87C10BDF87C1079
:10156000ADF87C10BDF87C10A4F87E10B721ADF862
:101570007C10BDF87C10ADF87C10BDF87C10A4F890
:1015800080103621ADF87C10BDF87C10ADF87C10D1
:10159000BDF87C10A4F87E104821ADF87C10BDF891
:1015A0007C10ADF87C10BDF87C10A4F88010ADF86C
:1015B0007C80BDF87C10ADF87C10BDF87C10A4F8E0
:1015C0007E1009E074000020204C43442049443A36
:1015D00025780D0A000000005521ADF87C10BDF8FB
:1015E0007C10ADF87C10BDF87C10A4F88010B121FF
:1015F000ADF87C10BDF87C10ADF87C10BDF87C1007
:10160000A4F87E10ADF87C00BDF87C10ADF87C101D
:10161000BDF87C10A4F880101A21ADF87C10BDF83C
:101620007C10ADF87C10BDF87C10A4F88010B621B9
:10163000ADF87C10BDF87C10ADF87C10BDF87C10C6
:10164000A4F87E100A22ADF87C20BDF87C10ADF81D
:101650007C10BDF87C10A4F88010A221ADF87C109D
:10166000BDF87C10ADF87C10BDF87C10A4F880109B
:10167000F221ADF87C10BDF87C10ADF87C10BDF8FF
:101680007C10A4F87E10ADF87C00BDF87C10ADF89D
:101690007C10BDF87C10A4F880102621ADF87C10D9
:1016A000BDF87C10ADF87C10BDF87C10A4F87E105D
:1016B000ADF87C60BDF87C10ADF87C10BDF87C10F6
:1016C000A4F88010ADF87C70BDF87C10ADF87C10EB
:1016D000BDF87C10A4F87E100F21ADF87C10BDF889
:1016E0007CC0ADF87CC0BDF87CC0A4F880C04FF0D1
:1016F0002A0CADF87CC0BDF87C50ADF87C50BDF82C
:101700007C50A4F880502825ADF87C50BDF87C5062
:10171000ADF87C50BDF87C50A4F880500825ADF899
:101720007C50BDF87C70ADF87C70BDF87C70A4F87E
:1017300080700E27ADF87C70BDF87C70ADF87C70C1
:10174000BDF87C70A4F88070ADF87C50BDF87C507A
:10175000ADF87C50BDF87C50A4F880505425ADF80D
:101760007C50BDF87C50ADF87C50BDF87C50A4F89E
:101770008050A925ADF87C50BDF87C50ADF87C5068
:10178000BDF87C50A4F880504325ADF87C50BDF8DE
:101790007C50ADF87C50BDF87C50A4F88050ADF87A
:1017A0007C20BDF87C20ADF87C20BDF87C20A4F81E
:1017B0008020ADF87C10BDF87C20ADF87C20BDF811
:1017C0007C20A4F88020ADF87C00BDF87C20ADF82A
:1017D0007C20BDF87C20A4F88020ADF87C00BDF80A
:1017E0007C20ADF87C20BDF87C20A4F88020ADF8EA
:1017F0007C00BDF87C20ADF87C20BDF87C20A4F8EE
:101800008020ADF87C00BDF87C20ADF87C20BDF8D0
:101810007C20A4F88020E122ADF87C20BDF87C205B
:10182000ADF87C20BDF87C20A4F87E20ADF87C00CB
:10183000BDF87C20ADF87C20BDF87C20A4F8802089
:101840001522ADF87C20BDF87C20ADF87C20BDF8D9
:101850007C20A4F880201722ADF87C20BDF87C20E5
:10186000ADF87C20BDF87C20A4F880200722ADF8DC
:101870007C20BDF87C20ADF87C20BDF87C20A4F84D
:1018800080207246ADF87CE0BDF87C50ADF87C500D
:10189000BDF87C50A4F880500625ADF87C50BDF80A
:1018A0007C50ADF87C50BDF87C50A4F880502B25BE
:1018B000ADF87C50BDF87C70ADF87C70BDF87C70E4
:1018C000A4F880705627ADF87C70BDF87C70ADF838
:1018D0007C70BDF87C70A4F880703C27ADF87C70FB
:1018E000BDF87C70ADF87C70BDF87C70A4F8807099
:1018F0000527ADF87C70BDF87C70ADF87C70BDF844
:101900007C70A4F88070ADF87C30BDF87C30ADF808
:101910007C30BDF87C30A4F88030ADF87C10BDF888
:101920007C30ADF87C30BDF87C30A4F880303F23AB
:10193000ADF87C30BDF87C70ADF87C70BDF87C7083
:10194000A4F88070ADF87C30BDF87C70ADF87C7088
:10195000BDF87C70A4F88070ADF87C10BDF87C10E8
:10196000ADF87C10BDF87C10A4F88010ADF87C5068
:10197000BDF87C10ADF87C10BDF87C10A4F87E108A
:10198000ADF87C00BDF87C10ADF87C10BDF87C1083
:10199000A4F88010ADF87C00BDF87C10ADF87C1088
:1019A000BDF87C10A4F88010ADF87C60BDF87C1008
:1019B000ADF87C10BDF87C10A4F88010ADF87C3038
:1019C000BDF87C10ADF87C10BDF87C10A4F8801038
:1019D000ADF87CC0BDF87C10ADF87C10BDF87C1073
:1019E000A4F87E10ADF87C00BDF87C10ADF87C103A
:1019F000BDF87C10A4F88010ADF87C00BDF87C1018
:101A0000ADF87C10BDF87C10A4F88010ADF87C0017
:101A1000BDF87C00ADF87C00BDF87C00A4F8800027
:101A2000EF20ADF87C00BDF87C00ADF87C00BDF87F
:101A30007C00A4F88000ADF87C20BDF87C00ADF8F7
:101A40007C00BDF87C00A4F87E00782007F036FA10
:101A5000ADF87CA0BDF87C00ADF87C00BDF87C0042
:101A6000A4F87E0006F083B9ADF87CE0BDF87C00F8
:101A7000ADF87C00BDF87C00A4F87E00782007F06B
:101A80001DFA3620ADF87C00BDF87C00ADF87C0076
:101A9000BDF87C00A4F87E000020ADF87C00BDF805
:101AA0007C10ADF87C10BDF87C10A4F88010ADF867
:101AB0007C80BDF87C10ADF87C10BDF87C10A4F8DB
:101AC0007E100521ADF87C10BDF87C10ADF87C10BF
:101AD000BDF87C10A4F88010B221ADF87C10BDF8E0
:101AE0007C10ADF87C10BDF87C10A4F87E100C21A1
:101AF000ADF87C10BDF87C20ADF87C20BDF87C20D2
:101B0000A4F88020ADF87C10BDF87C20ADF87C20D6
:101B1000BDF87C20A4F88020ADF87C00BDF87C20C6
:101B2000ADF87C20BDF87C20A4F880203322ADF8ED
:101B30007C20BDF87C30ADF87C30BDF87C30A4F85A
:101B40008030ADF87C20BDF87C20ADF87C20BDF85D
:101B50007C20A4F88020B722ADF87C20BDF87C2042
:101B6000ADF87C20BDF87C20A4F87E203522ADF8AD
:101B70007C20BDF87C20ADF87C20BDF87C20A4F84A
:101B80008020BB22ADF87C20BDF87C20ADF87C2005
:101B9000BDF87C20A4F87E203222ADF87C20BDF870
:101BA0007C30ADF87C30BDF87C30A4F88030C023A8
:101BB000ADF87C30BDF87C30ADF87C30BDF87C30C1
:101BC000A4F87E30ADF87C10BDF87C10ADF87C1028
:101BD000BDF87C10A4F88010C221ADF87C10BDF8CF
:101BE0007C10ADF87C10BDF87C10A4F87E10ADF828
:101BF0007C60BDF87C10ADF87C10BDF87C10A4F8BA
:101C00008010C321ADF87C10BDF87C10ADF87C10BD
:101C1000BDF87C10A4F87E101021ADF87C10BDF842
:101C20007C10ADF87C10BDF87C10A4F88010C421A5
:101C3000ADF87C10BDF87C10ADF87C10BDF87C10C0
:101C4000A4F87E10ADF87CB0BDF87C10ADF87C1027
:101C5000BDF87C10A4F88010C621ADF87C10BDF84A
:101C60007C10ADF87C10BDF87C10A4F87E100F211C
:101C7000ADF87C10BDF87C10ADF87C10BDF87C1080
:101C8000A4F88010D021ADF87C10BDF87C30ADF800
:101C90007C30BDF87C30A4F87E30A423ADF87C30D5
:101CA000BDF87C30ADF87C30BDF87C30A4F88030D5
:101CB000A123ADF87C30BDF87C30ADF87C30BDF8A8
:101CC0007C30A4F88030ADF87C70BDF87C30ADF885
:101CD0007C30BDF87C30A4F87E30ADF87C10BDF8C7
:101CE0007C30ADF87C30BDF87C30A4F88030ADF8A5
:101CF0007C00BDF87C30ADF87C30BDF87C30A4F8B9
:101D00008030ADF87C50BDF87C30ADF87C30BDF84B
:101D10007C30A4F880304FF0070CADF87CC0BDF8E3
:101D20007C30ADF87C30BDF87C30A4F880300A23DC
:101D3000ADF87C30BDF87C70ADF87C70BDF87C707F
:101D4000A4F880702827ADF87C70BDF87C80ADF8D1
:101D50007C80BDF87C80A4F88080ADF87C20BDF844
:101D60007C20ADF87C20BDF87C20A4F880204422A3
:101D7000ADF87C20BDF87C20ADF87C20BDF87C203F
:101D8000A4F880204222ADF87C20BDF87C20ADF87C
:101D90007C20BDF87C20A4F880200622ADF87C20B1
:101DA000BDF87C20ADF87C20BDF87C20A4F8802014
:101DB0004FF00E08ADF87C80BDF87C20ADF87C209B
:101DC000BDF87C20A4F880201222ADF87C20BDF85C
:101DD0007C20ADF87C20BDF87C20A4F88020142263
:101DE000ADF87C20BDF87C20ADF87C20BDF87C20CF
:101DF000A4F880201722ADF87C20BDF87C90ADF8C7
:101E00007C90BDF87C90A4F880904FF0E109ADF88B
:101E10007C90BDF87C90ADF87C90BDF87C90A4F8E7
:101E20007E90ADF87C10BDF87C10ADF87C10BDF84C
:101E30007C10A4F88010ADF87C00BDF87C10ADF8E3
:101E40007C10BDF87C10A4F88010ADF87C50BDF873
:101E50007C10ADF87C10BDF87C10A4F88010ADF8B3
:101E60007CC0BDF87C10ADF87C10BDF87C10A4F8E7
:101E70008010ADF87C30BDF87C10ADF87C10BDF85A
:101E80007C10A4F88010ADF87C70BDF87C10ADF823
:101E90007C10BDF87C10A4F880103121ADF87C10C6
:101EA000BDF87C10ADF87C10BDF87C10A4F8801053
:101EB0005421ADF87C10BDF87C10ADF87C10BDF855
:101EC0007C10A4F880104721ADF87C10BDF87C1080
:101ED000ADF87C10BDF87C10A4F88010ADF87C80C3
:101EE000BDF87C10ADF87C10BDF87C10A4F8801013
:101EF0001C21ADF87C10BDF87C10ADF87C10BDF84D
:101F00007C10A4F88010ADF87C20BDF87C10ADF8F2
:101F10007C10BDF87C10A4F880101B21ADF87C105B
:101F2000BDF87C10ADF87C10BDF87C10A4F88010D2
:101F30001E21ADF87C10BDF87C10ADF87C10BDF80A
:101F40007C10A4F880102A21ADF87C10BDF87C101C
:101F5000ADF87C10BDF87C10A4F87E10ADF87C00C4
:101F6000BDF87C10ADF87C10BDF87C10A4F8801092
:101F7000ADF87C00BDF87C10ADF87C10BDF87C108D
:101F8000A4F88010ADF87C00BDF87C10ADF87C1092
:101F9000BDF87C10A4F88010EF21ADF87C10BDF8DE
:101FA0007C10ADF87C10BDF87C10A4F880102B21BB
:101FB000ADF87C10BDF87C10ADF87C10BDF87C103D
:101FC000A4F87E10ADF87C00BDF87C10ADF87C1054
:101FD000BDF87C10A4F88010ADF87C00BDF87C0042
:101FE000ADF87C00BDF87C00A4F88000ADF87C6002
:101FF000BDF87C00ADF87C00BDF87C00A4F8800042
:102000003F20ADF87C00BDF87C00ADF87C00BDF849
:102010007C00A4F88000ADF87CA0BDF87C00ADF891
:102020007C00BDF87C00A4F87E0005F0A0BEED2089
:10203000ADF87C00BDF87C00ADF87C00BDF87C00FC
:10204000A4F87E00ADF87C60BDF87C00ADF87C00A3
:10205000BDF87C00A4F88000FE20ADF87C00BDF83F
:102060007C00ADF87C00BDF87C00A4F88000EE2078
:10207000ADF87C00BDF87C00ADF87C00BDF87C00BC
:10208000A4F87E00DE20ADF87C00BDF87C00ADF841
:102090007C00BDF87C00A4F880002122ADF87C20F3
:1020A000BDF87C00ADF87C00BDF87C00A4F8800091
:1020B000F120ADF87C00BDF87C00ADF87C00BDF8E7
:1020C0007C00A4F87E000120ADF87C00BDF87C0007
:1020D000ADF87C00BDF87C00A4F88000DF20ADF8EE
:1020E0007C00BDF87C00ADF87C00BDF87C00A4F855
:1020F0007E001020ADF87C00BDF87C00ADF87C00BF
:10210000BDF87C00A4F88000C420ADF87C00BDF8C8
:102110007C00ADF87C00BDF87C00A4F87E008F2028
:10212000ADF87C00BDF87C00ADF87C00BDF87C000B
:10213000A4F88000C620ADF87C00BDF87C00ADF8A6
:102140007C00BDF87C00A4F87E000021ADF87C1076
:10215000BDF87C00ADF87C00BDF87C00A4F88000E0
:10216000E220ADF87C00BDF87C30ADF87C30BDF8E5
:102170007C30A4F88030ADF87C00BDF87C30ADF840
:102180007C30BDF87C30A4F88030ADF87C00BDF820
:102190007C00ADF87C00BDF87C00A4F88000BF2076
:1021A000ADF87C00BDF87C00ADF87C00BDF87C008B
:1021B000A4F87E00AA20ADF87C00BDF87C00ADF844
:1021C0007C00BDF87C00A4F88000B020ADF87C0055
:1021D000BDF87C00ADF87C00BDF87C00A4F87E0062
:1021E0000D20ADF87C00BDF87C30ADF87C30BDF83A
:1021F0007C30A4F88030ADF87C10BDF87C30ADF8B0
:102200007C30BDF87C30A4F88030ADF87C00BDF89F
:102210007C00ADF87C00BDF87C00A4F88000ADF82F
:102220007C10BDF87C00ADF87C00BDF87C00A4F803
:1022300080001120ADF87C00BDF87C00ADF87C007A
:10224000BDF87C00A4F88000ADF87C10BDF87C00DF
:10225000ADF87C00BDF87C00A4F880001920ADF832
:102260007C00BDF87C00ADF87C00BDF87C00A4F8D3
:102270008000ADF87C10BDF87C00ADF87C00BDF8A6
:102280007C00A4F88000ADF87C20BDF87C00ADF89F
:102290007C00BDF87C00A4F88000ADF87C10BDF88F
:1022A0007C00ADF87C00BDF87C00A4F880002D20F7
:1022B000ADF87C00BDF87C00ADF87C00BDF87C007A
:1022C000A4F88000ADF87C10BDF87C00ADF87C006F
:1022D000BDF87C00A4F880003D20ADF87C00BDF87E
:1022E0007C00ADF87C00BDF87C00A4F88000ADF85F
:1022F0007C10BDF87C00ADF87C00BDF87C00A4F833
:1023000080005D20ADF87C00BDF87C20ADF87C201D
:10231000BDF87C20A4F88020ADF87C10BDF87C20AE
:10232000ADF87C20BDF87C20A4F88020ADF87C00BE
:10233000BDF87C00ADF87C00BDF87C00A4F88000FE
:10234000ADF87C10BDF87C00ADF87C00BDF87C00D9
:10235000A4F88000B120ADF87C00BDF87C00ADF899
:102360007C00BDF87C00A4F87E008020ADF87C00E5
:10237000BDF87C00ADF87C00BDF87C00A4F88000BE
:10238000ADF87C10BDF87C00ADF87C00BDF87C0099
:10239000A4F880008B23ADF87C30BDF87C00ADF84C
:1023A0007C00BDF87C00A4F88000ADF87C10BDF87E
:1023B0007C00ADF87C00BDF87C00A4F880004FF0F4
:1023C000960EADF87CE0BDF87C00ADF87C00BDF861
:1023D0007C00A4F88000ADF87C10BDF87C00ADF85E
:1023E0007C00BDF87C00A4F88000B220ADF87C0031
:1023F000BDF87C00ADF87C00BDF87C00A4F87E0040
:10240000ADF87C10BDF87C00ADF87C00BDF87C0018
:10241000A4F88000ADF87C10BDF87C00ADF87C001D
:10242000BDF87C202046A4F880200222ADF87C2054
:10243000BDF87CC0ADF87CC0BDF87CC0A4F880C0FD
:10244000ADF87C10BDF87CC0ADF87CC0BDF87CC098
:10245000A4F880C0ADF87C90BDF87CC0ADF87CC01D
:10246000BDF87CC0A0F880C0ADF87C10BDF87CC081
:10247000ADF87CC0BDF87CC0A0F880C04FF0B30CB4
:10248000ADF87CC0BDF87CC0ADF87CC0BDF87CC0A8
:10249000A0F87EC0ADF87C10BDF87CC0ADF87CC063
:1024A000BDF87CC0A0F880C0ADF87C10BDF87CC041
:1024B000ADF87CC0BDF87CC0A0F880C0ADF87C1041
:1024C000BDF87CC0ADF87CC0BDF87CC0A0F880C071
:1024D000ADF87C10BDF87CC0ADF87CC0BDF87CC008
:1024E000A0F880C0ADF87C10BDF87CC0ADF87CC011
:1024F000BDF87CC0A0F880C0ADF87C10BDF87CC0F1
:10250000ADF87CC0BDF87CC0A0F880C0ADF87C10F0
:10251000BDF87CC0ADF87CC0BDF87CC0A0F880C020
:10252000ADF87C10BDF87CC0ADF87CC0BDF87CC0B7
:10253000A0F880C0ADF87C10BDF87CC0ADF87CC0C0
:10254000BDF87CC0A0F880C0ADF87C10BDF87CC0A0
:10255000ADF87CC0BDF87CC0A0F880C0ADF87C10A0
:10256000BDF87CC0ADF87CC0BDF87CC0A0F880C0D0
:10257000ADF87C10BDF87CC0ADF87CC0BDF87CC067
:10258000A0F880C0ADF87C10BDF87CC0ADF87CC070
:10259000BDF87CC0A0F880C0ADF87C10BDF87CC050
:1025A000ADF87CC0BDF87CC0A0F880C0ADF87C1050
:1025B000BDF87CC0ADF87CC0BDF87CC0A0F880C080
:1025C000ADF87C10BDF87CC0ADF87CC0BDF87CC017
:1025D000A0F880C0ADF87C10BDF87CC0ADF87CC020
:1025E000BDF87CC0A0F880C0ADF87C10BDF87CC000
:1025F000ADF87CC0BDF87CC0A0F880C0ADF87C1000
:10260000BDF87CC0ADF87CC0BDF87CC0A0F880C02F
:10261000ADF87C10BDF87CC0ADF87CC0BDF87CC0C6
:10262000A0F880C0ADF87C10BDF87CC0ADF87CC0CF
:10263000BDF87CC0A0F880C0ADF87C10BDF87CC0AF
:10264000ADF87CC0BDF87CC0A0F880C0ADF87C10AF
:10265000BDF87CC0ADF87CC0BDF87CC0A0F880C0DF
:10266000ADF87C10BDF87CC0ADF87CC0BDF87CC076
:10267000A0F880C04FF0B40CADF87CC0BDF87CC0B1
:10268000ADF87CC0BDF87CC0A0F87EC0ADF87C3051
:10269000BDF87C30ADF87C30BDF87C30A0F88030DF
:1026A000ADF87C10BDF87C30ADF87C30BDF87C30E6
:1026B000A0F88030ADF87CE0BDF87C30ADF87C301F
:1026C000BDF87C30A0F88030ADF87C10BDF87C30CF
:1026D000ADF87C30BDF87C30A0F88030A123ADF897
:1026E0007C30BDF87C30ADF87C30BDF87C30A0F893
:1026F0008030ADF87C10BDF87C30ADF87C30BDF892
:102700007C30A0F88030B523ADF87C30BDF87C304B
:10271000ADF87C30BDF87C30A0F87E30ADF87C2080
:10272000BDF87C20ADF87C20BDF87C20A0F880208E
:10273000ADF87C10BDF87C20ADF87C20BDF87C2085
:10274000A0F88020ADF87C90BDF87C20ADF87C200E
:10275000BDF87C20A0F88020ADF87C10BDF87C206E
:10276000ADF87C20BDF87C20A0F880200422ADF8D4
:102770007C20BDF87C30ADF87C30BDF87C30A0F812
:102780008030ADF87C10BDF87C30ADF87C30BDF801
:102790007C30A0F88030B623ADF87C30BDF87C30BA
:1027A000ADF87C30BDF87C30A0F87E30ADF87C1000
:1027B000BDF87C30ADF87C30BDF87C30A0F88030BE
:1027C000ADF87C10BDF87C30ADF87C30BDF87C30C5
:1027D000A0F88030B723ADF87C30BDF87C30ADF880
:1027E0007C30BDF87C30A0F87E300D46ADF87C1012
:1027F000BDF87C10ADF87C10BDF87C10A0F88010FE
:10280000ADF87C50BDF87C10ADF87C10BDF87C10A4
:10281000A0F880103F21ADF87C10BDF87C10ADF819
:102820007C10BDF87C10A0F88010ADF87C50BDF88D
:102830007C10ADF87C10BDF87C10A0F880105E21F3
:10284000ADF87C10BDF87C10ADF87C10BDF87C10A4
:10285000A0F88010ADF87C50BDF87C10ADF87C106D
:10286000BDF87C10A0F880106421ADF87C10BDF894
:102870007C10ADF87C10BDF87C10A0F88010ADF88D
:102880007C50BDF87C10ADF87C10BDF87C10A0F831
:1028900080108C21ADF87C10BDF87C10ADF87C1058
:1028A000BDF87C10A0F88010ADF87C50BDF87C100D
:1028B000ADF87C10BDF87C10A0F88010AC21ADF80C
:1028C0007C10BDF87C10ADF87C10BDF87C10A0F831
:1028D0008010ADF87C50BDF87C10ADF87C10BDF8D0
:1028E0007C10A0F88010DC21ADF87C10BDF87C30A5
:1028F000ADF87C30BDF87C30A0F88030ADF87C506D
:10290000BDF87C30ADF87C30BDF87C30A0F880306C
:102910007023ADF87C30BDF87C30ADF87C30BDF86C
:102920007C30A0F88030ADF87C50BDF87C30ADF83C
:102930007C30BDF87C30A0F880309023ADF87C303E
:10294000BDF87C30ADF87C30BDF87C30A0F880302C
:10295000ADF87C50BDF87C30ADF87C30BDF87C30F3
:10296000A0F88030EB23ADF87C30BDF87C30ADF8BA
:102970007C30BDF87C30A0F88030ADF87C50BDF8DC
:102980007C30ADF87C30BDF87C30A0F88030ADF8FC
:102990007C10BDF87C10ADF87C10BDF87C10A0F860
:1029A0008010ADF87C50BDF87C10ADF87C10BDF8FF
:1029B0007C10A0F88010B821ADF87C10BDF87C1018
:1029C000ADF87C10BDF87C10A0F87E10ADF87C50FE
:1029D000BDF87C10ADF87C10BDF87C10A0F880101C
:1029E000ADF87C50BDF87C10ADF87C10BDF87C10C3
:1029F000A0F88010ADF87C50BDF87C10ADF87C10CC
:102A0000BDF87C10A0F88010ADF87C50BDF87C10AB
:102A1000ADF87C10BDF87C10A0F88010ADF87C50AB
:102A2000BDF87C10ADF87C10BDF87C10A0F88010CB
:102A3000ADF87C50BDF87C10ADF87C10BDF87C1072
:102A4000A0F88010ADF87C50BDF87C10ADF87C107B
:102A5000BDF87C10A0F88010ADF87C50BDF87C105B
:102A6000ADF87C10BDF87C10A0F88010BA21ADF84C
:102A70007C10BDF87C10ADF87C10BDF87C10A0F87F
:102A80007E102421ADF87C10BDF87C10ADF87C10D0
:102A9000BDF87C10A0F88010ADF87C50BDF87C101B
:102AA000ADF87C10BDF87C10A0F88010ADF87C501B
:102AB000BDF87C10ADF87C10BDF87C10A0F880103B
:102AC000ADF87C50BDF87C10ADF87C10BDF87C10E2
:102AD000A0F88010C121ADF87C10BDF87C10ADF8D5
:102AE0007C10BDF87C10A0F87E102021ADF87C1081
:102AF000BDF87C10ADF87C10BDF87C10A0F88010FB
:102B0000ADF87C50BDF87C10ADF87C10BDF87C10A1
:102B1000A0F880105421ADF87C10BDF87C10ADF801
:102B20007C10BDF87C10A0F88010ADF87C50BDF88A
:102B30007C10ADF87C10BDF87C10A0F88010FF214F
:102B4000ADF87C10BDF87C10ADF87C10BDF87C10A1
:102B5000A0F88010ADF87C50BDF87C10ADF87C106A
:102B6000BDF87C10A0F88010C221ADF87C10BDF833
:102B70007C10ADF87C10BDF87C10A0F87E100A2106
:102B8000ADF87C10BDF87C10ADF87C10BDF87C1061
:102B9000A0F88010ADF87C50BDF87C10ADF87C102A
:102BA000BDF87C10A0F88010ADF87C20BDF87C103A
:102BB000ADF87C10BDF87C10A0F88010ADF87C500A
:102BC000BDF87C10ADF87C10BDF87C10A0F880102A
:102BD000C321ADF87C10BDF87C10ADF87C10BDF8B9
:102BE0007C10A0F87E103C21ADF87C10BDF87C1064
:102BF000ADF87C10BDF87C10A0F88010ADF87C50CA
:102C0000BDF87C10ADF87C10BDF87C10A0F88010E9
:102C1000ADF87C80BDF87C10ADF87C10BDF87C1060
:102C2000A0F88010ADF87C50BDF87C10ADF87C1099
:102C3000BDF87C10A0F880103921ADF87C10BDF8EB
:102C40007C10ADF87C10BDF87C10A0F88010ADF8B9
:102C50007C50BDF87C10ADF87C10BDF87C10A0F85D
:102C600080103721ADF87C10BDF87C10ADF87C10D9
:102C7000BDF87C10A0F88010ADF87C50BDF87C1039
:102C8000ADF87C10BDF87C10A0F880103C21ADF8A8
:102C90007C10BDF87C10ADF87C10BDF87C10A0F85D
:102CA0008010ADF87C50BDF87C10ADF87C10BDF8FC
:102CB0007C10A0F880104FF0360BADF87CB0BDF85A
:102CC0007C10ADF87C10BDF87C10A0F88010ADF839
:102CD0007C50BDF87C10ADF87C10BDF87C10A0F8DD
:102CE00080103222ADF87C20BDF87C10ADF87C104D
:102CF000BDF87C10A0F88010ADF87C50BDF87C10B9
:102D0000ADF87C10BDF87C10A0F880102F23ADF832
:102D10007C30BDF87CC0ADF87CC0BDF87CC0A0F8AC
:102D200080C0ADF87C50BDF87CC0ADF87CC0BDF86B
:102D30007CC0A0F880C04FF02C0EADF87CE0BDF850
:102D40007CC0ADF87CC0BDF87CC0A0F880C0ADF8F8
:102D50007C50BDF87CC0ADF87CC0BDF87CC0A0F84C
:102D600080C04FF0290CADF87CC0BDF87C90ADF868
:102D70007C90BDF87C90A0F88090ADF87C50BDF8B8
:102D80007C90ADF87C90BDF87C90A0F880902621D6
:102D9000ADF87C10BDF87C90ADF87C90BDF87C90CF
:102DA000A0F88090ADF87C50BDF87C90ADF87C9098
:102DB000BDF87C90A0F880902421ADF87C10BDF87F
:102DC0007C90ADF87C90BDF87C90A0F88090ADF838
:102DD0007C50BDF87C90ADF87C90BDF87C90A0F85C
:102DE0008090ADF87C10BDF87C90ADF87C90BDF87B
:102DF0007C90A0F88090ADF87C50BDF87C90ADF848
:102E00007C90BDF87C90A0F880904FF02309ADF83D
:102E10007C90BDF87CA0ADF87CA0BDF87CA0A0F8AB
:102E200080A0ADF87C50BDF87CA0ADF87CA0BDF8CA
:102E30007CA0A0F880A04FF03C0AADF87CA0BDF8C3
:102E40007CA0ADF87CA0BDF87CA0A0F880A0ADF877
:102E50007C50BDF87CA0ADF87CA0BDF87CA0A0F8AB
:102E600080A0ADF87CB0BDF87CA0ADF87CA0BDF82A
:102E70007CA0A0F880A0ADF87C50BDF87CA0ADF897
:102E80007CA0BDF87CA0A0F880A0ADF87C20BDF8A7
:102E90007CA0ADF87CA0BDF87CA0A0F880A0ADF827
:102EA0007C50BDF87CA0ADF87CA0BDF87CA0A0F85B
:102EB00080A0ADF87C30BDF87C30ADF87C30BDF83A
:102EC0007C30A0F88030ADF87C50BDF87C30ADF897
:102ED0007C30BDF87C30A0F88030ADF87CE0BDF8E7
:102EE0007C30ADF87C30BDF87C30A0F88030ADF897
:102EF0007C50BDF87C30ADF87C30BDF87C30A0F85B
:102F00008030ADF87CC0BDF87C30ADF87C30BDF8C9
:102F10007C30A0F88030ADF87C50BDF87C30ADF846
:102F20007C30BDF87C30A0F880302623ADF87C30B2
:102F3000BDF87C30ADF87C30BDF87C30A0F8803036
:102F4000ADF87C50BDF87C30ADF87C30BDF87C30FD
:102F5000A0F88030ADF87C10BDF87C30ADF87C3046
:102F6000BDF87C30A0F88030ADF87C50BDF87C30E6
:102F7000ADF87C30BDF87C30A0F88030ADF87C1026
:102F8000BDF87C10ADF87C10BDF87C10A0F8801066
:102F9000ADF87C50BDF87C10ADF87C10BDF87C100D
:102FA000A0F880102321ADF87C10BDF87C10ADF89E
:102FB0007C10BDF87C10A0F88010ADF87C50BDF8F6
:102FC0007C10ADF87C10BDF87C10A0F88010C421F6
:102FD000ADF87C10BDF87C30ADF87C30BDF87C30AD
:102FE000A0F87E306223ADF87C30BDF87C30ADF8BF
:102FF0007C30BDF87C30A0F88030ADF87C50BDF856
:103000007C30ADF87C30BDF87C30A0F880300523F2
:10301000ADF87C30BDF87C30ADF87C30BDF87C304C
:10302000A0F88030ADF87C50BDF87C30ADF87C3035
:10303000BDF87C30A0F880308423ADF87C30BDF83A
:103040007C30ADF87C30BDF87C30A0F88030ADF835
:103050007C50BDF87C30ADF87C30BDF87C30A0F8F9
:103060008030F023ADF87C30BDF87C30ADF87C309A
:10307000BDF87C30A0F88030ADF87C50BDF87C30D5
:10308000ADF87C30BDF87C30A0F880301823ADF866
:103090007C30BDF87C30ADF87C30BDF87C30A0F8D9
:1030A0008030ADF87C50BDF87C30ADF87C30BDF898
:1030B0007C30A0F88030A423ADF87C30BDF87C30A3
:1030C000ADF87C30BDF87C30A0F88030ADF87C5095
:1030D000BDF87C30ADF87C30BDF87C30A0F8803095
:1030E0001823ADF87C30BDF87C30ADF87C30BDF8ED
:1030F0007C30A0F88030ADF87C50BDF87C30ADF865
:103100007C30BDF87C30A0F880305023ADF87C30A6
:10311000BDF87C30ADF87C30BDF87C30A0F8803054
:10312000ADF87C50BDF87C30ADF87C30BDF87C301B
:10313000A0F880300C23ADF87C30BDF87C30ADF8C1
:103140007C30BDF87C30A0F88030ADF87C50BDF804
:103150007C30ADF87C30BDF87C30A0F8803017238F
:10316000ADF87C30BDF87CC0ADF87CC0BDF87CC04B
:10317000A0F880C0ADF87C50BDF87CC0ADF87CC034
:10318000BDF87CC0A0F880C04FF0950CADF87CC0B5
:10319000BDF87CC0ADF87CC0BDF87CC0A0F880C094
:1031A000ADF87C50BDF87CC0ADF87CC0BDF87CC0EB
:1031B000A0F880C04FF0F30AADF87CA0BDF87CC049
:1031C000ADF87CC0BDF87CC0A0F880C0ADF87C50E4
:1031D000BDF87CC0ADF87CC0BDF87CC0A0F880C054
:1031E0004FF0E60CADF87CC0BDF87CC0ADF87CC0FB
:1031F000BDF87CC0A0F880C0ADF87C50BDF87CC0A4
:10320000ADF87CC0BDF87CC0A0F880C04FF0C50C04
:10321000ADF87CC0BDF87CC0ADF87CC0BDF87CC00A
:10322000A0F87EC0ADF87C20BDF87C20ADF87C20F5
:10323000BDF87C20A0F88020ADF87C50BDF87C2043
:10324000ADF87C20BDF87C20A0F880204422ADF8A9
:103250007C20BDF87C20ADF87C20BDF87C20A0F857
:103260008020ADF87C50BDF87C20ADF87C20BDF806
:103270007C20A0F880206522ADF87C20BDF87C2061
:10328000ADF87C20BDF87C20A0F88020ADF87C5003
:10329000BDF87C20ADF87C20BDF87C20A0F8802013
:1032A0007622ADF87C20BDF87C20ADF87C20BDF8FE
:1032B0007C20A0F88020ADF87C50BDF87C20ADF8D3
:1032C0007C20BDF87C20A0F880208822ADF87C20EE
:1032D000BDF87C20ADF87C20BDF87C20A0F88020D3
:1032E000ADF87C50BDF87C20ADF87C20BDF87C208A
:1032F000A0F88020C622ADF87C20BDF87C20ADF877
:103300007C20BDF87C20A0F87E202022ADF87C2017
:10331000BDF87C20ADF87C20BDF87C20A0F8802092
:10332000ADF87C50BDF87C20ADF87C20BDF87C2049
:10333000A0F88020ADF87C30BDF87C20ADF87C2072
:10334000BDF87C20A0F88020ADF87C50BDF87C2032
:10335000ADF87C20BDF87C20A0F88020ADF87C6022
:10336000BDF87C20ADF87C20BDF87C20A0F8802042
:10337000ADF87C50BDF87C20ADF87C20BDF87C20F9
:10338000A0F88020C722ADF87C20BDF87C20ADF8E5
:103390007C20BDF87C20A0F87E20ADF87C50BDF8E4
:1033A0007C20ADF87C20BDF87C20A0F88020ADF812
:1033B0007C50BDF87C20ADF87C20BDF87C20A0F8C6
:1033C0008020ADF87C50BDF87C20ADF87C20BDF8A5
:1033D0007C20A0F88020ADF87C50BDF87C20ADF8B2
:1033E0007C20BDF87C20A0F88020C822ADF87C208D
:1033F000BDF87C20ADF87C20BDF87C20A0F87E20B4
:10340000ADF87C50BDF87C20ADF87C20BDF87C2068
:10341000A0F88020ADF87C50BDF87C20ADF87C2071
:10342000BDF87C20A0F88020ADF87C50BDF87C2051
:10343000ADF87C20BDF87C20A0F88020ADF87C5051
:10344000BDF87C20ADF87C20BDF87C20A0F8802061
:10345000C922ADF87C20BDF87C20ADF87C20BDF8F9
:103460007C20A0F87E20ADF87C50BDF87C20ADF823
:103470007C20BDF87C20A0F88020ADF87C50BDF801
:103480007C20ADF87C20BDF87C20A0F88020ADF831
:103490007C50BDF87C20ADF87C20BDF87C20A0F8E5
:1034A0008020ADF87C50BDF87C20ADF87C20BDF8C4
:1034B0007C20A0F88020ADF87C50BDF87C20ADF8D1
:1034C0007C20BDF87C20A0F88020ADF87C50BDF8B1
:1034D0007C20ADF87C20BDF87C20A0F88020ADF8E1
:1034E0007C50BDF87C20ADF87C20BDF87C20A0F895
:1034F0008020ADF87C50BDF87C20ADF87C20BDF874
:103500007C20A0F88020ADF87C50BDF87C20ADF880
:103510007C20BDF87C20A0F88020ADF87C50BDF860
:103520007C20ADF87C20BDF87C20A0F88020ADF890
:103530007C50BDF87C20ADF87C20BDF87C20A0F844
:103540008020ADF87C50BDF87C20ADF87C20BDF823
:103550007C20A0F88020ADF87C50BDF87C20ADF830
:103560007C20BDF87C20A0F88020ADF87C50BDF810
:103570007C20ADF87C20BDF87C20A0F88020ADF840
:103580007C50BDF87C20ADF87C20BDF87C20A0F8F4
:103590008020ADF87C50BDF87C20ADF87C20BDF8D3
:1035A0007C20A0F88020ADF87C70BDF87C20ADF8C0
:1035B0007C20BDF87C20A0F87E204FF0160CADF8E2
:1035C0007CC0BDF87C20ADF87C20BDF87C20A0F844
:1035D0008020ADF87C50BDF87C20ADF87C20BDF893
:1035E0007C20A0F880201C22ADF87C20BDF87C3027
:1035F000ADF87C30BDF87C30A0F88030ADF87C5060
:10360000BDF87C30ADF87C30BDF87C30A0F880305F
:103610002123ADF87C30BDF87C30ADF87C30BDF8AE
:103620007C30A0F88030ADF87C50BDF87C30ADF82F
:103630007C30BDF87C30A0F880303623ADF87C308B
:10364000BDF87C30ADF87C30BDF87C30A0F880301F
:10365000ADF87C50BDF87C30ADF87C30BDF87C30E6
:10366000A0F880304623ADF87C30BDF87C30ADF852
:103670007C30BDF87C30A0F88030ADF87C50BDF8CF
:103680007C30ADF87C30BDF87C30A0F8803052231F
:10369000ADF87C30BDF87C30ADF87C30BDF87C30C6
:1036A000A0F88030ADF87C50BDF87C30ADF87C30AF
:1036B000BDF87C30A0F880304FF0640BADF87CB0E2
:1036C000BDF87C30ADF87C30BDF87C30A0F880309F
:1036D000ADF87C50BDF87C30ADF87C30BDF87C3066
:1036E000A0F880307A23ADF87C30BDF87C30ADF89E
:1036F0007C30BDF87C30A0F88030ADF87C50BDF84F
:103700007C30ADF87C30BDF87C30A0F880308B2365
:10371000ADF87C30BDF87C90ADF87C90BDF87C9025
:10372000A0F88090ADF87C50BDF87C90ADF87C900E
:10373000BDF87C90A0F880904FF09909ADF87C908E
:10374000BDF87C90ADF87C90BDF87C90A0F880909E
:10375000ADF87C50BDF87C90ADF87C90BDF87C90C5
:10376000A0F880904FF0A809ADF87C90BDF87C904F
:10377000ADF87C90BDF87C90A0F88090ADF87C50BE
:10378000BDF87C90ADF87C90BDF87C90A0F880905E
:103790004FF0B909ADF87C90BDF87C90ADF87C9005
:1037A000BDF87C90A0F88090ADF87C50BDF87C907E
:1037B000ADF87C90BDF87C90A0F88090ADF87C10BE
:1037C000BDF87C90ADF87C90BDF87C90A0F880901E
:1037D000ADF87C50BDF87C90ADF87C90BDF87C9045
:1037E000A0F880904FF0CA09ADF87C90BDF87C90AD
:1037F000ADF87C90BDF87C90A0F88090ADF87C503E
:10380000BDF87C90ADF87C90BDF87C90A0F88090DD
:103810004FF0D20EADF87CE0BDF87C90ADF87C9016
:10382000BDF87C90A0F88090ADF87C50BDF87C90FD
:10383000ADF87C90BDF87C90A0F880904FF0D9094D
:10384000ADF87C90BDF87C90ADF87C90BDF87C9094
:10385000A0F88090ADF87C50BDF87C90ADF87C90DD
:10386000BDF87C90A0F88090ADF87C70BDF87C909D
:10387000ADF87C90BDF87C90A0F88090ADF87C50BD
:10388000BDF87C90ADF87C90BDF87C90A0F880905D
:10389000D146ADF87CA0BDF87CA0ADF87CA0BDF809
:1038A0007CA0A0F880A0ADF87C50BDF87CA0ADF85D
:1038B0007CA0BDF87CA0A0F880A04FF0E10AADF894
:1038C0007CA0BDF87CA0ADF87CA0BDF87CA0A0F8E1
:1038D0007EA0ADF87CC0BDF87CC0ADF87CC0BDF862
:1038E0007CC0A0F880C0ADF87C50BDF87CC0ADF8BD
:1038F0007CC0BDF87CC0A0F880C0ADF87C20BDF8CD
:103900007C20ADF87C20BDF87C20A0F88020ADF8AC
:103910007C50BDF87C20ADF87C20BDF87C20A0F860
:1039200080202222ADF87C20BDF87C20ADF87C20E0
:10393000BDF87C20A0F88020ADF87C50BDF87C203C
:10394000ADF87C20BDF87C20A0F880203622ADF8B0
:103950007C20BDF87C20ADF87C20BDF87C20A0F850
:103960008020ADF87C50BDF87C20ADF87C20BDF8FF
:103970007C20A0F880204522ADF87C20BDF87C207A
:10398000ADF87C20BDF87C20A0F88020ADF87C50FC
:10399000BDF87C20ADF87C20BDF87C20A0F880200C
:1039A0005222ADF87C20BDF87C20ADF87C20BDF81B
:1039B0007C20A0F88020ADF87C50BDF87C20ADF8CC
:1039C0007C20BDF87C20A0F88020ADF87CB0BDF84C
:1039D0007C20ADF87C20BDF87C20A0F88020ADF8DC
:1039E0007C50BDF87C20ADF87C20BDF87C20A0F890
:1039F00080207A22ADF87C20BDF87C20ADF87C20B8
:103A0000BDF87C20A0F88020ADF87C50BDF87C206B
:103A1000ADF87C20BDF87C20A0F88020ADF87C308B
:103A2000BDF87C20ADF87C20BDF87C20A0F880207B
:103A3000ADF87C50BDF87C20ADF87C20BDF87C2032
:103A4000A0F880209922ADF87C20BDF87C20ADF84C
:103A50007C20BDF87C20A0F88020ADF87C50BDF81B
:103A60007C20ADF87C20BDF87C20A0F88020A82226
:103A7000ADF87C20BDF87C20ADF87C20BDF87C2022
:103A8000A0F88020ADF87C50BDF87C20ADF87C20FB
:103A9000BDF87C20A0F88020B922ADF87C20BDF8CC
:103AA0007C20ADF87C20BDF87C20A0F88020ADF80B
:103AB0007C50BDF87C20ADF87C20BDF87C20A0F8BF
:103AC0008020ADF87C10BDF87C10ADF87C10BDF8FE
:103AD0007C10A0F88010ADF87C50BDF87C10ADF8DB
:103AE0007C10BDF87C10A0F88010CA21ADF87C10C5
:103AF000BDF87C10ADF87C10BDF87C10A0F88010EB
:103B0000ADF87C50BDF87C10ADF87C10BDF87C1091
:103B1000A0F88010ADF87CE0BDF87C10ADF87C100A
:103B2000BDF87C10A0F880100021ADF87C10BDF825
:103B30007C10ADF87C10BDF87C10A0F88010D82166
:103B4000ADF87C10BDF87C10ADF87C10BDF87C1091
:103B5000A0F880100021ADF87C10BDF87C10ADF805
:103B60007C10BDF87C10A0F88010ADF87C70BDF81A
:103B70007C10ADF87C10BDF87C10A0F880100021FE
:103B8000ADF87C10BDF87C10ADF87C10BDF87C1051
:103B9000A0F88010ADF87C90BDF87C10ADF87C10DA
:103BA000BDF87C10A0F880100021ADF87C10BDF8A5
:103BB0007C10ADF87C10BDF87C10A0F88010E221DC
:103BC000ADF87C10BDF87C10ADF87C10BDF87C1011
:103BD000A0F87E100527ADF87C70BDF87C10ADF81C
:103BE0007C10BDF87C10A0F880100021ADF87C108E
:103BF000BDF87C10ADF87C10BDF87C10A0F88010EA
:103C00000B21ADF87C10BDF87C10ADF87C10BDF830
:103C10007C10A0F880100021ADF87C10BDF87C105D
:103C2000ADF87C10BDF87C10A0F880101B21ADF819
:103C30007C10BDF87C10ADF87C10BDF87C10A0F8AD
:103C400080100021ADF87C10BDF87C10ADF87C1020
:103C5000BDF87C10A0F880103421ADF87C10BDF8C0
:103C60007C10ADF87C10BDF87C10A0F8801000210D
:103C7000ADF87C10BDF87C10ADF87C10BDF87C1060
:103C8000A0F880104421ADF87C10BDF87C10ADF890
:103C90007C10BDF87C10A0F880100021ADF87C10DD
:103CA000BDF87C10ADF87C10BDF87C10A0F8801039
:103CB0004F21ADF87C10BDF87C10ADF87C10BDF83C
:103CC0007C10A0F880100021ADF87C10BDF87C10AD
:103CD000ADF87C10BDF87C10A0F880106121ADF823
:103CE0007C10BDF87C10ADF87C10BDF87C10A0F8FD
:103CF00080100021ADF87C10BDF87C10ADF87C1070
:103D0000BDF87C10A0F880107921ADF87C10BDF8CA
:103D10007C10ADF87C10BDF87C10A0F8801000215C
:103D2000ADF87C10BDF87C10ADF87C10BDF87C10AF
:103D3000A0F880108821ADF87C10BDF87C20ADF88B
:103D40007C20BDF87C20A0F880200022ADF87C20EB
:103D5000BDF87C20ADF87C20BDF87C20A0F8802048
:103D60009722ADF87C20BDF87C20ADF87C20BDF812
:103D70007C20A0F880200022ADF87C20BDF87C20BB
:103D8000ADF87C20BDF87C20A0F88020A622ADF8FC
:103D90007C20BDF87C20ADF87C20BDF87C20A0F80C
:103DA00080200022ADF87C20BDF87C20ADF87C207E
:103DB000BDF87C20A0F880204FF0B70BADF87CB0A8
:103DC000BDF87C20ADF87C20BDF87C20A0F88020D8
:103DD0000022ADF87C20BDF87C20ADF87C20BDF839
:103DE0007C20A0F88020C222ADF87C20BDF87C3079
:103DF000ADF87C30BDF87C30A0F880300023ADF801
:103E00007C30BDF87C30ADF87C30BDF87C30A0F85B
:103E10008030C723ADF87C30BDF87CC0ADF87CC0E5
:103E2000BDF87CC0A0F880C04FF0000CADF87CC09D
:103E3000BDF87CC0ADF87CC0BDF87CC0A0F880C0E7
:103E40004FF0D10CADF87CC0BDF87CA0ADF87CA0E3
:103E5000BDF87CA0A0F880A04FF0000AADF87CA0CF
:103E6000BDF87CA0ADF87CA0BDF87CA0A0F880A037
:103E70004FF0D60AADF87CA0BDF87CA0ADF87CA0D0
:103E8000BDF87CA0A0F880A04FF0000AADF87CA09F
:103E9000BDF87CA0ADF87CA0BDF87CA0A0F880A007
:103EA0004FF0DD0AADF87CA0BDF87CA0ADF87CA099
:103EB000BDF87CA0A0F880A04FF0000AADF87CA06F
:103EC000BDF87CA0ADF87CA0BDF87CA0A0F880A0D7
:103ED000ADF87C90BDF87CA0ADF87CA0BDF87CA0CE
:103EE000A0F880A04FF0000AADF87CA0BDF87CA03F
:103EF000ADF87CA0BDF87CA0A0F880A04FF0E30A4C
:103F0000ADF87CA0BDF87CA0ADF87CA0BDF87CA08D
:103F1000A0F87EA0ADF87C70BDF87C70ADF87C7028
:103F2000BDF87C70A0F88070ADF87C50BDF87C7056
:103F3000ADF87C70BDF87C70A0F880700A27ADF8F1
:103F40007C70BDF87C70ADF87C70BDF87C70A0F81A
:103F50008070ADF87C50BDF87C70ADF87C70BDF819
:103F60007C70A0F880701C27ADF87C70BDF87C7068
:103F7000ADF87C70BDF87C70A0F88070ADF87C5016
:103F8000BDF87C70ADF87C70BDF87C70A0F88070D6
:103F90003327ADF87C70BDF87C70ADF87C70BDF84F
:103FA0007C70A0F88070ADF87C50BDF87C70ADF8E6
:103FB0007C70BDF87C70A0F880704427ADF87C70F0
:103FC000BDF87C70ADF87C70BDF87C70A0F8807096
:103FD000ADF87C50BDF87C70ADF87C70BDF87C709D
:103FE000A0F880705027ADF87C70BDF87C70ADF8FB
:103FF0007C70BDF87C70A0F88070ADF87C50BDF886
:104000007C70ADF87C70BDF87C70A0F88070622781
:10401000ADF87C70BDF87C70ADF87C70BDF87C703C
:10402000A0F88070ADF87C50BDF87C70ADF87C7065
:10403000BDF87C70A0F880707827ADF87C70BDF872
:104040007C70ADF87C70BDF87C70A0F88070ADF825
:104050007C50BDF87C70ADF87C70BDF87C70A0F829
:104060008070ADF87C10BDF87C70ADF87C70BDF848
:104070007C70A0F88070ADF87C50BDF87C70ADF815
:104080007C70BDF87C70A0F880709727ADF87C70CC
:10409000BDF87C70ADF87C70BDF87C70A0F88070C5
:1040A000ADF87C50BDF87C70ADF87C70BDF87C70CC
:1040B000A0F88070A627ADF87C70BDF87C70ADF8D4
:1040C0007C70BDF87C70A0F88070ADF87C50BDF8B5
:1040D0007C70ADF87C70BDF87C70A0F88070ADF895
:1040E0007CB0BDF87C70ADF87C70BDF87C70A0F839
:1040F0008070ADF87C50BDF87C70ADF87C70BDF878
:104100007C70A0F88070ADF87C20BDF87C20ADF804
:104110007C20BDF87C20A0F88020ADF87C50BDF854
:104120007C20ADF87C20BDF87C20A0F88020ADF884
:104130007C30BDF87C20ADF87C20BDF87C20A0F858
:104140008020ADF87C50BDF87C20ADF87C20BDF817
:104150007C20A0F88020ADF87CC0BDF87C20ADF8B4
:104160007C20BDF87C20A0F88020ADF87C50BDF804
:104170007C20ADF87C20BDF87C20A0F88020D522E2
:10418000ADF87C20BDF87C20ADF87C20BDF87C200B
:10419000A0F88020ADF87C50BDF87C20ADF87C20E4
:1041A000BDF87C20A0F88020DD22ADF87C20BDF891
:1041B0007C30ADF87C30BDF87C30A0F88030ADF8B4
:1041C0007C50BDF87C30ADF87C30BDF87C30A0F878
:1041D0008030ADF87C90BDF87C30ADF87C30BDF817
:1041E0007C30A0F88030ADF87C50BDF87C30ADF864
:1041F0007C30BDF87C30A0F88030E423ADF87C3012
:10420000BDF87C30ADF87C30BDF87C30A0F87E3055
:10421000ADF87C60BDF87C30ADF87C30BDF87C300A
:10422000A0F88030ADF87C50BDF87C30ADF87C3023
:10423000BDF87C30A0F88030ADF87C60BDF87C30F3
:10424000ADF87C30BDF87C30A0F88030ADF87C5003
:10425000BDF87C30ADF87C30BDF87C30A0F8803003
:104260000223ADF87C30BDF87CC0ADF87CC0BDF851
:104270007CC0A0F880C0ADF87C50BDF87CC0ADF823
:104280007CC0BDF87CC0A0F880C04FF02A0CADF80F
:104290007CC0BDF87CC0ADF87CC0BDF87CC0A0F887
:1042A00080C0ADF87C50BDF87CC0ADF87CC0BDF8D6
:1042B0007CC0A0F880C04FF03C0EADF87CE0BDF8AB
:1042C0007CC0ADF87CC0BDF87CC0A0F880C0ADF863
:1042D0007C50BDF87CC0ADF87CC0BDF87CC0A0F8B7
:1042E00080C04FF04B0CADF87CC0BDF87CC0ADF881
:1042F0007CC0BDF87CC0A4F880C0ADF87C50BDF88F
:104300007C00ADF87C00BDF87C00A4F880005D2046
:10431000ADF87C00BDF87C00ADF87C00BDF87C00F9
:10432000A4F880000020ADF87C00BDF87C00ADF85A
:104330007C00BDF87C00A4F880007420ADF87C00FF
:10434000BDF87C00ADF87C00BDF87C00A4F88000CE
:104350000020ADF87C00BDF87C00ADF87C00BDF815
:104360007C00A4F880008420ADF87C00BDF87CC0FF
:10437000ADF87CC0BDF87CC0A4F880C04FF0000C44
:10438000ADF87CC0BDF87CC0ADF87CC0BDF87CC089
:10439000A4F880C04FF0930CADF87CC0BDF87CC091
:1043A000ADF87CC0BDF87CC0A4F880C04FF0000C14
:1043B000ADF87CC0BDF87CC0ADF87CC0BDF87CC059
:1043C000A4F880C04FF0A20BADF87CB0BDF87CC063
:1043D000ADF87CC0BDF87CC0A4F880C04FF0000CE4
:1043E000ADF87CC0BDF87CC0ADF87CC0BDF87CC029
:1043F000A4F880C04FF0B30CADF87CC0BDF87C7061
:10440000ADF87C70BDF87C70A4F880700027ADF822
:104410007C70BDF87C70ADF87C70BDF87C70A4F841
:104420008070BE27ADF87C70BDF87C70ADF87C70F4
:10443000BDF87C70A4F880700027ADF87C70BDF8E2
:104440007C70ADF87C70BDF87C70A4F88070C427D7
:10445000ADF87C70BDF87CA0ADF87CA0BDF87CA068
:10446000A4F880A04FF0000AADF87CA0BDF87CA0B5
:10447000ADF87CA0BDF87CA0A4F880A04FF0CD0AD8
:10448000ADF87CA0BDF87CA0ADF87CA0BDF87CA008
:10449000A4F880A04FF0000AADF87CA0BDF87CA085
:1044A000ADF87CA0BDF87CA0A4F880A04FF0D30AA2
:1044B000ADF87CA0BDF87CA0ADF87CA0BDF87CA0D8
:1044C000A4F880A04FF0000AADF87CA0BDF87CA055
:1044D000ADF87CA0BDF87CA0A4F880A0ADF87C204D
:1044E000BDF87C20ADF87C20BDF87C20A4F88020AD
:1044F0000022ADF87C20BDF87C20ADF87C20BDF812
:104500007C20A4F88020ADF87C90BDF87C20ADF82C
:104510007C20BDF87C20A4F880200022ADF87C200F
:10452000BDF87C20ADF87C20BDF87C20A4F880206C
:10453000E522ADF87C20BDF87C20ADF87C20BDF8EC
:104540007C20A4F87E200022ADF87C20BDF87C20E1
:10455000ADF87C20BDF87C20A4F880200022ADF8C6
:104560007C20BDF87C20ADF87C20BDF87C20A4F830
:1045700080200022ADF87C20BDF87C20ADF87C20A6
:10458000BDF87C20A4F880200022ADF87C20BDF886
:104590007C20ADF87C20BDF87C20A4F88020ADF80C
:1045A0007C30BDF87C20ADF87C20BDF87C20A4F8E0
:1045B00080200022ADF87C20BDF87C20ADF87C2066
:1045C000BDF87C20A4F880202922ADF87C20BDF81D
:1045D0007C20ADF87C20BDF87C20A4F8802000224F
:1045E000ADF87C20BDF87C20ADF87C20BDF87C20A7
:1045F000A4F88020ADF87CE0BDF87C20ADF87C20EC
:10460000BDF87C20A4F880200022ADF87C20BDF805
:104610007C20ADF87C20BDF87C20A4F880204B22C3
:10462000ADF87C20BDF87C20ADF87C20BDF87C2066
:10463000A4F880200022ADF87C20BDF87C20ADF8E5
:104640007C20BDF87C20A4F880205D22ADF87C2081
:10465000BDF87C20ADF87C20BDF87C20A4F880203B
:104660000022ADF87C20BDF87C20ADF87C20BDF8A0
:104670007C20A4F880207422ADF87C20BDF87C203A
:10468000ADF87C20BDF87C20A4F880200022ADF895
:104690007C20BDF87C20ADF87C20BDF87C20A4F8FF
:1046A0008020ADF87C00BDF87C00ADF87C00BDF842
:1046B0007C00A4F880000020ADF87C00BDF87C00F0
:1046C000ADF87C00BDF87C00A4F880009320ADF824
:1046D0007C00BDF87C00ADF87C00BDF87C00A4F83F
:1046E00080000020ADF87C00BDF87C00ADF87C00B7
:1046F000BDF87C00A4F88000ADF87CB0BDF87C006B
:10470000ADF87C00BDF87C00A4F88000ADF87C50CA
:10471000BDF87C00ADF87C00BDF87C00A4F88000FA
:10472000ADF87CC0BDF87C00ADF87C00BDF87C0025
:10473000A4F88000ADF87C50BDF87C00ADF87C009A
:10474000BDF87C00A4F88000BE20ADF87C00BDF868
:104750007C00ADF87C00BDF87C00A4F88000ADF8CA
:104760007C50BDF87C00ADF87C00BDF87C00A4F85E
:104770008000ADF87C70BDF87C00ADF87C00BDF821
:104780007C00A4F88000ADF87C50BDF87C00ADF84A
:104790007C00BDF87C00A4F88000CD20ADF87C0042
:1047A000BDF87C00ADF87C00BDF87C00A4F880006A
:1047B000ADF87C50BDF87C00ADF87C00BDF87C0005
:1047C000A4F88000D320ADF87C00BDF87C00ADF8E3
:1047D0007C00BDF87C00A4F88000ADF87C50BDF8EA
:1047E0007C00ADF87C00BDF87C00A4F88000DC20E3
:1047F000ADF87C00BDF87C00ADF87C00BDF87C0015
:10480000A4F88000ADF87C50BDF87C00ADF87C00C9
:10481000BDF87C00A4F88000F320ADF87C00BDF862
:104820007C00ADF87C00BDF87C00A4F88000ADF8F9
:104830007C50BDF87C00ADF87C00BDF87C00A4F88D
:104840008000E620ADF87C00BDF87C00ADF87C006F
:10485000BDF87C00A4F87E001120ADF87C00BDF806
:104860007C00ADF87C00BDF87C00A4F88000ADF8B9
:104870007C50BDF87C00ADF87C00BDF87C00A4F84D
:1048800080003420ADF87C00BDF87C00ADF87C00E1
:10489000BDF87C00A4F88000ADF87C50BDF87C0029
:1048A000ADF87C00BDF87C00A4F880005620ADF87F
:1048B0007C00BDF87C00ADF87C00BDF87C00A4F85D
:1048C0008000ADF87C50BDF87C00ADF87C00BDF8F0
:1048D0007C00A4F880004FF07609ADF87C90BDF81C
:1048E0007C00ADF87C00BDF87C00A4F88000ADF839
:1048F0007C50BDF87C00ADF87C00BDF87C00A4F8CD
:1049000080004FF0770CADF87CC0BDF87C00ADF8AE
:104910007C00BDF87C00A4F88000ADF87C50BDF8A8
:104920007C00ADF87C00BDF87C00A4F88000662215
:10493000ADF87C20BDF87C00ADF87C00BDF87C00B3
:10494000A4F88000ADF87C50BDF87C00ADF87C0088
:10495000BDF87C00A4F88000ADF87C10BDF87C00A8
:10496000ADF87C00BDF87C00A4F88000ADF87C5068
:10497000BDF87C00ADF87C00BDF87C00A4F8800098
:104980009920ADF87C00BDF87C30ADF87C30BDF8E6
:104990007C30A4F88030ADF87C50BDF87C30ADF8A8
:1049A0007C30BDF87C30A4F880304FF0BB0BADF804
:1049B0007CB0BDF87C30ADF87C30BDF87C30A4F81C
:1049C0008030ADF87C50BDF87C30ADF87C30BDF85F
:1049D0007C30A4F88030ADF87C00BDF87C30ADF8B8
:1049E0007C30BDF87C30A4F88030ADF87C50BDF848
:1049F0007C30ADF87C30BDF87C30A4F88030ADF868
:104A00007C20BDF87C30ADF87C30BDF87C30A4F85B
:104A10008030ADF87C50BDF87C30ADF87C30BDF80E
:104A20007C30A4F880305527ADF87C70BDF87C3020
:104A3000ADF87C30BDF87C30A4F88030ADF87C5007
:104A4000BDF87C30ADF87C30BDF87C30A4F8803007
:104A5000ADF87C70BDF87C30ADF87C30BDF87C30B2
:104A6000A4F88030ADF87C50BDF87C30ADF87C30D7
:104A7000BDF87C30A4F880304FF0450EADF87CE0F6
:104A8000BDF87C30ADF87C30BDF87C30A4F88030C7
:104A9000ADF87C50BDF87C30ADF87C30BDF87C3092
:104AA000A4F880304323ADF87C30BDF87C30ADF8FD
:104AB0007C30BDF87C30A4F88030ADF87C50BDF877
:104AC0007C30ADF87C30BDF87C30A4F880304423D5
:104AD000ADF87C30BDF87CA0ADF87CA0BDF87CA022
:104AE000A4F880A0ADF87C50BDF87CA0ADF87CA007
:104AF000BDF87CA0A4F880A04FF0E70AADF87CA038
:104B0000BDF87CA0ADF87CA0BDF87CA0A4F87EA088
:104B10004FF0320AADF87CA0BDF87CA0ADF87CA0C7
:104B2000BDF87CA0A4F880A0ADF87C50BDF87CA0B6
:104B3000ADF87CA0BDF87CA0A4F880A0ADF87C7096
:104B4000BDF87CA0ADF87CA0BDF87CA0A4F880A046
:104B5000ADF87C50BDF87CA0ADF87CA0BDF87CA081
:104B6000A4F880A0ADF87C90BDF87C90ADF87C9066
:104B7000BDF87C90A4F88090ADF87C50BDF87C9096
:104B8000ADF87C90BDF87C90A4F88090ADF87C20C6
:104B9000BDF87C90ADF87C90BDF87C90A4F8809036
:104BA000ADF87C50BDF87C90ADF87C90BDF87C9061
:104BB000A4F880904FF06709ADF87C90BDF87CA018
:104BC000ADF87CA0BDF87CA0A4F880A0ADF87C5026
:104BD000BDF87CA0ADF87CA0BDF87CA0A4F880A0B6
:104BE000ADF87C90BDF87C90ADF87C90BDF87C90E1
:104BF000A4F88090ADF87C50BDF87C90ADF87C9026
:104C0000BDF87C90A4F880904FF0870AADF87CA0A6
:104C1000BDF87C90ADF87C90BDF87C90A4F88090B5
:104C2000ADF87C50BDF87C90ADF87C90BDF87C90E0
:104C3000A4F88090ADF87C00BDF87C90ADF87C9035
:104C4000BDF87C90A4F88090ADF87C50BDF87C90C5
:104C5000ADF87C90BDF87C90A4F88090ADF87CB065
:104C6000BDF87C90ADF87C90BDF87C90A4F8809065
:104C7000ADF87C50BDF87C90ADF87C90BDF87C9090
:104C8000A4F88090ADF87C00BDF87C90ADF87C90E5
:104C9000BDF87C90A4F88090ADF87C50BDF87C9075
:104CA000ADF87C90BDF87C90A4F88090ADF87CC005
:104CB000BDF87C90ADF87C90BDF87C90A4F8809015
:104CC000ADF87C50BDF87C90ADF87C90BDF87C9040
:104CD000A4F88090ADF87C30BDF87C90ADF87C9065
:104CE000BDF87C90A4F88090ADF87C50BDF87C9025
:104CF000ADF87C90BDF87C90A4F880904FF05609F8
:104D0000ADF87C90BDF87C90ADF87C90BDF87C90BF
:104D1000A4F88090ADF87C50BDF87C90ADF87C9004
:104D2000BDF87C90A4F880904FF02309ADF87C90FA
:104D3000BDF87C90ADF87C90BDF87C90A4F8809094
:104D4000ADF87C50BDF87C90ADF87C90BDF87C90BF
:104D5000A4F880904FF03309ADF87C90BDF87C90BA
:104D6000ADF87C90BDF87C90A4F88090ADF87C50B4
:104D7000BDF87C90ADF87C90BDF87C90A4F8809054
:104D8000ADF87CE0BDF87C90ADF87C90BDF87C90EF
:104D9000A4F88090ADF87C50BDF87C90ADF87C9084
:104DA000BDF87C90A4F880904FF0E809ADF87C90B5
:104DB000BDF87C90ADF87C90BDF87C90A4F87E9016
:104DC000ADF87C50BDF87C90ADF87C90BDF87C903F
:104DD000A4F88090ADF87C50BDF87C90ADF87C9044
:104DE000BDF87C90A4F88090ADF87C00BDF87C9074
:104DF000ADF87C90BDF87C90A4F88090ADF87C5024
:104E0000BDF87C90ADF87C90BDF87C90A4F88090C3
:104E1000ADF87CA0BDF87C90ADF87C90BDF87C909E
:104E2000A4F88090ADF87C50BDF87C90ADF87C90F3
:104E3000BDF87C90A4F88090ADF87C10BDF87C9013
:104E4000ADF87C90BDF87C90A4F88090ADF87C50D3
:104E5000BDF87C90ADF87C90BDF87C90A4F8809073
:104E6000ADF87CC0BDF87CC0ADF87CC0BDF87CC09E
:104E7000A4F880C0ADF87C50BDF87CC0ADF87CC013
:104E8000BDF87CC0A4F880C0ADF87C20BDF87CC023
:104E9000ADF87CC0BDF87CC0A4F880C0ADF87C50F3
:104EA000BDF87CC0ADF87CC0BDF87CC0A4F880C063
:104EB000ADF87C10BDF87C10ADF87C10BDF87C100E
:104EC000A4F88010ADF87C50BDF87C10ADF87C10D3
:104ED000BDF87C10A4F88010AA21ADF87C10BDF8B4
:104EE0007CC0ADF87CC0BDF87CC0A4F880C0ADF833
:104EF0007C50BDF87CC0ADF87CC0BDF87CC0A4F887
:104F000080C0ADF87CB0BDF87CC0ADF87CC0BDF809
:104F10007CC0A4F880C0ADF87C50BDF87CC0ADF872
:104F20007CC0BDF87CC0A4F880C0ADF87C00BDF8A2
:104F30007C00ADF87C00BDF87C00A4F88000ADF8E2
:104F40007C50BDF87C00ADF87C00BDF87C00A4F876
:104F50008000ADF87C20BDF87C00ADF87C00BDF889
:104F60007C00A4F88000ADF87C50BDF87C00ADF862
:104F70007C00BDF87C00A4F88000ADF87C70BDF822
:104F80007C00ADF87C00BDF87C00A4F88000ADF892
:104F90007C50BDF87C00ADF87C00BDF87C00A4F826
:104FA0008000ADF87C70BDF87C00ADF87C00BDF8E9
:104FB0007C00A4F88000ADF87C50BDF87C00ADF812
:104FC0007C00BDF87C00A4F88000ADF87C30BDF812
:104FD0007C00ADF87C00BDF87C00A4F88000ADF842
:104FE0007C50BDF87C00ADF87C00BDF87C00A4F8D6
:104FF0008000ADF87C30BDF87C00ADF87C00BDF8D9
:105000007C00A4F88000ADF87C50BDF87C00ADF8C1
:105010007C00BDF87C00A4F88000ADF87C70BDF881
:105020007C00ADF87C00BDF87C00A4F88000ADF8F1
:105030007C50BDF87C00ADF87C00BDF87C00A4F885
:105040008000E920ADF87C00BDF87C00ADF87C0064
:10505000BDF87C00A4F87E00ADF87C10BDF87C00A3
:10506000ADF87C00BDF87C00A4F88000ADF87C5061
:10507000BDF87C00ADF87C00BDF87C00A4F8800091
:10508000ADF87C50BDF87C00ADF87C00BDF87C002C
:10509000A4F88000ADF87C50BDF87C00ADF87C0031
:1050A000BDF87C00A4F88000ADF87C50BDF87C0011
:1050B000ADF87C00BDF87C00A4F87E00ADF87C1053
:1050C000BDF87C00ADF87C00BDF87C00A4F8800041
:1050D000CF20ADF87C00BDF87C00ADF87C00BDF8B9
:1050E0007C00A4F87E00ADF87C50BDF87C00ADF8E3
:1050F0007C00BDF87C00A4F88000ADF87C50BDF8C1
:105100007C00ADF87C00BDF87C00A4F88000ADF810
:105110007C50BDF87C00ADF87C00BDF87C00A4F8A4
:105120008000ADF87C50BDF87C00ADF87C00BDF887
:105130007C00A4F88000ADF87C50BDF87C00ADF890
:105140007C00BDF87C00A4F88000ADF87C50BDF870
:105150007C00ADF87C00BDF87C00A4F88000ADF8C0
:105160007C50BDF87C00ADF87C00BDF87C00A4F854
:105170008000ADF87C50BDF87C00ADF87C00BDF837
:105180007C00A4F88000ADF87C50BDF87C00ADF840
:105190007C00BDF87C00A4F88000ADF87C50BDF820
:1051A0007C00ADF87C00BDF87C00A4F88000ADF870
:1051B0007C50BDF87C00ADF87C00BDF87C00A4F804
:1051C0008000ADF87C50BDF87C00ADF87C00BDF8E7
:1051D0007C00A4F88000ADF87C50BDF87C00ADF8F0
:1051E0007C00BDF87C00A4F88000ADF87C50BDF8D0
:1051F0007C00ADF87C00BDF87C00A4F88000ADF820
:105200007C50BDF87C00ADF87C00BDF87C00A4F8B3
:105210008000ADF87C50BDF87C00ADF87C00BDF896
:105220007C00A4F88000ADF87C50BDF87C00ADF89F
:105230007C00BDF87C00A4F88000F020ADF87C0074
:10524000BDF87C00ADF87C00BDF87C00A4F87E00C1
:10525000ADF87C50BDF87C00ADF87C00BDF87C005A
:10526000A4F880005020ADF87C00BDF87C00ADF8BB
:105270007C00BDF87C00A4F88000ADF87C50BDF83F
:105280007C00ADF87C00BDF87C00A4F88000ADF88F
:105290007C50BDF87C00ADF87C00BDF87C00A4F823
:1052A0008000ADF87C50BDF87C00ADF87C00BDF806
:1052B0007C00A4F88000F320ADF87C00BDF87C00F1
:1052C000ADF87C00BDF87C00A4F87E00ADF87C5001
:1052D000BDF87C00ADF87C00BDF87C00A4F880002F
:1052E000F920ADF87C00BDF87C00ADF87C00BDF87D
:1052F0007C00A4F87E000620ADF87C00BDF87C00A0
:10530000ADF87C00BDF87C00A4F880001020ADF85A
:105310007C00BDF87C00ADF87C00BDF87C00A4F8F2
:1053200080004FF02909ADF87C90BDF87C00ADF805
:105330007C00BDF87C00A4F88000ADF87C50BDF87E
:105340007C00ADF87C00BDF87C00A4F88000ADF8CE
:105350007C80BDF87C00ADF87C00BDF87C00A4F832
:105360007E00ADF87C70BDF87C00ADF87C00BDF827
:105370007C00A4F880001120ADF87C00BDF87C0012
:10538000ADF87C00BDF87C00A4F87E00642003F03A
:1053900095FDADF87C90BDF87C00ADF87C00BDF8C3
:1053A0007C00A4F87E003520ADF87C00BDF87C00C0
:1053B000ADF87C00BDF87C00A4F87E00ADF87C5010
:1053C000BDF87C00ADF87C00BDF87C00A4F880003E
:1053D0005120ADF87C00BDF87C00ADF87C00BDF834
:1053E0007C00A4F87E00FF20ADF87C00BDF87C00B6
:1053F000ADF87C00BDF87C00A4F880005320ADF827
:105400007C00BDF87C00ADF87C00BDF87C00A4F801
:105410007E002C20ADF87C00BDF87C10ADF87C102F
:10542000BDF87C10A4F88010ADF87C70BDF87C103D
:10543000ADF87C10BDF87C10A4F87E108221ADF888
:105440007C10BDF87C10ADF87C10BDF87C10A4F881
:105450008010ADF87C00BDF87C00ADF87C00BDF894
:105460007C00A4F87E0002F082BC00BF4FF47041C3
:105470005520A4F87E10A4F88000491CAA20A4F8A6
:105480007E10A4F88000481C5221A4F87E00A4F8E5
:105490008010411C0820A4F87E10A4F88000491C4C
:1054A0000120A4F87E10A4F880004FF430410D20B4
:1054B000A4F87E10A4F88000491CA4F87E10A4F87B
:1054C0008000481C0D21A4F87E00A4F880104FF441
:1054D00036403421A4F87E00A4F88010401CA4F8C3
:1054E0007E00A4F88010401CA4F87E00A4F8801070
:1054F0004FF431400D21A4F87E00A4F88010401C28
:10550000A4F87E00A4F88010401CA4F87E00A4F843
:1055100080104FF437413420A4F87E10A4F88000A6
:10552000481C3421A4F87E00A4F88010411C3420CB
:10553000A4F87E10A4F880004FF432400021A4F8B3
:105540007E00A4F88010401CA4F87E00A4F880100F
:10555000401CA4F87E00A4F880104FF438402421A9
:10556000A4F87E00A4F88010401CA4F87E00A4F8E3
:105570008010401CA4F87E00A4F880104FF43F4136
:105580000120A4F87E10A4F880004FF433400F21CE
:10559000A4F87E00A4F88010411C0F20A4F87E100F
:1055A000A4F88000491CA4F87E10A4F880004FF4F1
:1055B00039403421A4F87E00A4F88010411C342026
:1055C000A4F87E10A4F88000491CA4F87E10A4F86A
:1055D00080004FF435400821A4F87E00A4F8801024
:1055E000401CA4F87E00A4F88010411C0820A4F8F8
:1055F0007E10A4F880004FF442400321A4F87E00FE
:10560000A4F880104FF43A412420A4F87E10A4F8A6
:105610008000481C2421A4F87E00A4F88010411CBE
:105620002420A4F87E10A4F880004FF43C41002010
:10563000A4F87E10A4F88000491C7820A4F87E10FD
:10564000A4F88000491C0020A4F87E10A4F8800073
:105650004FF43D41A4F87E10A4F88000481C782146
:10566000A4F87E00A4F88010401C0021A4F87E005D
:10567000A4F880104FF43E40A4F87E00A4F88010F7
:10568000401C6421A4F87E00A4F880104FF451401F
:105690000021A4F87E00A4F88010411C3320A4F857
:1056A0007E10A4F88000491C0020A4F87E10A4F805
:1056B0008000481C3421A4F87E00A4F88010401C0F
:1056C0000021A4F87E00A4F88010411C3A20A4F820
:1056D0007E10A4F88000481C0021A4F87E00A4F8E5
:1056E0008010411C4A20A4F87E10A4F88000481CB9
:1056F0000021A4F87E00A4F88010411C5C20A4F8CE
:105700007E10A4F88000481C0021A4F87E00A4F8B4
:105710008010401C8121A4F87E00A4F88010401C59
:105720000021A4F87E00A4F88010411CA620A4F853
:105730007E10A4F88000481C0021A4F87E00A4F884
:105740008010401CE521A4F87E00A4F88010401CC5
:105750000121A4F87E00A4F88010411C1320A4F8B5
:105760007E10A4F88000491C0120A4F87E10A4F843
:105770008000481C5421A4F87E00A4F88010411C2D
:105780000120A4F87E10A4F88000491C8220A4F80F
:105790007E10A4F88000491C0120A4F87E10A4F813
:1057A0008000481CCA21A4F87E00A4F88010411C87
:1057B0000220A4F87E10A4F88000491C0020A4F860
:1057C0007E10A4F88000481C0221A4F87E00A4F8F2
:1057D0008010401C0121A4F87E00A4F88010401C19
:1057E0000221A4F87E00A4F88010411C3420A4F803
:1057F0007E10A4F88000481C0221A4F87E00A4F8C2
:105800008010401C6721A4F87E00A4F88010411C81
:105810000220A4F87E10A4F88000481C8421A4F87B
:105820007E00A4F88010411C0220A4F87E10A4F889
:105830008000481CA421A4F87E00A4F88010411C1C
:105840000220A4F87E10A4F88000491CB720A4F818
:105850007E10A4F88000491C0220A4F87E10A4F851
:105860008000481CCF21A4F87E00A4F88010401CC2
:105870000221A4F87E00A4F88010411CDE20A4F8C8
:105880007E10A4F88000491C0220A4F87E10A4F821
:105890008000481CF221A4F87E00A4F88010411C6E
:1058A0000220A4F87E10A4F88000491CFE20A4F871
:1058B0007E10A4F88000481C0321A4F87E00A4F800
:1058C0008010401C1021A4F87E00A4F88010401C19
:1058D0000321A4F87E00A4F88010401C3321A4F812
:1058E0007E00A4F88010401C0321A4F87E00A4F8D8
:1058F0008010401C6D21A4F87E00A4F880104FF4A5
:1059000052410020A4F87E10A4F88000481C3321E6
:10591000A4F87E00A4F88010411C0020A4F87E109A
:10592000A4F88000481C3421A4F87E00A4F880105C
:10593000411C0020A4F87E10A4F88000491C3A20E5
:10594000A4F87E10A4F88000491C0020A4F87E1062
:10595000A4F88000481C4A21A4F87E00A4F8801016
:10596000411C0020A4F87E10A4F88000491C5C2093
:10597000A4F87E10A4F88000491C0020A4F87E1032
:10598000A4F88000491C8120A4F87E10A4F88000AF
:10599000481C0021A4F87E00A4F88010411CA62019
:1059A000A4F87E10A4F88000491C0020A4F87E1002
:1059B000A4F88000491CE520A4F87E10A4F880001B
:1059C000491C0120A4F87E10A4F88000491C132073
:1059D000A4F87E10A4F88000481C0121A4F87E00E1
:1059E000A4F88010411C5420A4F87E10A4F8800074
:1059F000481C0121A4F87E00A4F88010411C8220DC
:105A0000A4F87E10A4F88000491C0120A4F87E10A0
:105A1000A4F88000481CCA21A4F87E00A4F88010D5
:105A2000411C0220A4F87E10A4F88000491C00202C
:105A3000A4F87E10A4F88000481C0221A4F87E007F
:105A4000A4F88010411C0120A4F87E10A4F8800066
:105A5000481C0221A4F87E00A4F88010401C3421C8
:105A6000A4F87E00A4F88010401C0221A4F87E0057
:105A7000A4F88010411C6720A4F87E10A4F88000D0
:105A8000491C0220A4F87E10A4F88000491C842040
:105A9000A4F87E10A4F88000491C0220A4F87E100F
:105AA000A4F88000491CA420A4F87E10A4F880006B
:105AB000481C0221A4F87E00A4F88010411CB720E5
:105AC000A4F87E10A4F88000481C0221A4F87E00EF
:105AD000A4F88010411CCF20A4F87E10A4F8800008
