:020000040800F2
:10000000180400209D010008AD020008A9020008A4
:10001000AB020008E50100088905000800000000A7
:10002000000000000000000000000000890300083C
:10003000E701000800000000AF020008A10300086B
:10004000B7010008B7010008B7010008B7010008B0
:10005000B7010008B7010008B7010008B7010008A0
:10006000B7010008B7010008B7010008B701000890
:10007000B7010008B7010008B7010008B701000880
:10008000B7010008B7010008B7010008B701000870
:10009000B7010008B7010008B7010008B701000860
:1000A000B7010008B7010008B7010008B701000850
:1000B000B7010008B7010008B7010008B701000840
:1000C000B7010008B7010008B7010008B701000830
:1000D000B7010008B7010008B7010008B701000820
:1000E000B7010008B7010008B7010008B701000810
:1000F000B7010008B7010008B7010008B701000800
:10010000B7010008B7010008B7010008B7010008EF
:10011000B7010008B7010008B7010008B7010008DF
:10012000B7010008B7010008B7010008B7010008CF
:10013000B7010008B7010008B7010008B7010008BF
:10014000B7010008B7010008B7010008B7010008AF
:10015000B7010008B7010008B7010008B70100089F
:10016000B7010008B7010008B7010008B70100088F
:10017000B7010008B7010008B7010008B70100087F
:10018000B7010008B7010008DFF80CD000F018F83C
:100190000048004769060008180400200648804708
:1001A00006480047FEE7FEE7FEE7FEE7FEE7FEE75C
:1001B000FEE7FEE7FEE7FEE7A50300088901000869
:1001C000064C074D06E0E06840F0010394E80700A4
:1001D00098471034AC42F6D3FFF7DAFF68070008FF
:1001E00088070008FEE770472DE9F001002201258D
:1001F0005FF00306D1F800C005FA02F30CEA030C25
:100200009C4537D107684FEA420C06FA0CF4A74325
:1002100007600F79D0F8008007FA0CF747EA080763
:1002200007600F79012F18BF022F17D1876827EABF
:10023000040787604F79D0F8088007FA0CF747EA7F
:1002400008078760476827EA0303436043688F799C
:1002500007FA02F7BFB243EA07034360C36823EA21
:100260000403C360CB7903FA0CF3D0F80CC043EA63
:100270000C03C36002F10102102ABBD3BDE8F001F8
:1002800070474B07DB0E9A40C90800EB8100016AFA
:100290004FF00F0C0CFA03F399430162016A11430A
:1002A0000162704741837047FEE7FEE77047704781
:1002B000044A0029116814BF084321EA00001060B5
:1002C0007047000030380240044A0029116814BF0A
:1002D000084321EA000010607047000040380240E7
:1002E000254A30B41168254B11F00C0106D05C1082
:1002F000042908BF046002D008291ED003601168D9
:100300000F2303EA11111E4B595CD0F800C02CFAE0
:1003100001F14160D2F800C0072404EA9C2C13F8D4
:100320000CC021FA0CFCC0F808C0126804EA523272
:100330009A5CD140C16030BC70471249D1F800C00E
:10034000CCF38055D1F800C0002D0CF03F0C14BF49
:10035000B4FBFCF3B3FBFCF3D1F800C00968CCF3A9
:10036000881C03FB0CF3C1F30141491C4900B3FB9A
:10037000F1F10160C3E70000083802400024F400F6
:10038000040000200438024070474FF0E0210428A8
:1003900008690CBF40F0040020F0040008617047B9
:1003A00070470000374882B0016841F47001016075
:1003B0003548016841F001010160344900230B60B8
:1003C000026822F4102222F08072026000F1040C14
:1003D0002F4ACCF80020026822F4802202600A1D15
:1003E000136001930093026842F480320260026855
:1003F00002F400320092019A521C0192009A1AB93A
:10040000019AB2F5A04FF2D1026812F4003F08BF82
:10041000009331D0012200921E4A136843F08053AA
:1004200013601D4A136843F4404313600A680A606E
:100430000A6842F400420A600A6842F4A0520A6064
:10044000164ACCF80020026842F08072026002680E
:1004500012F0007FFBD0124A40F20570106008686D
:1004600020F003000860086840F002000860086897
:1004700000F00C000828FAD10A494FF0006008602B
:1004800002B0704788ED00E00038024008380240B2
:1004900010300024403802400070004008544007EB
:1004A000003C024008ED00E00029818914BF41F4BE
:1004B000005121F4005181817047024600201288CA
:1004C0000A4218BF0120704730B50446008A85B043
:1004D0000D46C98820F4405008432082A089A9888D
:1004E0002A8920F4037011436A8920F4A050104334
:1004F0000843A081A08AA98920F440700843A08203
:100500006846FFF7EDFEA4F18040B0F588301BBFD0
:10051000A4F18040B0F58A3003980298A18911F4C3
:10052000004F00EBC00101EB0010296814BF490027
:100530008900B0FBF1F0114A6FF0180CA2FB0031FA
:10054000490909010B0903FB0CF300EB8300A389A4
:1005500013F4004F4FF0320314BF03EBC00003EB62
:100560000010A2FB00204FEA501014BF00F007005B
:1005700000F00F000843208105B030BD1F85EB510E
:10058000C1F3080181807047FEE702E008C8121F2E
:1005900008C1002AFAD170477047002001E001C16C
:1005A000121F002AFBD1704710B504466FF00400FB
:1005B000FFF7EBFE0648E10801EB41020170C2EBD8
:1005C000C1114FF6FF7202EAC101418010BD000067
:1005D000000000204FF40771B0FBF1F212F0FF0CA5
:1005E000B0FBF1F270B401FB12041E4E4FF0000399
:1005F0004FF0E0201BD071884FF4077201FB02F529
:1006000045618361016941F001010161016911F0F6
:10061000010F02D011F4803FF8D0016921F00101EF
:1006200001618361ACF1010111F0FF0CE8D1002CF4
:1006300004BF70BC70477188614341618361016987
:1006400041F001010161016911F0010F02D011F4C3
:10065000803FF8D0016921F001010161836170BC24
:10066000704700000000002088B0A820FFF79CFF22
:1006700001210220FFF71CFE01278DF804700225DE
:1006800030208DF805500024324E00908DF8064041
:100690008DF8074069463046FFF7A6FD1021304629
:1006A000FFF700FE20213046FFF7FCFD01214FF44B
:1006B00016560846FFF7FCFD01214804FFF704FE2B
:1006C0008DF80C508DF80D50234D4FF00C088DF81F
:1006D0000E40CDF808808DF80F7002A92846FFF76C
:1006E00083FD072202212846FFF7CBFD07220321C5
:1006F0002846FFF7C6FDADF81440ADF81640ADF83A
:100700001840ADF81C40154C0496ADF81A8004A9A9
:100710002046FFF7D9FE01212046FFF7C5FE10A5B0
:1007200080212046FFF7C9FE0028F9D015F8011BEB
:100730002046FFF725FF28780028F1D140212046E8
:10074000FFF7BBFE0028F9D04FF47A70FFF742FFA5
:10075000E5E70000000402400000024000440040C1
:1007600068656C6C6F0D0A008807000800000020A7
:10077000140000008A0500089C07000814000020EF
:10078000040400009A0500080000000000000000BA
:0C0790000102030401020304060708092B
:040000050800018965
:00000001FF
