:020000040800F2
:10000000100500209D010008EB8600087D0800080F
:10001000E986000811040008318D00080000000086
:1000200000000000000000000000000095880008AB
:1000300031060008000000007187000833890008BD
:10004000B7010008B7010008B7010008B7010008B0
:10005000B7010008B7010008B7010008B7010008A0
:10006000B7010008B7010008B7010008B701000890
:10007000B7010008B7010008B7010008B701000880
:10008000B7010008B7010008B7010008B701000870
:10009000B7010008B7010008B7010008B701000860
:1000A000B7010008B7010008B7010008B701000850
:1000B000B7010008B7010008B7010008B701000840
:1000C000B7010008B7010008B7010008B701000830
:1000D000B7010008398A0008DD8A0008358B00085E
:1000E000B7010008B7010008B7010008B701000810
:1000F000B7010008B7010008B7010008B701000800
:10010000B7010008B7010008B7010008B7010008EF
:10011000B7010008B7010008B7010008B7010008DF
:10012000B7010008B7010008B7010008B7010008CF
:10013000B7010008B7010008B7010008B7010008BF
:10014000B7010008B7010008B7010008B7010008AF
:10015000B7010008B7010008B7010008B70100089F
:10016000B7010008B7010008B7010008B70100088F
:10017000B7010008B7010008B7010008B70100087F
:10018000B7010008B7010008DFF80CD000F042F812
:1001900000480047498E00081005002006488047A7
:1001A00006480047FEE7FEE7FEE7FEE7FEE7FEE75C
:1001B000FEE7FEE7FEE7FEE7358900088901000853
:1001C000C1F30A5210B5C1F3130140F2FF3341F4F9
:1001D00080119A4201DA002010BD40F233439A4266
:1001E000A2F2334203DC524200F003F810BD90400B
:1001F00010BD202A04DB203A21FA02F000217047CA
:1002000021FA02F3D040C2F120029140084319467E
:1002100070470000064C074D06E0E06840F001031F
:1002200094E8070098471034AC42F6D3FFF7B0FFCC
:1002300074A8000894A800080029816814BF41F040
:10024000010121F001018160704700000849D1F8E7
:100250000423084B1A40D0E9003C43EA0C03D0E9E0
:1002600002C04CEA000018431043C1F80403704771
:1002700000200140E030FCFFC06C80B270470246B5
:10028000002012680A4218BF0120704710B442686B
:1002900091F804C022F4807222F040720B6842EAA6
:1002A0000C221A43426082680C4B4C791A40D1E907
:1002B00003C343EA0C03D1F808C04CEA440C43EAF8
:1002C0000C031A438260C26A097D22F47002491E3F
:1002D000C9B242EA0151C16210BC7047FDF7FFC0CC
:1002E00030B4072409290DD9C568A1F10A0C0CEB1B
:1002F0004C0C04FA0CF425EA040403FA0CF323432F
:10030000C3600AE0056901EB410C04FA0CF425EA2C
:10031000040403FA0CF3234303611F23072A0CD2BE
:10032000D0F834C0521E02EB820293402CEA030341
:1003300091401943416330BC70470D2A0CD2D0F86C
:1003400030C0D21F02EB820293402CEA030391409B
:100350001943016330BC7047D0F82CC00D3A02EB52
:10036000820293402CEA030391401943C16230BCDE
:100370007047816841F080418160704710B501216C
:100380008CB0084608F0F6F90121042008F0F2F9D3
:100390000121080208F012FA0121480208F00EFAC1
:1003A00060200A9003208DF82C0000248DF82F4047
:1003B0000AA9154800F0B2F90121080208F00AFA6A
:1003C00000214FF4807008F005FA06944FF4803055
:1003D0000994CDE9070406A8FFF738FF8DF804401B
:1003E00000948DF80540029404940120074C8DF888
:1003F000140069462046FFF749FF01212046FFF718
:100400001BFF0CB010BD00000000024000200140A6
:10041000FEE7000006498A78012A18BF70470022CB
:100420008A7004498A78497802EB0121018070477B
:1004300010000020130000202DE9F04182B00121BE
:10044000402008F097F901278DF804700026780203
:100450008DF8066000908DF807700220DFF89C8010
:100460008DF805006946404600F058F9D8F80000BC
:1004700020F44020C8F80000D8F8000040F48020A4
:10048000C8F800001E4CC4F8A462142008F076FCE2
:10049000C4F8A4721E2008F0BBFCD8F800000025A8
:1004A00020F44020C8F80000D8F80000C8F8000088
:1004B00004E0681CC5B2012008F0AAFCD4F82402AC
:1004C00010B1642D04D2F4E7642D38BF002508D3A1
:1004D00002B03846BDE8F081681CC5B2012008F0C2
:1004E00097FCD4F8240230B1642D38BF3046EFD2E7
:1004F00002B0BDE8F081642DEED3E9E700180240B8
:10050000000043422DE9F34F474D83B0286820F4A3
:1005100040202860286840F480202860434E4FF037
:100520000009C6F8A492142008F028FC4FF0010A34
:10053000C6F8A4A21E2008F06BFC2868002420F452
:10054000402028602868286004E0601CC4B20120B4
:1005500008F05EFCD6F8240210B1642C1BD2F4E73C
:10056000642C38BF002416D204E0601CC4B2012001
:1005700008F04EFCD6F8240258B1642C3CBF4FF072
:100580000008EB4607D2002005464006070E00246F
:100590000AE0642CE9D305B00120BDE8F08F601CAF
:1005A000C4B2012008F034FCD6F82402002818BF99
:1005B000642CF4D3002404E0601CC4B2012008F0D1
:1005C00027FCD6F8240208B9642CF5D3282008F0BB
:1005D0001FFCD6F82402002814BF50464846384372
:1005E000691CCDB2082DD0D30BF8080008F101002A
:1005F00000F0FF08B8F1050FC5D39DF800109DF875
:1006000001009DF803300A189DF8020003441A44C3
:100610009DF804309A4203D1049A1170039908702E
:1006200005B00020BDE8F08F0018024000004342F2
:10063000704700008000A0F1C0400029016812BF8F
:1006400041F00101014A114001607047FEFF0F00B7
:10065000D0E901121143D0E903231A43114342693F
:10066000114382691143C2691143026A1143426A0C
:100670001143826A1143C26A1143026B0A43016843
:100680008900A1F1C0410A608168082907D1016889
:100690008900A1F1C0410A6842F040020A60416B42
:1006A000D1E9002342EA03128B68B1F80CC01B02A7
:1006B00043EA0C431A430B8A42EA03520B7D8969D1
:1006C00042EA0362114302689200A2F1C042516003
:1006D000C16AB1F5804F08D000686FF070418000AA
:1006E000A0F1C040C0F804117047816BD1E900232C
:1006F00042EA03128B68B1F810C01B0243EA0C53A4
:100700001A430B7D896942EA036200681143800045
:10071000A0F1C040C0F80411704700002DE9F001BD
:10072000002201255FF00306D1F800C005FA02F3AC
:100730000CEA030C9C4537D107684FEA420C06FAD5
:100740000CF4A74307600F79D0F8008007FA0CF784
:1007500047EA080707600F79012F18BF022F17D14A
:10076000876827EA040787604F79D0F8088007FA7E
:100770000CF747EA08078760476827EA03034360E6
:1007800043688F7907FA02F7BFB243EA0703436071
:10079000C36823EA0403C360CB7903FA0CF3D0F8EF
:1007A0000CC043EA0C03C36002F10102102ABBD360
:1007B000BDE8F00170474B07DB0E9A40C90800EB1B
:1007C0008100016A4FF00F0C0CFA03F399430162A8
:1007D000016A1143016270470246002012690A4211
:1007E00018BF0120704741837047000010B50A4CC4
:1007F0000146072301222046FFF772FD2046FFF73E
:10080000B8FD02212046FFF73AFD0028F9D0204626
:10081000BDE81040FFF730BD002001402DE9F04158
:100820004FF000050E0007462C4618BFDFF8488041
:100830001DD03946072301224046FFF751FD4046AF
:10084000FFF797FD02214046FFF719FD0028F9D078
:100850004046FFF711FD010AC0B240EA01200544FD
:10086000052008F08BFA601CC4B2B442E1D3B5FB9A
:10087000F6F080B2BDE8F08100200140FEE7000004
:100880002DE9F0438046012187B0084607F072FF4A
:100890000121102007F092FF02268DF80460032743
:1008A0004FF400708DF805700024DFF8A4900090DC
:1008B0008DF8064001258DF8075069464846FFF738
:1008C0002DFF8DF80460A8028DF8057000908DF85A
:1008D00006408DF8074069464846FFF71FFF07228C
:1008E00009214846FFF767FF07220A214846FFF71C
:1008F00062FFADF80C40ADF80E40ADF81040ADF819
:1009000014400C20134CADF81200CDF8088002A959
:10091000204608F0A9F94FF4A06007F01FFF25203A
:100920008DF818008DF819508DF81A508DF81B505D
:1009300006A807F0DBFE012240F22551204608F010
:100940007AF90121204608F040F907B0BDE8F083AC
:1009500000000240001001402DE9F04F374A2C25DD
:10096000114690712B2689884FF430584FF428593E
:1009700041F6631A2A274FF0F00E45F2105B4FF450
:1009800048744FF4A07C4FF4F073E8B1A2F800C0B3
:10099000A2F802E0594544D1A2F80880A2F80A90D2
:1009A0003002908114805380A1F5A640103819BF01
:1009B000A1F5EC40B0F5CB701380A2F802C0002086
:1009C000BDE8F04F07F0C8B9A2F800E0A2F802C0F5
:1009D00059451BD1A2F80880A2F80A904FF42C5078
:1009E00090811380A2F80240A1F5A640103819BFEB
:1009F000A1F5EC40B0F5CB70A2F800C05380A1F592
:100A00001840063804BF13805480D8E7514515813B
:100A100001BF56819781138054801CBF57819681F6
:100A2000E2E751451CBFA1F51840B0F10600158161
:100A30005781968104BF14805380B5E7740000206D
:100A40002DE9F8078E4E01F0FF0C3546B6F80490FC
:100A50000C0AA989070A6D89A9F5A04A4FF0D84365
:100A600000F0FF08BAF5A26A48D0A9F5C85ABAF151
:100A7000630A7DD0ADF80050BDF80000ADF800006D
:100A8000BDF80000A3F87E00ADF80070BDF80000CE
:100A9000ADF80000BDF80000A3F88000ADF80080BC
:100AA000BDF80000ADF80000BDF80000A3F880001C
:100AB000ADF80010BDF80000ADF80000BDF8000072
:100AC000A3F87E00ADF80040BDF80000ADF80000CE
:100AD000BDF80000A3F88000ADF800C0BDF800002C
:100AE000ADF80000BDF80000A3F880003089A3F83D
:100AF0007E00A3F88020BDE8F8077047ADF80050ED
:100B0000BDF80000ADF80000BDF80000A3F87E00BD
:100B1000ADF80070BDF80000ADF80000BDF80000B1
:100B2000A3F88000681CADF80000BDF80000ADF827
:100B30000000BDF80000A3F87E00ADF80080BDF80D
:100B40000000ADF80000BDF80000A3F88000ADF88B
:100B50000010BDF80000ADF80000BDF80000A3F8DB
:100B60007E00ADF80040BDF80000ADF8000000E0E8
:100B700019E0BDF80000A3F88000481CADF80000A3
:100B8000BDF80000ADF80000BDF80000A3F87E003D
:100B9000ADF800C0BDF80000ADF80000BDF80000E1
:100BA000A3F88000A2E7B7791FB93788381A401E2A
:100BB00080B2ADF80050BDF80050ADF80050BDF85F
:100BC0000050A3F87E50050AADF80050BDF8007043
:100BD000ADF80070BDF80070A3F88070C0B2ADF839
:100BE0000000BDF80070ADF80070BDF80070A3F80B
:100BF0008070ADF80050BDF80050ADF80050BDF861
:100C00000050A3F88050ADF80000BDF80000ADF82A
:100C10000000BDF80000A3F88000ADF80010BDF89A
:100C20000000ADF80000BDF80000A3F87E00ADF8AC
:100C30000040BDF80000ADF80000BDF80000A3F8CA
:100C40008000ADF800C0BDF80000ADF80000BDF8B0
:100C50000000A3F88000ADF80040BDF80000ADF83A
:100C60000000BDF80000A3F88000ADF800C0BDF89A
:100C70000000ADF80000BDF80000A3F8800035E7E3
:100C800074000020000000002DE9F04FA1B0002406
:100C900001217A201F9407F06DFD0121084607F01D
:100CA00075FD01258DF804504FF400408DF8064085
:100CB000022700908DF805708DF807506946FE48B0
:100CC000FFF72CFD8DF804704CF233708DF8064060
:100CD0004FF00308F94E00908DF805808DF807500D
:100CE00069463046FFF71AFD4FF6807000908DF888
:100CF00004708DF8064003208DF80500DFF8C093DE
:100D00008DF8075069464846FFF708FD2803009014
:100D10008DF804708DF8064003208DF805008DF8DD
:100D200007506946E748FFF7F9FC280300908DF863
:100D300004708DF8064003208DF805008DF80750EB
:100D40006946E148FFF7EAFC0C2200213046FFF734
:100D500032FD0C2201213046FFF72DFD0C2204212B
:100D60003046FFF728FD0C2205213046FFF723FD12
:100D70000C2208213046FFF71EFD0C2209213046C7
:100D8000FFF719FD0C220A213046FFF714FD0C2253
:100D90000E213046FFF70FFD0C220F213046FFF7E2
:100DA0000AFD0C2207214846FFF705FD0C22082109
:100DB0004846FFF700FD0C2209214846FFF7FBFCDF
:100DC0000C220A214846FFF7F6FC0C220B2148466C
:100DD000FFF7F1FC0C2211464846FFF7ECFC0C2211
:100DE0000D214846FFF7E7FC0C220E214846FFF78D
:100DF000E2FC0C220F214846FFF7DDFC0C221146D5
:100E0000B048FFF7D8FC0C221146AF48FFF7D3FCDF
:100E10000F20CDE911043C20CDE9130415940920DD
:100E20001694CDE917400820CDE919401B941C9475
:100E30000620CDE902041D941E941020CDE9044043
:100E400006940002CDE90A40089407948000CDE999
:100E50000C40099411A8CDE90E4018A8109002A8E2
:100E6000FFF7F6FB01210620FFF7E4FB322007F035
:100E700085FFD320ADF87C00BDF87C00ADF87C0088
:100E8000BDF87C004FF0D844A4F87E00B4F8800090
:100E9000ADF87C00BDF87C008C49B4F88000ADF85A
:100EA0007C00BDF87C00B4F88000ADF87C00BDF893
:100EB0007C004FF6FF7202EA0020B4F88020ADF803
:100EC0007C20BDF87C204FF0040910438880A0F5F9
:100ED0001341413900F04481ADF87C90BDF87C00AD
:100EE000ADF87C00BDF87C00A4F87E00B4F880006A
:100EF000ADF87C00BDF87C00744EB4F88000ADF80D
:100F00007C00BDF87C00B4F88000ADF87C00BDF832
:100F10007C004FF6FF7AB4F880100AEA0020ADF8A2
:100F20007C10BDF87C100843A0F50541B080523913
:100F300004BF47F28970B08000F03781A0F5EE4120
:100F4000893900F00D81D420ADF87C00BDF87C001B
:100F5000ADF87C00BDF87C00A4F87E00B4F88000F9
:100F6000ADF87C00BDF87C00B4F88000ADF87C00E2
:100F7000BDF87C00B4F88000ADF87C00BDF87C00C2
:100F8000B4F880100AEA0020ADF87C10BDF87C109F
:100F90000843A0F5A641B08010397DD04FF0D30BA7
:100FA000ADF87CB0BDF87C00ADF87C00BDF87C00ED
:100FB000A4F87E00B4F88000ADF87C00BDF87C0099
:100FC000B4F88000ADF87C00BDF87C00B4F8800077
:100FD000ADF87C00BDF87C00B4F880100AEA00206F
:100FE000ADF87C10BDF87C100843A0F5EE41B08050
:100FF000963951D04FF470415520A4F87E10A4F8D2
:101000008000491CAA20A4F87E10A4F88000491C86
:101010005220A4F87E10A4F88000491C0820A4F8EF
:101020007E10A4F88000491C0120A4F87E10A4F8CA
:1010300080004FF44540ADF87C00BDF87C00ADF871
:101040007C00BDF87C00A4F87E00B4F88000ADF808
:101050007C00BDF87C004CF201510AEA0020ADF89A
:101060007C10BDF87C10ADF87C10BDF87C10A4F8A5
:101070007E10B4F88010ADF87C10BDF87C100843E9
:10108000B080052007F07AFEB088B0F5004F08BFA9
:1010900045F210507CD000E062E0A0F5AA41103982
:1010A0005ED0ADF87CB0BDF87C00ADF87C00BDF83A
:1010B0007C00A4F87E000BE000040240000C02401B
:1010C000001002400014024000180240740000208A
:1010D000B4F88000ADF87C00BDF87C00B4F8800066
:1010E000ADF87C00BDF87C00B4F88000ADF87C0061
:1010F000BDF87C00B4F880100AEA0020ADF87C103E
:10110000BDF87C100843A0F51841B080063927D0FF
:10111000A120ADF87C00BDF87C00ADF87C00BDF8E6
:101120007C00A4F87E00B4F88000ADF87C00BDF827
:101130007C00B4F88000ADF87C00BDF87C00B4F809
:1011400080100AEA0020ADF87C10BDF87C1008433E
:10115000A0F5AE41B080613908BF41F6631023D0DD
:10116000FE488088A0F5134141391CBFA0F5EE412F
:10117000B1F1890119D0A0F5A64110391CBFA0F525
:10118000A041B1F5A26110D0A0F5C851633900E0CB
:101190000AE01FBFA0F5EC41B1F5CB71A0F51841F5
:1011A000B1F1060101D01AE0B0804FF02040D0F834
:1011B0001C1121F00F01C0F81C11D0F81C1121F4F2
:1011C0007061C0F81C11D0F81C1141F00401C0F886
:1011D0001C11D0F81C1141F48061C0F81C11DF48CB
:1011E000E0264FF03A0B80884FF0290AA0F5134112
:1011F00041391FD0A0F5EE41893900F0F283A0F506
:10120000A641103900F0D286A0F5AA41103904F0A9
:10121000EB80A0F5EE41963905F00382A0F5184168
:10122000063905F01785A0F5C851633906F0C2826A
:1012300006F05BBDCF20ADF87C00BDF87C00ADF8BA
:101240007C00BDF87C00A4F87E000020ADF87C0096
:10125000BDF87C10ADF87C10BDF87C10A4F88010AF
:10126000C123ADF87C30BDF87C10ADF87C10BDF822
:101270007C10A4F880103021ADF87C10BDF87C20E3
:10128000ADF87C20BDF87C20A4F88020ED22ADF8DC
:101290007C20BDF87C20ADF87C20BDF87C20A4F833
:1012A0007E206422ADF87C20BDF87C20ADF87C2047
:1012B000BDF87C20A4F88020ADF87C80BDF87C20AF
:1012C000ADF87C20BDF87C20A4F880201222ADF877
:1012D0007C20BDF87C20ADF87C20BDF87C20A4F8F3
:1012E00080208122ADF87C20BDF87C20ADF87C20E8
:1012F000BDF87C20A4F88020E822ADF87C20BDF861
:101300007C20ADF87C20BDF87C20A4F87E208522CE
:10131000ADF87C20BDF87C20ADF87C20BDF87C20A9
:10132000A4F880201022ADF87C20BDF87CC0ADF878
:101330007CC0BDF87CC0A4F880C04FF07A0CADF83A
:101340007CC0BDF87CC0ADF87CC0BDF87CC0A4F802
:1013500080C04FF0CB0CADF87CC0BDF87CC0ADF8C0
:101360007CC0BDF87CC0A4F87EC04FF0390CADF84D
:101370007CC0BDF87CC0ADF87CC0BDF87CC0A4F8D2
:1013800080C04FF02C0CADF87CC0BDF87CC0ADF82F
:101390007CC0BDF87CC0A4F880C0ADF87C00BDF86E
:1013A0007CC0ADF87CC0BDF87CC0A4F880C04FF014
:1013B000340CADF87CC0BDF87CC0ADF87CC0BDF885
:1013C0007CC0A4F880C0ADF87C70BDF87CC0ADF8DE
:1013D0007CC0BDF87CC0A4F880C04FF0F70CADF81D
:1013E0007CC0BDF87CC0ADF87CC0BDF87CC0A4F862
:1013F0007EC04FF0200CADF87CC0BDF87CC0ADF8CD
:101400007CC0BDF87CC0A4F880C04FF0EA0CADF8F9
:101410007CC0BDF87CC0ADF87CC0BDF87CC0A4F831
:101420007EC0ADF87C00BDF87CC0ADF87CC0BDF8D6
:101430007CC0A4F880C0ADF87C00BDF87CC0ADF8DD
:101440007CC0BDF87CC0A4F880C04FF0C00CADF8E3
:101450007CC0BDF87CC0ADF87CC0BDF87CC0A4F8F1
:101460007EC04FF01B0CADF87CC0BDF87CC0ADF861
:101470007CC0BDF87CC0A4F880C0ADF87C30BDF85D
:101480007C30ADF87C30BDF87C30A4F87E30ADF80F
:101490007C50BDF87C30ADF87C30BDF87C30A4F8D1
:1014A0008030C523ADF87C30BDF87C30ADF87C30A1
:1014B000BDF87C30A4F87E30ADF87C10BDF87C30EF
:1014C000ADF87C30BDF87C30A4F88030ADF87C10ED
:1014D000BDF87C10ADF87C10BDF87C10A4F880102D
:1014E000C721ADF87C10BDF87C10ADF87C10BDF8BC
:1014F0007C10A4F87E10B721ADF87C10BDF87C10EC
:10150000ADF87C10BDF87C10A4F880103621ADF841
:101510007C10BDF87C10ADF87C10BDF87C10A4F8F0
:101520007E104821ADF87C10BDF87C10ADF87C1021
:10153000BDF87C10A4F88010ADF87CB0BDF87C102C
:10154000ADF87C10BDF87C10A4F87E105521ADF8E4
:101550007C10BDF87C10ADF87C1001E07400002018
:10156000BDF87C10A4F88010B121ADF87C10BDF856
:101570007C10ADF87C10BDF87C10A4F87E10ADF89E
:101580007C00BDF87C10ADF87C10BDF87C10A4F890
:1015900080101A21ADF87C10BDF87C10ADF87C10DD
:1015A000BDF87C10A4F88010B621ADF87C10BDF811
:1015B0007C10ADF87C10BDF87C10A4F87E100A21D8
:1015C000ADF87C10BDF87C30ADF87C30BDF87C30D7
:1015D000A4F88030A223ADF87C30BDF87C30ADF8A3
:1015E0007C30BDF87C30A4F88030F223ADF87C303C
:1015F000BDF87C30ADF87C30BDF87C30A4F87E308E
:10160000ADF87C00BDF87C30ADF87C30BDF87C30A6
:10161000A4F880302623ADF87C30BDF87C30ADF8DE
:101620007C30BDF87C30A4F87E30ADF87C50BDF83D
:101630007C30ADF87C30BDF87C30A4F88030ADF85B
:101640007C60BDF87C30ADF87C30BDF87C30A4F80F
:101650007E300F23ADF87C30BDF87CC0ADF87CC087
:10166000BDF87CC0A4F880C04FF02A0CADF87CC057
:10167000BDF87C60ADF87C60BDF87C60A4F880604B
:101680002826ADF87C60BDF87C60ADF87C60BDF8C4
:101690007C60A4F880600826ADF87C60BDF87C70A2
:1016A000ADF87C70BDF87C70A4F880700E27ADF8A2
:1016B0007C70BDF87C70ADF87C70BDF87C70A4F8CF
:1016C0008070ADF87C60BDF87C60ADF87C60BDF8E2
:1016D0007C60A4F880605426ADF87C60BDF87C6026
:1016E000ADF87C60BDF87C60A4F88060A926ADF8F8
:1016F0007C60BDF87C60ADF87C60BDF87C60A4F8CF
:1017000080604326ADF87C60BDF87C60ADF87C60FD
:10171000BDF87C60A4F88060ADF87C10BDF87C104A
:10172000ADF87C10BDF87C10A4F88010ADF87C30CA
:10173000BDF87C10ADF87C10BDF87C10A4F88010CA
:10174000ADF87C00BDF87C10ADF87C10BDF87C10C5
:10175000A4F88010ADF87C00BDF87C10ADF87C10CA
:10176000BDF87C10A4F88010ADF87C00BDF87C10AA
:10177000ADF87C10BDF87C10A4F88010ADF87C00AA
:10178000BDF87C10ADF87C10BDF87C10A4F880107A
:10179000E121ADF87C10BDF87C10ADF87C10BDF8EF
:1017A0007C10A4F87E10ADF87C00BDF87C10ADF87C
:1017B0007C10BDF87C10A4F880101521ADF87C10C9
:1017C000BDF87C10ADF87C10BDF87C10A4F880103A
:1017D0001721ADF87C10BDF87C10ADF87C10BDF879
:1017E0007C10A4F880100721ADF87C10BDF87C10A7
:1017F000ADF87C10BDF87C10A4F880101121ADF874
:101800007C10BDF87C60ADF87C60BDF87C60A4F80D
:1018100080600626ADF87C60BDF87C60ADF87C6029
:10182000BDF87C60A4F880602B26ADF87C60BDF824
:101830007C70ADF87C70BDF87C70A4F88070562781
:10184000ADF87C70BDF87C70ADF87C70BDF87C7034
:10185000A4F880703C27ADF87C70BDF87C70ADF8C2
:101860007C70BDF87C70A4F880700527ADF87C70A2
:10187000BDF87C70ADF87C70BDF87C70A4F8807009
:10188000ADF87C20BDF87C20ADF87C20BDF87C2034
:10189000A4F88020ADF87C30BDF87C20ADF87C2029
:1018A000BDF87C20A4F880203F22ADF87C20BDF854
:1018B0007C70ADF87C70BDF87C70A4F88070ADF8D9
:1018C0007C20BDF87C70ADF87C70BDF87C70A4F80D
:1018D0008070ADF87C30BDF87C30ADF87C30BDF860
:1018E0007C30A4F88030ADF87C60BDF87C30ADF879
:1018F0007C30BDF87C30A4F87E30ADF87C00BDF8BB
:101900007C30ADF87C30BDF87C30A4F88030ADF888
:101910007C00BDF87C30ADF87C30BDF87C30A4F89C
:101920008030ADF87C50BDF87C30ADF87C30BDF82F
:101930007C30A4F88030ADF87C20BDF87C20ADF878
:101940007C20BDF87C20A4F88020ADF87CC0BDF8D8
:101950007C20ADF87C20BDF87C20A4F87E20ADF87A
:101960007C00BDF87C20ADF87C20BDF87C20A4F87C
:101970008020ADF87C00BDF87C20ADF87C20BDF85F
:101980007C20A4F88020ADF87C00BDF87C00ADF888
:101990007C00BDF87C00A4F88000EF20ADF87C004E
:1019A000BDF87C00ADF87C00BDF87C00A4F8800098
:1019B000ADF87C10BDF87C00ADF87C00BDF87C0073
:1019C000A4F87E00782007F0D9F9ADF87CA0BDF826
:1019D0007C00ADF87C00BDF87C00A4F87E0006F029
:1019E00084B91120ADF87C00BDF87C00ADF87C0016
:1019F000BDF87C00A4F87E00782007F0BFF93620FF
:101A0000ADF87C00BDF87C00ADF87C00BDF87C0032
:101A1000A4F87E000020ADF87C00BDF87C10ADF885
:101A20007C10BDF87C10A4F88010ADF87CB0BDF837
:101A30007C10ADF87C10BDF87C10A4F87E10052158
:101A4000ADF87C10BDF87C10ADF87C10BDF87C10B2
:101A5000A4F88010B221ADF87C10BDF87C10ADF870
:101A60007C10BDF87C10A4F87E100C21ADF87C1021
:101A7000BDF87C20ADF87C20BDF87C20A4F8802047
:101A8000ADF87C10BDF87C20ADF87C20BDF87C2042
:101A9000A4F88020ADF87C00BDF87C20ADF87C2057
:101AA000BDF87C20A4F880203322ADF87C20BDF85E
:101AB0007C30ADF87C30BDF87C30A4F88030ADF8D7
:101AC0007C20BDF87C20ADF87C20BDF87C20A4F8FB
:101AD0008020B722ADF87C20BDF87C20ADF87C20BA
:101AE000BDF87C20A4F87E203522ADF87C20BDF81E
:101AF0007C20ADF87C20BDF87C20A4F88020BB229F
:101B0000ADF87C20BDF87C20ADF87C20BDF87C20B1
:101B1000A4F87E203223ADF87C30BDF87C20ADF8EF
:101B20007C20BDF87C20A4F88020C022ADF87C2069
:101B3000BDF87C20ADF87C20BDF87C20A4F87E2088
:101B4000ADF87C10BDF87C10ADF87C10BDF87C10B1
:101B5000A4F88010C221ADF87C10BDF87C10ADF85F
:101B60007C10BDF87C10A4F87E10ADF87C50BDF858
:101B70007C10ADF87C10BDF87C10A4F88010C32157
:101B8000ADF87C10BDF87C10ADF87C10BDF87C1071
:101B9000A4F87E101021ADF87C10BDF87C10ADF8D3
:101BA0007C10BDF87C10A4F88010C421ADF87C1026
:101BB000BDF87C10ADF87C10BDF87C10A4F87E1048
:101BC0002021ADF87C10BDF87C10ADF87C10BDF87C
:101BD0007C10A4F88010C621ADF87C10BDF87C10F4
:101BE000ADF87C10BDF87C10A4F87E100F21ADF884
:101BF0007C10BDF87C10ADF87C10BDF87C10A4F80A
:101C00008010D022ADF87C20BDF87C10ADF87C109F
:101C1000BDF87C10A4F87E10A421ADF87C10BDF8AE
:101C20007C10ADF87C10BDF87C10A4F88010A121C8
:101C3000ADF87C10BDF87C10ADF87C10BDF87C10C0
:101C4000A4F88010ADF87C60BDF87C10ADF87C1075
:101C5000BDF87C10A4F87E10ADF87C20BDF87C1097
:101C6000ADF87C10BDF87C10A4F88010ADF87C00B5
:101C7000BDF87C10ADF87C10BDF87C10A4F8801085
:101C8000ADF87C70BDF87C10ADF87C10BDF87C1010
:101C9000A4F880104FF00708ADF87C80BDF87C10E8
:101CA000ADF87C10BDF87C10A4F880104FF00A0C41
:101CB000ADF87CC0BDF87C10ADF87C10BDF87C1090
:101CC000A4F880102826ADF87C60BDF87C10ADF833
:101CD0007C10BDF87C10A4F88010ADF87C30BDF805
:101CE0007C10ADF87C10BDF87C10A4F88010442165
:101CF000ADF87C10BDF87C10ADF87C10BDF87C1000
:101D0000A4F880104221ADF87C10BDF87C10ADF82D
:101D10007C10BDF87C10A4F880100621ADF87C1072
:101D2000BDF87C10ADF87C10BDF87C10A4F88010D4
:101D30000E23ADF87C30BDF87C10ADF87C10BDF8FA
:101D40007C10A4F880101221ADF87C10BDF87C1036
:101D5000ADF87C10BDF87C10A4F880101421ADF80B
:101D60007C10BDF87C10ADF87C10BDF87C10A4F898
:101D700080101721ADF87C10BDF87C90ADF87C90F8
:101D8000BDF87C90A4F880904FF0E109ADF87C900C
:101D9000BDF87C90ADF87C90BDF87C90A4F87E9066
:101DA000ADF87C20BDF87C20ADF87C20BDF87C200F
:101DB000A4F88020ADF87C00BDF87C20ADF87C2034
:101DC000BDF87C20A4F88020ADF87C70BDF87C20A4
:101DD000ADF87C20BDF87C20A4F88020ADF87C8094
:101DE000BDF87C20ADF87C20BDF87C20A4F88020D4
:101DF000ADF87CC0BDF87C20ADF87C20BDF87C201F
:101E0000A4F88020ADF87C60BDF87C20ADF87C2083
:101E1000BDF87C20A4F880203122ADF87C20BDF8EC
:101E20007C20ADF87C20BDF87C20A4F880205422D2
:101E3000ADF87C20BDF87C20ADF87C20BDF87C207E
:101E4000A4F880204722ADF87C20BDF87C20ADF8B6
:101E50007C20BDF87C20A4F88020ADF87C30BDF853
:101E60007C20ADF87C20BDF87C20A4F880201C22CA
:101E7000ADF87C20BDF87C20ADF87C20BDF87C203E
:101E8000A4F88020ADF87C10BDF87C10ADF87C1073
:101E9000BDF87C10A4F880101B21ADF87C10BDF8B3
:101EA0007C10ADF87C10BDF87C10A4F880101E21C9
:101EB000ADF87C10BDF87C10ADF87C10BDF87C103E
:101EC000A4F880102A21ADF87C10BDF87C10ADF884
:101ED0007C10BDF87C10A4F87E10ADF87C00BDF835
:101EE0007C10ADF87C10BDF87C10A4F88010ADF823
:101EF0007C00BDF87C10ADF87C10BDF87C10A4F817
:101F00008010ADF87C00BDF87C10ADF87C10BDF8F9
:101F10007C10A4F88010EF21ADF87C10BDF87C1087
:101F2000ADF87C10BDF87C10A4F880102B21ADF822
:101F30007C10BDF87C10ADF87C10BDF87C10A4F8C6
:101F40007E10ADF87C00BDF87C10ADF87C10BDF8BB
:101F50007C10A4F88010ADF87C00BDF87C00ADF8D2
:101F60007C00BDF87C00A4F88000ADF87C50BDF882
:101F70007C00ADF87C00BDF87C00A4F880003F2018
:101F8000ADF87C00BDF87C00ADF87C00BDF87C00AD
:101F9000A4F88000ADF87CA0BDF87C00ADF87C0012
:101FA000BDF87C00A4F87E0005F09FBEED20ADF8E2
:101FB0007C00BDF87C00ADF87C00BDF87C00A4F886
:101FC0007E00ADF87C50BDF87C00ADF87C00BDF81B
:101FD0007C00A4F88000FE20ADF87C00BDF87C00F9
:101FE000ADF87C00BDF87C00A4F88000EE20ADF8D0
:101FF0007C00BDF87C00ADF87C00BDF87C00A4F846
:102000007E00DE20ADF87C00BDF87C00ADF87C00E1
:10201000BDF87C00A4F880002121ADF87C10BDF84B
:102020007C00ADF87C00BDF87C00A4F88000F120B5
:10203000ADF87C00BDF87C00ADF87C00BDF87C00FC
:10204000A4F87E000120ADF87C00BDF87C00ADF85E
:102050007C00BDF87C00A4F88000DF20ADF87C0097
:10206000BDF87C00ADF87C00BDF87C00A4F87E00D3
:102070001020ADF87C00BDF87C00ADF87C00BDF808
:102080007C00A4F88000C420ADF87C00BDF87C0082
:10209000ADF87C00BDF87C00A4F87E008F20ADF880
:1020A0007C00BDF87C00ADF87C00BDF87C00A4F895
:1020B0008000C620ADF87C00BDF87C00ADF87C0047
:1020C000BDF87C00A4F87E004FF0000CADF87CC099
:1020D000BDF87C00ADF87C00BDF87C00A4F8800061
:1020E000E220ADF87C00BDF87C20ADF87C20BDF886
:1020F0007C20A4F88020ADF87C00BDF87C20ADF8F1
:102100007C20BDF87C20A4F88020ADF87C00BDF8D0
:102110007C00ADF87C00BDF87C00A4F88000BF20F6
:10212000ADF87C00BDF87C00ADF87C00BDF87C000B
:10213000A4F87E00AA20ADF87C00BDF87C00ADF8C4
:102140007C00BDF87C00A4F88000B020ADF87C00D5
:10215000BDF87C00ADF87C00BDF87C00A4F87E00E2
:102160000D20ADF87C00BDF87C20ADF87C20BDF8DA
:102170007C20A4F88020ADF87CC0BDF87C20ADF8B0
:102180007C20BDF87C20A4F88020ADF87C00BDF850
:102190007C00ADF87C00BDF87C00A4F88000ADF8B0
:1021A0007CC0BDF87C00ADF87C00BDF87C00A4F8D4
:1021B00080001120ADF87C00BDF87C00ADF87C00FB
:1021C000BDF87C00A4F88000ADF87CC0BDF87C00B0
:1021D000ADF87C00BDF87C00A4F880001920ADF8B3
:1021E0007C00BDF87C00ADF87C00BDF87C00A4F854
:1021F0008000ADF87CC0BDF87C00ADF87C00BDF877
:102200007C00A4F88000ADF87C10BDF87C00ADF82F
:102210007C00BDF87C00A4F88000ADF87CC0BDF85F
:102220007C00ADF87C00BDF87C00A4F880002D2077
:10223000ADF87C00BDF87C00ADF87C00BDF87C00FA
:10224000A4F88000ADF87CC0BDF87C00ADF87C003F
:10225000BDF87C00A4F880003D20ADF87C00BDF8FE
:102260007C00ADF87C00BDF87C00A4F88000ADF8DF
:102270007CC0BDF87C00ADF87C00BDF87C00A4F803
:1022800080005D20ADF87C00BDF87C10ADF87C10BE
:10229000BDF87C10A4F88010ADF87CC0BDF87C10AF
:1022A000ADF87C10BDF87C10A4F88010ADF87C006F
:1022B000BDF87C00ADF87C00BDF87C00A4F880007F
:1022C000ADF87CC0BDF87C00ADF87C00BDF87C00AA
:1022D000A4F88000B120ADF87C00BDF87C00ADF81A
:1022E0007C00BDF87C00A4F87E008020ADF87C0066
:1022F000BDF87C00ADF87C00BDF87C00A4F880003F
:10230000ADF87CC0BDF87C00ADF87C00BDF87C0069
:10231000A4F880008B22ADF87C20BDF87C00ADF8DD
:102320007C00BDF87C00A4F88000ADF87CC0BDF84E
:102330007C00ADF87C00BDF87C00A4F880004FF074
:10234000960EADF87CE0BDF87C00ADF87C00BDF8E1
:102350007C00A4F88000ADF87CC0BDF87C00ADF82E
:102360007C00BDF87C00A4F88000B220ADF87C00B1
:10237000BDF87C00ADF87C00BDF87C00A4F87E00C0
:10238000ADF87CC0BDF87C00ADF87C00BDF87C00E9
:10239000A4F88000ADF87CC0BDF87C00ADF87C00EE
:1023A000BDF87C102046A4F880100221ADF87C1006
:1023B000BDF87C30ADF87C30BDF87C30A4F88030BE
:1023C000ADF87CC0BDF87C30ADF87C30BDF87C3019
:1023D000A4F88030ADF87C80BDF87C30ADF87C305E
:1023E000BDF87C30A0F88030ADF87CC0BDF87C3002
:1023F000ADF87C30BDF87C30A0F88030B323ADF868
:102400007C30BDF87C30ADF87C30BDF87C30A0F875
:102410007E30ADF87CC0BDF87C30ADF87C30BDF8C6
:102420007C30A0F88030ADF87CC0BDF87C30ADF8D1
:102430007C30BDF87C30A0F88030ADF87CC0BDF8B1
:102440007C30ADF87C30BDF87C30A0F88030ADF841
:102450007CC0BDF87C30ADF87C30BDF87C30A0F895
:102460008030ADF87CC0BDF87C30ADF87C30BDF874
:102470007C30A0F88030ADF87CC0BDF87C30ADF881
:102480007C30BDF87C30A0F88030ADF87CC0BDF861
:102490007C30ADF87C30BDF87C30A0F88030ADF8F1
:1024A0007CC0BDF87C30ADF87C30BDF87C30A0F845
:1024B0008030ADF87CC0BDF87C30ADF87C30BDF824
:1024C0007C30A0F88030ADF87CC0BDF87C30ADF831
:1024D0007C30BDF87C30A0F88030ADF87CC0BDF811
:1024E0007C30ADF87C30BDF87C30A0F88030ADF8A1
:1024F0007CC0BDF87C30ADF87C30BDF87C30A0F8F5
:102500008030ADF87CC0BDF87C30ADF87C30BDF8D3
:102510007C30A0F88030ADF87CC0BDF87C30ADF8E0
:102520007C30BDF87C30A0F88030ADF87CC0BDF8C0
:102530007C30ADF87C30BDF87C30A0F88030ADF850
:102540007CC0BDF87C30ADF87C30BDF87C30A0F8A4
:102550008030ADF87CC0BDF87C30ADF87C30BDF883
:102560007C30A0F88030ADF87CC0BDF87C30ADF890
:102570007C30BDF87C30A0F88030ADF87CC0BDF870
:102580007C30ADF87C30BDF87C30A0F88030ADF800
:102590007CC0BDF87C30ADF87C30BDF87C30A0F854
:1025A0008030ADF87CC0BDF87C30ADF87C30BDF833
:1025B0007C30A0F88030ADF87CC0BDF87C30ADF840
:1025C0007C30BDF87C30A0F88030ADF87CC0BDF820
:1025D0007C30ADF87C30BDF87C30A0F88030ADF8B0
:1025E0007CC0BDF87C30ADF87C30BDF87C30A0F804
:1025F0008030B423ADF87C30BDF87C30ADF87C3051
:10260000BDF87C30A0F87E30ADF87C20BDF87C2091
:10261000ADF87C20BDF87C20A0F88020ADF87CC00F
:10262000BDF87C20ADF87C20BDF87C20A0F880208F
:10263000ADF87CE0BDF87C20ADF87C20BDF87C20B6
:10264000A0F88020ADF87CC0BDF87C20ADF87C20DF
:10265000BDF87C20A0F88020A122ADF87C20BDF838
:102660007C20ADF87C20BDF87C20A0F88020ADF85F
:102670007CC0BDF87C20ADF87C20BDF87C20A0F8A3
:102680008020B522ADF87C20BDF87C20ADF87C2000
:10269000BDF87C20A0F87E20ADF87C10BDF87C1041
:1026A000ADF87C10BDF87C10A0F88010ADF87CC0AF
:1026B000BDF87C10ADF87C10BDF87C10A0F880103F
:1026C000ADF87C80BDF87C10ADF87C10BDF87C10B6
:1026D000A0F88010ADF87CC0BDF87C10ADF87C107F
:1026E000BDF87C10A0F88010ADF87C90BDF87C108F
:1026F000ADF87C10BDF87C10A0F88010ADF87CC05F
:10270000BDF87C10ADF87C10BDF87C10A0F88010EE
:10271000B621ADF87C10BDF87C10ADF87C10BDF88A
:102720007C10A0F87E10ADF87CC0BDF87C10ADF830
:102730007C10BDF87C10A0F88010ADF87CC0BDF80E
:102740007C10ADF87C10BDF87C10A0F88010B7218B
:10275000ADF87C10BDF87C10ADF87C10BDF87C1095
:10276000A0F87E10ADF87CC0BDF87C10ADF87C10F0
:10277000BDF87C10A0F88010ADF87CC0BDF87C10CE
:10278000ADF87C10BDF87C10A0F880103F21ADF8AA
:102790007C10BDF87C10ADF87C10BDF87C10A0F862
:1027A0008010ADF87CC0BDF87C10ADF87C10BDF891
:1027B0007C10A0F880105E21ADF87C10BDF87C1074
:1027C000ADF87C10BDF87C10A0F88010ADF87CC08E
:1027D000BDF87C10ADF87C10BDF87C10A0F880101E
:1027E0006421ADF87C10BDF87C10ADF87C10BDF80C
:1027F0007C10A0F88010ADF87CC0BDF87C10ADF85E
:102800007C10BDF87C10A0F880108C21ADF87C10F5
:10281000BDF87C10ADF87C10BDF87C10A0F88010DD
:10282000ADF87CC0BDF87C10ADF87C10BDF87C1014
:10283000A0F88010AC21ADF87C10BDF87C10ADF88C
:102840007C10BDF87C10A0F88010ADF87CC0BDF8FD
:102850007C10ADF87C10BDF87C10A0F88010DC2155
:10286000ADF87C10BDF87C20ADF87C20BDF87C2054
:10287000A0F88020ADF87CC0BDF87C20ADF87C20AD
:10288000BDF87C20A0F880207022ADF87C20BDF837
:102890007C20ADF87C20BDF87C20A0F88020ADF82D
:1028A0007CC0BDF87C20ADF87C20BDF87C20A0F871
:1028B00080209022ADF87C20BDF87C20ADF87C20F3
:1028C000BDF87C20A0F88020ADF87CC0BDF87C204D
:1028D000ADF87C20BDF87C20A0F88020EB22ADF87C
:1028E0007C20BDF87C20ADF87C20BDF87C20A0F8D1
:1028F0008020ADF87CC0BDF87C20ADF87C20BDF810
:102900007C20A0F88020ADF87C10BDF87C10ADF8DC
:102910007C10BDF87C10A0F88010ADF87CC0BDF82C
:102920007C10ADF87C10BDF87C10A0F88010B821A8
:10293000ADF87C10BDF87C10ADF87C10BDF87C10B3
:10294000A0F87E10ADF87CC0BDF87C10ADF87C100E
:10295000BDF87C10A0F88010ADF87CC0BDF87C10EC
:10296000ADF87C10BDF87C10A0F88010ADF87CC0EC
:10297000BDF87C10ADF87C10BDF87C10A0F880107C
:10298000ADF87CC0BDF87C10ADF87C10BDF87C10B3
:10299000A0F88010ADF87CC0BDF87C10ADF87C10BC
:1029A000BDF87C10A0F88010ADF87CC0BDF87C109C
:1029B000ADF87C10BDF87C10A0F88010ADF87CC09C
:1029C000BDF87C10ADF87C10BDF87C10A0F880102C
:1029D000ADF87CC0BDF87C10ADF87C10BDF87C1063
:1029E000A0F88010BA21ADF87C10BDF87C10ADF8CD
:1029F0007C10BDF87C10A0F87E102421ADF87C106E
:102A0000BDF87C20ADF87C20BDF87C20A0F88020AB
:102A1000ADF87CC0BDF87C20ADF87C20BDF87C20F2
:102A2000A0F88020ADF87CC0BDF87C20ADF87C20FB
:102A3000BDF87C20A0F88020ADF87CC0BDF87C20DB
:102A4000ADF87C20BDF87C20A0F88020C122ADF834
:102A50007C20BDF87C20ADF87C20BDF87C20A0F85F
:102A60007E202022ADF87C20BDF87C20ADF87C20B3
:102A7000BDF87C20A0F88020ADF87CC0BDF87C209B
:102A8000ADF87C20BDF87C20A0F880205422ADF861
:102A90007C20BDF87C20ADF87C20BDF87C20A0F81F
:102AA0008020ADF87CC0BDF87C20ADF87C20BDF85E
:102AB0007C20A0F88020FF22ADF87C20BDF87C208F
:102AC000ADF87C20BDF87C20A0F88020ADF87CC05B
:102AD000BDF87C20ADF87C20BDF87C20A0F88020DB
:102AE000C222ADF87C20BDF87C20ADF87C20BDF87A
:102AF0007C20A0F87E200A22ADF87C20BDF87C2046
:102B0000ADF87C20BDF87C20A0F88020ADF87CC01A
:102B1000BDF87C20ADF87C20BDF87C20A0F880209A
:102B2000ADF87C90BDF87C20ADF87C20BDF87C2011
:102B3000A0F88020ADF87CC0BDF87C20ADF87C20EA
:102B4000BDF87C20A0F88020C322ADF87C20BDF821
:102B50007C20ADF87C20BDF87C20A0F87E203C22B3
:102B6000ADF87C20BDF87C20ADF87C20BDF87C2041
:102B7000A0F88020ADF87CC0BDF87C20ADF87C20AA
:102B8000BDF87C20A0F88020ADF87CB0BDF87C209A
:102B9000ADF87C20BDF87C20A0F88020ADF87CC08A
:102BA000BDF87C20ADF87C20BDF87C20A0F880200A
:102BB0003922ADF87C20BDF87C20ADF87C20BDF832
:102BC0007C20A0F88020ADF87CC0BDF87C20ADF85A
:102BD0007C20BDF87C20A0F880203722ADF87C2036
:102BE000BDF87C20ADF87C20BDF87C20A0F88020CA
:102BF000ADF87CC0BDF87C20ADF87C20BDF87C2011
:102C0000A0F880203C22ADF87C20BDF87C20ADF8F7
:102C10007C20BDF87C20A0F88020ADF87CC0BDF8F9
:102C20007C20ADF87C20BDF87C20A0F880204FF0FF
:102C3000360EADF87CE0BDF87C20ADF87C20BDF808
:102C40007C20A0F88020ADF87CC0BDF87C20ADF8D9
:102C50007C20BDF87C20A0F880203222ADF87C20BA
:102C6000BDF87C30ADF87C30BDF87C30A0F8803009
:102C7000ADF87CC0BDF87C30ADF87C30BDF87C3060
:102C8000A0F880302F23ADF87C30BDF87C70ADF813
:102C90007C70BDF87C70A0F88070ADF87CC0BDF889
:102CA0007C70ADF87C70BDF87C70A0F880702C272B
:102CB000ADF87C70BDF87C70ADF87C70BDF87C70B0
:102CC000A0F88070ADF87CC0BDF87C70ADF87C7069
:102CD000BDF87C70A0F880702927ADF87C70BDF835
:102CE0007C80ADF87C80BDF87C80A0F88080ADF859
:102CF0007CC0BDF87C80ADF87C80BDF87C80A0F8FD
:102D000080804FF0260AADF87CA0BDF87C80ADF83D
:102D10007C80BDF87C80A0F88080ADF87CC0BDF8D8
:102D20007C80ADF87C80BDF87C80A0F88080ADF818
:102D30007C10BDF87C80ADF87C80BDF87C80A0F86C
:102D40008080ADF87CC0BDF87C80ADF87C80BDF89B
:102D50007C80A0F88080ADF87C10BDF87C80ADF858
:102D60007C80BDF87C80A0F88080ADF87CC0BDF888
:102D70007C80ADF87C80BDF87C80A0F880804FF02E
:102D80002308ADF87C80BDF87C90ADF87C90BDF850
:102D90007C90A0F88090ADF87CC0BDF87C90ADF838
:102DA0007C90BDF87C90A0F880904FF03C09ADF885
:102DB0007C90BDF87C90ADF87C90BDF87C90A0F83C
:102DC0008090ADF87CC0BDF87C90ADF87C90BDF8EB
:102DD0007C90A0F88090ADF87CE0BDF87C90ADF8D8
:102DE0007C90BDF87C90A0F88090ADF87CC0BDF8D8
:102DF0007C90ADF87C90BDF87C90A0F88090ADF808
:102E00007C20BDF87C90ADF87C90BDF87C90A0F85B
:102E10008090ADF87CC0BDF87C90ADF87C90BDF89A
:102E20007C90A0F88090ADF87C30BDF87C30ADF897
:102E30007C30BDF87C30A0F88030ADF87CC0BDF8A7
:102E40007C30ADF87C30BDF87C30A0F880302C238D
:102E5000ADF87C30BDF87C30ADF87C30BDF87C300E
:102E6000A0F88030ADF87CC0BDF87C30ADF87C3087
:102E7000BDF87C30A0F88030ADF87C70BDF87C30B7
:102E8000ADF87C30BDF87C30A0F88030ADF87CC067
:102E9000BDF87C30ADF87C30BDF87C30A0F88030D7
:102EA000ADF87CA0BDF87C30ADF87C30BDF87C304E
:102EB000A0F88030ADF87CC0BDF87C30ADF87C3037
:102EC000BDF87C30A0F88030ADF87C10BDF87C30C7
:102ED000ADF87C30BDF87C30A0F88030ADF87CC017
:102EE000BDF87C30ADF87C30BDF87C30A0F8803087
:102EF000ADF87C10BDF87C10ADF87C10BDF87C10EE
:102F0000A0F88010ADF87CC0BDF87C10ADF87C1046
:102F1000BDF87C10A0F880102321ADF87C10BDF81E
:102F20007C10ADF87C10BDF87C10A0F88010ADF8D6
:102F30007CC0BDF87C10ADF87C10BDF87C10A0F80A
:102F40008010C421ADF87C10BDF87C30ADF87C3029
:102F5000BDF87C30A0F87E306223ADF87C30BDF83F
:102F60007C30ADF87C30BDF87C30A0F88030ADF816
:102F70007CC0BDF87C30ADF87C30BDF87C30A0F86A
:102F800080300523ADF87C30BDF87C30ADF87C3066
:102F9000BDF87C30A0F88030ADF87CC0BDF87C3046
:102FA000ADF87C30BDF87C30A0F880308423ADF8DB
:102FB0007C30BDF87C30ADF87C30BDF87C30A0F8BA
:102FC0008030ADF87CC0BDF87C30ADF87C30BDF809
:102FD0007C30A0F88030F023ADF87C30BDF87C3038
:102FE000ADF87C30BDF87C30A0F88030ADF87CC006
:102FF000BDF87C30ADF87C30BDF87C30A0F8803076
:103000001823ADF87C30BDF87C30ADF87C30BDF8CD
:103010007C30A0F88030ADF87CC0BDF87C30ADF8D5
:103020007C30BDF87C30A0F88030A423ADF87C3033
:10303000BDF87C30ADF87C30BDF87C30A0F8803035
:10304000ADF87CC0BDF87C30ADF87C30BDF87C308C
:10305000A0F880301823ADF87C30BDF87C30ADF896
:103060007C30BDF87C30A0F88030ADF87CC0BDF875
:103070007C30ADF87C30BDF87C30A0F88030502337
:10308000ADF87C30BDF87C30ADF87C30BDF87C30DC
:10309000A0F88030ADF87CC0BDF87C30ADF87C3055
:1030A000BDF87C30A0F880300C23ADF87C30BDF842
:1030B0007C30ADF87C30BDF87C30A0F88030ADF8C5
:1030C0007CC0BDF87C30ADF87C30BDF87C30A0F819
:1030D00080301723ADF87C30BDF87C70ADF87C7083
:1030E000BDF87C70A0F88070ADF87CC0BDF87C7035
:1030F000ADF87C70BDF87C70A0F880709527ADF8B5
:103100007C70BDF87C70ADF87C70BDF87C70A0F868
:103110008070ADF87CC0BDF87C70ADF87C70BDF8F7
:103120007C70A0F880704FF0F309ADF87C90BDF88A
:103130007C70ADF87C70BDF87C70A0F88070ADF844
:103140007CC0BDF87C70ADF87C70BDF87C70A0F8D8
:103150008070E627ADF87C70BDF87C70ADF87C70AF
:10316000BDF87C70A0F88070ADF87CC0BDF87C70B4
:10317000ADF87C70BDF87C70A0F88070C527ADF804
:103180007C70BDF87C70ADF87C70BDF87C70A0F8E8
:103190007E70ADF87C20BDF87C20ADF87C20BDF8B9
:1031A0007C20A0F88020ADF87CC0BDF87C20ADF874
:1031B0007C20BDF87C20A0F880204422ADF87C2043
:1031C000BDF87C20ADF87C20BDF87C20A0F88020E4
:1031D000ADF87CC0BDF87C20ADF87C20BDF87C202B
:1031E000A0F880206522ADF87C20BDF87C20ADF8E9
:1031F0007C20BDF87C20A0F88020ADF87CC0BDF814
:103200007C20ADF87C20BDF87C20A0F880207622C0
:10321000ADF87C20BDF87C20ADF87C20BDF87C208A
:10322000A0F88020ADF87CC0BDF87C20ADF87C20F3
:10323000BDF87C20A0F880208822ADF87C20BDF865
:103240007C20ADF87C20BDF87C20A0F88020ADF873
:103250007CC0BDF87C20ADF87C20BDF87C20A0F8B7
:103260008020C622ADF87C20BDF87C20ADF87C2003
:10327000BDF87C20A0F87E202022ADF87C20BDF88F
:103280007C20ADF87C20BDF87C20A0F88020ADF833
:103290007CC0BDF87C20ADF87C20BDF87C20A0F877
:1032A0008020ADF87C30BDF87C20ADF87C20BDF8E6
:1032B0007C20A0F88020ADF87CC0BDF87C20ADF863
:1032C0007C20BDF87C20A0F88020ADF87C50BDF8B3
:1032D0007C20ADF87C20BDF87C20A0F880206746DB
:1032E000ADF87CC0BDF87C20ADF87C20BDF87C201A
:1032F000A0F88020C722ADF87C20BDF87C20ADF876
:103300007C20BDF87C20A0F87E20ADF87CC0BDF804
:103310007C20ADF87C20BDF87C20A0F88020ADF8A2
:103320007C70BDF87C20ADF87C20BDF87C20A0F836
:103330008020ADF87C70BDF87C20ADF87C20BDF815
:103340007C20A0F88020ADF87C70BDF87C20ADF822
:103350007C20BDF87C20A0F88020C822ADF87C201D
:10336000BDF87C20ADF87C20BDF87C20A0F87E2044
:10337000ADF87C70BDF87C20ADF87C20BDF87C20D9
:10338000A0F88020ADF87C70BDF87C20ADF87C20E2
:10339000BDF87C20A0F88020ADF87C70BDF87C20C2
:1033A000ADF87C20BDF87C20A0F88020ADF87C70C2
:1033B000BDF87C20ADF87C20BDF87C20A0F88020F2
:1033C000C922ADF87C20BDF87C20ADF87C20BDF88A
:1033D0007C20A0F87E20ADF87C70BDF87C20ADF894
:1033E0007C20BDF87C20A0F88020ADF87C70BDF872
:1033F0007C20ADF87C20BDF87C20A0F88020ADF8C2
:103400007C70BDF87C20ADF87C20BDF87C20A0F855
:103410008020ADF87C70BDF87C20ADF87C20BDF834
:103420007C20A0F88020ADF87C70BDF87C20ADF841
:103430007C20BDF87C20A0F88020ADF87C70BDF821
:103440007C20ADF87C20BDF87C20A0F88020ADF871
:103450007C70BDF87C20ADF87C20BDF87C20A0F805
:103460008020ADF87C70BDF87C20ADF87C20BDF8E4
:103470007C20A0F88020ADF87C70BDF87C20ADF8F1
:103480007C20BDF87C20A0F88020ADF87C70BDF8D1
:103490007C20ADF87C20BDF87C20A0F88020ADF821
:1034A0007C70BDF87C20ADF87C20BDF87C20A0F8B5
:1034B0008020ADF87C70BDF87C20ADF87C20BDF894
:1034C0007C20A0F88020ADF87C70BDF87C20ADF8A1
:1034D0007C20BDF87C20A0F88020ADF87C70BDF881
:1034E0007C20ADF87C20BDF87C20A0F88020ADF8D1
:1034F0007C70BDF87C20ADF87C20BDF87C20A0F865
:103500008020ADF87C70BDF87C20ADF87C20BDF843
:103510007C20A0F88020ADF87C60BDF87C20ADF860
:103520007C20BDF87C20A0F87E204FF01608ADF876
:103530007C80BDF87C20ADF87C20BDF87C20A0F814
:103540008020ADF87C70BDF87C20ADF87C20BDF803
:103550007C20A0F880201C22ADF87C20BDF87C30B7
:10356000ADF87C30BDF87C30A0F88030ADF87C70D0
:10357000BDF87C30ADF87C30BDF87C30A0F88030F0
:103580002123ADF87C30BDF87C30ADF87C30BDF83F
:103590007C30A0F88030ADF87C70BDF87C30ADF8A0
:1035A0007C30BDF87C30A0F880303623ADF87C301C
:1035B000BDF87C30ADF87C30BDF87C30A0F88030B0
:1035C000ADF87C70BDF87C30ADF87C30BDF87C3057
:1035D000A0F880304623ADF87C30BDF87C30ADF8E3
:1035E0007C30BDF87C30A0F88030ADF87C70BDF840
:1035F0007C30ADF87C30BDF87C30A0F880305223B0
:10360000ADF87C30BDF87C30ADF87C30BDF87C3056
:10361000A0F88030ADF87C70BDF87C30ADF87C301F
:10362000BDF87C30A0F880306423ADF87C30BDF864
:103630007CC0ADF87CC0BDF87CC0A0F880C0ADF8FF
:103640007C70BDF87CC0ADF87CC0BDF87CC0A0F833
:1036500080C04FF07A0CADF87CC0BDF87CC0ADF8EE
:103660007CC0BDF87CC0A0F880C0ADF87C70BDF80F
:103670007CC0ADF87CC0BDF87CC0A0F880C04FF025
:103680008B0AADF87CA0BDF87CC0ADF87CC0BDF85D
:103690007CC0A0F880C0ADF87C70BDF87CC0ADF8EF
:1036A0007CC0BDF87CC0A0F880C04FF0990CADF88C
:1036B0007CC0BDF87CC0ADF87CC0BDF87CC0A0F873
:1036C00080C0ADF87C70BDF87CC0ADF87CC0BDF8A2
:1036D0007CC0A0F880C04FF0A80CADF87CC0BDF84D
:1036E0007CC0ADF87CC0BDF87CC0A0F880C0ADF84F
:1036F0007C70BDF87CC0ADF87CC0BDF87CC0A0F883
:1037000080C04FF0B90CADF87CC0BDF87CC0ADF8FE
:103710007CC0BDF87CC0A0F880C0ADF87C70BDF85E
:103720007CC0ADF87CC0BDF87CC0A0F880C08C46E1
:10373000ADF87CC0BDF87C10ADF87C10BDF87C10F5
:10374000A0F88010ADF87C70BDF87C10ADF87C104E
:10375000BDF87C10A0F88010CA21ADF87C10BDF82F
:103760007C10ADF87C10BDF87C10A0F88010ADF88E
:103770007C70BDF87C10ADF87C10BDF87C10A0F812
:1037800080104FF0D20EADF87CE0BDF87C10ADF8A3
:103790007C10BDF87C10A0F88010ADF87C70BDF8EE
:1037A0007C10ADF87C10BDF87C10A0F88010D921F9
:1037B000ADF87C10BDF87C10ADF87C10BDF87C1025
:1037C000A0F88010ADF87C70BDF87C10ADF87C10CE
:1037D000BDF87C10A0F88010ADF87C60BDF87C10BE
:1037E000ADF87C10BDF87C10A0F88010ADF87C70AE
:1037F000BDF87C10ADF87C10BDF87C10A0F88010EE
:103800004946ADF87C90BDF87C90ADF87C90BDF851
:103810007C90A0F88090ADF87C70BDF87C90ADF8FD
:103820007C90BDF87C90A0F880904FF0E109ADF855
:103830007C90BDF87C90ADF87C90BDF87C90A0F8B1
:103840007E90ADF87C80BDF87C80ADF87C80BDF8C2
:103850007C80A0F88080ADF87C70BDF87C80ADF8ED
:103860007C80BDF87C80A0F88080ADF87C20BDF81D
:103870007C20ADF87C20BDF87C20A0F88020ADF83D
:103880007C70BDF87C20ADF87C20BDF87C20A0F8D1
:1038900080202222ADF87C20BDF87C20ADF87C2071
:1038A000BDF87C20A0F88020ADF87C70BDF87C20AD
:1038B000ADF87C20BDF87C20A0F880203622ADF841
:1038C0007C20BDF87C20ADF87C20BDF87C20A0F8E1
:1038D0008020ADF87C70BDF87C20ADF87C20BDF870
:1038E0007C20A0F880204522ADF87C20BDF87C200B
:1038F000ADF87C20BDF87C20A0F88020ADF87C706D
:10390000BDF87C20ADF87C20BDF87C20A0F880209C
:103910005222ADF87C20BDF87C20ADF87C20BDF8AB
:103920007C20A0F88020ADF87C70BDF87C20ADF83C
:103930007C20BDF87C20A0F88020ADF87C30BDF85C
:103940007C20ADF87C20BDF87C20A0F88020ADF86C
:103950007C70BDF87C20ADF87C20BDF87C20A0F800
:1039600080207A22ADF87C20BDF87C20ADF87C2048
:10397000BDF87C20A0F88020ADF87C70BDF87C20DC
:10398000ADF87C20BDF87C20A0F88020ADF87CA0AC
:10399000BDF87C20ADF87C20BDF87C20A0F880200C
:1039A000ADF87C70BDF87C20ADF87C20BDF87C20A3
:1039B000A0F880209922ADF87C20BDF87C20ADF8DD
:1039C0007C20BDF87C20A0F88020ADF87C70BDF88C
:1039D0007C20ADF87C20BDF87C20A0F88020A822B7
:1039E000ADF87C20BDF87C20ADF87C20BDF87C20B3
:1039F000A0F88020ADF87C70BDF87C20ADF87C206C
:103A0000BDF87C20A0F88020B922ADF87C20BDF85C
:103A10007C20ADF87C20BDF87C20A0F88020ADF89B
:103A20007C70BDF87C20ADF87C20BDF87C20A0F82F
:103A30008020ADF87CC0BDF87C20ADF87C20BDF8BE
:103A40007C20A0F88020ADF87C70BDF87C20ADF81B
:103A50007C20BDF87C20A0F88020CA22ADF87C2014
:103A6000BDF87C20ADF87C20BDF87C20A0F880203B
:103A7000ADF87C70BDF87C20ADF87C20BDF87C20D2
:103A8000A0F88020ADF87CE0BDF87C20ADF87C206B
:103A9000BDF87C20A0F880200022ADF87C20BDF885
:103AA0007C20ADF87C20BDF87C20A0F88020D822B6
:103AB000ADF87C20BDF87C20ADF87C20BDF87C20E2
:103AC000A0F880200022ADF87C20BDF87C20ADF865
:103AD0007C20BDF87C20A0F88020ADF87C60BDF88B
:103AE0007C20ADF87C20BDF87C20A0F8802000224E
:103AF000ADF87C20BDF87C20ADF87C20BDF87C20A2
:103B0000A0F88020ADF87C10BDF87C20ADF87C20BA
:103B1000BDF87C20A0F880200022ADF87C20BDF804
:103B20007C20ADF87C20BDF87C20A0F88020E2222B
:103B3000ADF87C20BDF87C20ADF87C20BDF87C2061
:103B4000A0F87E200523ADF87C30BDF87C20ADF8D0
:103B50007C20BDF87C20A0F880200022ADF87C20DD
:103B6000BDF87C20ADF87C20BDF87C20A0F880203A
:103B70000B22ADF87C20BDF87C20ADF87C20BDF890
:103B80007C20A0F880200022ADF87C20BDF87C20AD
:103B9000ADF87C20BDF87C20A0F880201B22ADF879
:103BA0007C20BDF87C20ADF87C20BDF87C20A0F8FE
:103BB00080200022ADF87C20BDF87C20ADF87C2070
:103BC000BDF87C20A0F880203422ADF87C20BDF820
:103BD0007C20ADF87C20BDF87C20A0F8802000225D
:103BE000ADF87C20BDF87C20ADF87C20BDF87C20B1
:103BF000A0F880204422ADF87C20BDF87C20ADF8F0
:103C00007C20BDF87C20A0F880200022ADF87C202C
:103C1000BDF87C20ADF87C20BDF87C20A0F8802089
:103C20004F22ADF87C20BDF87C20ADF87C20BDF89B
:103C30007C20A0F880200022ADF87C20BDF87C20FC
:103C4000ADF87C20BDF87C20A0F880206122ADF882
:103C50007C20BDF87C20ADF87C20BDF87C20A0F84D
:103C600080200022ADF87C20BDF87C20ADF87C20BF
:103C7000BDF87C20A0F880207922ADF87C20BDF82A
:103C80007C20ADF87C20BDF87C20A0F880200022AC
:103C9000ADF87C20BDF87C20ADF87C20BDF87C2000
:103CA000A0F880208822ADF87C20BDF87CC0ADF85B
:103CB0007CC0BDF87CC0A0F880C04FF0000CADF80F
:103CC0007CC0BDF87CC0ADF87CC0BDF87CC0A0F85D
:103CD00080C04FF0970CADF87CC0BDF87CC0ADF84B
:103CE0007CC0BDF87CC0A0F880C04FF0000CADF8DF
:103CF0007CC0BDF87CC0ADF87CC0BDF87CC0A0F82D
:103D000080C04FF0A60CADF87CC0BDF87CC0ADF80B
:103D10007CC0BDF87CC0A0F880C04FF0000CADF8AE
:103D20007CC0BDF87CC0ADF87CC0BDF87CC0A0F8FC
:103D300080C04FF0B70AADF87CA0BDF87CC0ADF8EC
:103D40007CC0BDF87CC0A0F880C04FF0000CADF87E
:103D50007CC0BDF87CC0ADF87CC0BDF87CC0A0F8CC
:103D600080C04FF0C20CADF87CC0BDF87C60ADF8EF
:103D70007C60BDF87C60A0F880600026ADF87C60B7
:103D8000BDF87C60ADF87C60BDF87C60A0F8806018
:103D9000C726ADF87C60BDF87C80ADF87C80BDF8AE
:103DA0007C80A0F880804FF00008ADF87C80BDF8E2
:103DB0007C80ADF87C80BDF87C80A0F880804FF0DE
:103DC000D108ADF87C80BDF87C90ADF87C90BDF852
:103DD0007C90A0F880904FF00009ADF87C90BDF881
:103DE0007C90ADF87C90BDF87C90A0F880904FF06E
:103DF000D609ADF87C90BDF87C90ADF87C90BDF80C
:103E00007C90A0F880904FF00009ADF87C90BDF850
:103E10007C90ADF87C90BDF87C90A0F880904FF03D
:103E2000DD09ADF87C90BDF87C90ADF87C90BDF8D4
:103E30007C90A0F880904FF00009ADF87C90BDF820
:103E40007C90ADF87C90BDF87C90A0F88090ADF8A7
:103E50007C10BDF87C90ADF87C90BDF87C90A0F80B
:103E600080904FF00009ADF87C90BDF87C90ADF8E3
:103E70007C90BDF87C90A0F880904FF0E309ADF8FD
:103E80007C90BDF87C90ADF87C90BDF87C90A0F85B
:103E90007E90ADF87C30BDF87C30ADF87C30BDF85C
:103EA0007C30A0F88030ADF87C70BDF87C30ADF887
:103EB0007C30BDF87C30A0F880300A23ADF87C302F
:103EC000BDF87C30ADF87C30BDF87C30A0F8803097
:103ED000ADF87C70BDF87C30ADF87C30BDF87C303E
:103EE000A0F880301C23ADF87C30BDF87C30ADF8F4
:103EF0007C30BDF87C30A0F88030ADF87C70BDF827
:103F00007C30ADF87C30BDF87C30A0F880303323B5
:103F1000ADF87C30BDF87C30ADF87C30BDF87C303D
:103F2000A0F88030ADF87C70BDF87C30ADF87C3006
:103F3000BDF87C30A0F880304423ADF87C30BDF86B
:103F40007C30ADF87C30BDF87C30A0F88030ADF826
:103F50007C70BDF87C30ADF87C30BDF87C30A0F8CA
:103F600080305023ADF87C30BDF87C30ADF87C302B
:103F7000BDF87C30A0F88030ADF87C70BDF87C30A6
:103F8000ADF87C30BDF87C30A0F880306223ADF80D
:103F90007C30BDF87C30ADF87C30BDF87C30A0F8CA
:103FA0008030ADF87C70BDF87C30ADF87C30BDF869
:103FB0007C30A0F880307823ADF87C30BDF87C30C0
:103FC000ADF87C30BDF87C30A0F88030ADF87C7066
:103FD000BDF87C30ADF87C30BDF87C30A0F8803086
:103FE000ADF87C20BDF87C30ADF87C30BDF87C307D
:103FF000A0F88030ADF87C70BDF87C30ADF87C3036
:10400000BDF87C30A0F880309723ADF87C30BDF847
:104010007C30ADF87C30BDF87C30A0F88030ADF855
:104020007C70BDF87C30ADF87C30BDF87C30A0F8F9
:104030008030A623ADF87C30BDF87C30ADF87C3004
:10404000BDF87C30A0F88030ADF87C70BDF87C30D5
:10405000ADF87C30BDF87C30A0F88030ADF87CA0A5
:10406000BDF87C30ADF87C30BDF87C30A0F88030F5
:10407000ADF87C70BDF87C30ADF87C30BDF87C309C
:10408000A0F88030ADF87CC0BDF87C30ADF87C3055
:10409000BDF87C30A0F88030ADF87C70BDF87C3085
:1040A000ADF87C30BDF87C30A0F88030ADF87C6095
:1040B000BDF87C30ADF87C30BDF87C30A0F88030A5
:1040C000ADF87C70BDF87C30ADF87C30BDF87C304C
:1040D000A0F88030ADF87C80BDF87C30ADF87C3045
:1040E000BDF87C30A0F88030ADF87C70BDF87C3035
:1040F000ADF87C30BDF87C30A0F88030D523ADF829
:104100007C30BDF87C30ADF87C30BDF87C30A0F858
:104110008030ADF87C70BDF87C30ADF87C30BDF8F7
:104120007C30A0F88030DD23ADF87C30BDF87CC059
:10413000ADF87CC0BDF87CC0A0F880C0ADF87C7044
:10414000BDF87CC0ADF87CC0BDF87CC0A0F880C0D4
:10415000ADF87C10BDF87CC0ADF87CC0BDF87CC06B
:10416000A0F880C0ADF87C70BDF87CC0ADF87CC014
:10417000BDF87CC0A0F880C04FF0E40CADF87CC066
:10418000BDF87CC0ADF87CC0BDF87CC0A0F87EC096
:10419000ADF87C50BDF87CC0ADF87CC0BDF87CC0EB
:1041A000A0F880C0ADF87C70BDF87CC0ADF87CC0D4
:1041B000BDF87CC0A0F880C0ADF87C50BDF87CC0D4
:1041C000ADF87CC0BDF87CC0A0F880C0ADF87C70B4
:1041D000BDF87CC0ADF87CC0BDF87CC0A0F880C044
:1041E0004FF0020CADF87CC0BDF87C60ADF87C608F
:1041F000BDF87C60A0F88060ADF87C70BDF87C6094
:10420000ADF87C60BDF87C60A0F880602A26ADF82F
:104210007C60BDF87C60ADF87C60BDF87C60A0F887
:104220008060ADF87C70BDF87C60ADF87C60BDF856
:104230007C60A0F880604FF03C0EADF87CE0BDF8EB
:104240007C60ADF87C60BDF87C60A0F88060ADF863
:104250007C70BDF87C60ADF87C60BDF87C60A0F837
:1042600080604B26ADF87C60BDF87C60ADF87C606A
:10427000BDF87C60A4F88060ADF87C70BDF87C006F
:10428000ADF87C00BDF87C00A4F880005D20ADF89E
:104290007C00BDF87C00ADF87C00BDF87C00A4F883
:1042A00080000020ADF87C00BDF87C00ADF87C00FB
:1042B000BDF87C00A4F880007420ADF87C00BDF847
:1042C0007C00ADF87C00BDF87C00A4F880000020E4
:1042D000ADF87C00BDF87C00ADF87C00BDF87C003A
:1042E000A4F880008420ADF87C00BDF87C60ADF8B7
:1042F0007C60BDF87C60A4F880600026ADF87C602E
:10430000BDF87C60ADF87C60BDF87C60A4F880608E
:104310009326ADF87C60BDF87C60ADF87C60BDF89C
:104320007C60A4F880600026ADF87C60BDF87C60FD
:10433000ADF87C60BDF87C60A4F880604FF0A20A04
:10434000ADF87CA0BDF87C60ADF87C60BDF87C6009
:10435000A4F880600026ADF87C60BDF87C60ADF804
:104360007C60BDF87C60A4F88060B326ADF87C600A
:10437000BDF87C80ADF87C80BDF87C80A4F880809E
:104380004FF00008ADF87C80BDF87C80ADF87C80F3
:10439000BDF87C80A4F880804FF0BE08ADF87C802A
:1043A000BDF87C80ADF87C80BDF87C80A4F880806E
:1043B0004FF00008ADF87C80BDF87C80ADF87C80C3
:1043C000BDF87C80A4F880804FF0C408ADF87C80F4
:1043D000BDF87C90ADF87C90BDF87C90A4F88090FE
:1043E0004FF00009ADF87C90BDF87C90ADF87C9062
:1043F000BDF87C90A4F880904FF0CD09ADF87C908A
:10440000BDF87C90ADF87C90BDF87C90A4F88090CD
:104410004FF00009ADF87C90BDF87C90ADF87C9031
:10442000BDF87C90A4F880904FF0D309ADF87C9053
:10443000BDF87C90ADF87C90BDF87C90A4F880909D
:104440004FF00009ADF87C90BDF87C90ADF87C9001
:10445000BDF87C90A4F88090ADF87C30BDF87C303D
:10446000ADF87C30BDF87C30A4F880300023ADF886
:104470007C30BDF87C30ADF87C30BDF87C30A4F8E1
:104480008030ADF87C10BDF87C30ADF87C30BDF8E4
:104490007C30A4F880300023ADF87C30BDF87C304F
:1044A000ADF87C30BDF87C30A4F88030E523ADF861
:1044B0007C30BDF87C30ADF87C30BDF87C30A4F8A1
:1044C0007E300023ADF87C30BDF87C30ADF87C3018
:1044D000BDF87C30A4F880300023ADF87C30BDF806
:1044E0007C30ADF87C30BDF87C30A4F880300023FF
:1044F000ADF87C30BDF87C30ADF87C30BDF87C3058
:10450000A4F880300023ADF87C30BDF87C30ADF8E5
:104510007C30BDF87C30A4F88030ADF87CC0BDF8AC
:104520007C30ADF87C30BDF87C30A4F880300023BE
:10453000ADF87C30BDF87C30ADF87C30BDF87C3017
:10454000A4F880302923ADF87C30BDF87C30ADF87C
:104550007C30BDF87C30A4F880300023ADF87C308E
:10456000BDF87C30ADF87C30BDF87C30A4F88030EC
:10457000ADF87CE0BDF87C30ADF87C30BDF87C3027
:10458000A4F880300023ADF87C30BDF87C30ADF865
:104590007C30BDF87C30A4F880304B23ADF87C3003
:1045A000BDF87C30ADF87C30BDF87C30A4F88030AC
:1045B0000023ADF87C30BDF87C30ADF87C30BDF820
:1045C0007C30A4F880305D23ADF87C30BDF87C30C1
:1045D000ADF87C30BDF87C30A4F880300023ADF815
:1045E0007C30BDF87C30ADF87C30BDF87C30A4F870
:1045F00080307423ADF87C30BDF87C30ADF87C3071
:10460000BDF87C30A4F880300023ADF87C30BDF8D4
:104610007C30ADF87C30BDF87C30A4F88030ADF84B
:104620007C00BDF87C00ADF87C00BDF87C00A4F8EF
:1046300080000020ADF87C00BDF87C00ADF87C0067
:10464000BDF87C00A4F880009320ADF87C00BDF894
:104650007C00ADF87C00BDF87C00A4F88000002050
:10466000ADF87C00BDF87C00ADF87C00BDF87C00A6
:10467000A4F88000ADF87CA0BDF87C00ADF87C000B
:10468000BDF87C00A4F88000ADF87C70BDF87C001B
:10469000ADF87C00BDF87C00A4F88000ADF87C602B
:1046A000BDF87C00ADF87C00BDF87C00A4F880006B
:1046B000ADF87C70BDF87C00ADF87C00BDF87C00E6
:1046C000A4F88000BE20ADF87C00BDF87C00ADF8F9
:1046D0007C00BDF87C00A4F88000ADF87C70BDF8CB
:1046E0007C00ADF87C00BDF87C00A4F88000ADF83B
:1046F0007C80BDF87C00ADF87C00BDF87C00A4F89F
:104700008000ADF87C70BDF87C00ADF87C00BDF891
:104710007C00A4F88000CD20ADF87C00BDF87C00C2
:10472000ADF87C00BDF87C00A4F88000ADF87C708A
:10473000BDF87C00ADF87C00BDF87C00A4F88000DA
:10474000D320ADF87C00BDF87C00ADF87C00BDF84E
:104750007C00A4F88000ADF87C70BDF87C00ADF85A
:104760007C00BDF87C00A4F88000DC20ADF87C0063
:10477000BDF87C00ADF87C00BDF87C00A4F880009A
:10478000ADF87C70BDF87C00ADF87C00BDF87C0015
:10479000A4F88000F320ADF87C00BDF87C00ADF8F3
:1047A0007C00BDF87C00A4F88000ADF87C70BDF8FA
:1047B0007C00ADF87C00BDF87C00A4F88000E62009
:1047C000ADF87C00BDF87C00ADF87C00BDF87C0045
:1047D000A4F87E001120ADF87C00BDF87C00ADF897
:1047E0007C00BDF87C00A4F88000ADF87C70BDF8BA
:1047F0007C00ADF87C00BDF87C00A4F8800034207B
:10480000ADF87C00BDF87C00ADF87C00BDF87C0004
:10481000A4F88000ADF87C70BDF87C00ADF87C0099
:10482000BDF87C00A4F880005620ADF87C00BDF8EF
:104830007C00ADF87C00BDF87C00A4F88000ADF8E9
:104840007C70BDF87C00ADF87C00BDF87C00A4F85D
:1048500080004FF07609ADF87C90BDF87C00ADF893
:104860007C00BDF87C00A4F88000ADF87C70BDF839
:104870007C00ADF87C00BDF87C00A4F880004FF00F
:10488000770CADF87CC0BDF87C00ADF87C00BDF8BD
:104890007C00A4F88000ADF87C70BDF87C00ADF819
:1048A0007C00BDF87C00A4F880006621ADF87C1087
:1048B000BDF87C00ADF87C00BDF87C00A4F8800059
:1048C000ADF87C70BDF87C00ADF87C00BDF87C00D4
:1048D000A4F88000ADF87C20BDF87C00ADF87C0029
:1048E000BDF87C00A4F88000ADF87C70BDF87C00B9
:1048F000ADF87C00BDF87C00A4F880009920ADF8EC
:104900007C00BDF87C30ADF87C30BDF87C30A4F87C
:104910008030ADF87C70BDF87C30ADF87C30BDF8EF
:104920007C30A4F880304FF0BB08ADF87C80BDF837
:104930007C30ADF87C30BDF87C30A4F88030ADF828
:104940007C70BDF87C30ADF87C30BDF87C30A4F8CC
:104950008030ADF87C00BDF87C30ADF87C30BDF81F
:104960007C30A4F88030ADF87C70BDF87C30ADF8B8
:104970007C30BDF87C30A4F88030ADF87C10BDF8F8
:104980007C30ADF87C30BDF87C30A4F88030ADF8D8
:104990007C70BDF87C30ADF87C30BDF87C30A4F87C
:1049A00080305526ADF87C60BDF87C30ADF87C30A9
:1049B000BDF87C30A4F88030ADF87C70BDF87C3058
:1049C000ADF87C30BDF87C30A4F88030ADF87C6068
:1049D000BDF87C30ADF87C30BDF87C30A4F8803078
:1049E000ADF87C70BDF87C30ADF87C30BDF87C3023
:1049F000A4F880304FF0450EADF87CE0BDF87C3077
:104A0000ADF87C30BDF87C30A4F88030ADF87C7017
:104A1000BDF87C30ADF87C30BDF87C30A4F8803037
:104A20004323ADF87C30BDF87C30ADF87C30BDF868
:104A30007C30A4F88030ADF87C70BDF87C30ADF8E7
:104A40007C30BDF87C30A4F880304423ADF87C3055
:104A5000BDF87CA0ADF87CA0BDF87CA0A4F880A037
:104A6000ADF87C70BDF87CA0ADF87CA0BDF87CA052
:104A7000A4F880A04FF0E70AADF87CA0BDF87CA0B8
:104A8000ADF87CA0BDF87CA0A4F87EA04FF0320A5F
:104A9000ADF87CA0BDF87CA0ADF87CA0BDF87CA0F2
:104AA000A4F880A0ADF87C70BDF87CA0ADF87CA027
:104AB000BDF87CA0A4F880A0ADF87C60BDF87CA017
:104AC000ADF87CA0BDF87CA0A4F880A0ADF87C7007
:104AD000BDF87CA0ADF87CA0BDF87CA0A4F880A0B7
:104AE000ADF87C90BDF87C90ADF87C90BDF87C90E2
:104AF000A4F88090ADF87C70BDF87C90ADF87C9007
:104B0000BDF87C90A4F88090ADF87C10BDF87C9046
:104B1000ADF87C90BDF87C90A4F88090ADF87C70E6
:104B2000BDF87C90ADF87C90BDF87C90A4F88090A6
:104B30004FF06709ADF87C90BDF87CA0ADF87CA083
:104B4000BDF87CA0A4F880A0ADF87C70BDF87CA076
:104B5000ADF87CA0BDF87CA0A4F880A0ADF87C9056
:104B6000BDF87C90ADF87C90BDF87C90A4F8809066
:104B7000ADF87C70BDF87C90ADF87C90BDF87C9071
:104B8000A4F880904FF0870AADF87CA0BDF87C9027
:104B9000ADF87C90BDF87C90A4F88090ADF87C7066
:104BA000BDF87C90ADF87C90BDF87C90A4F8809026
:104BB000ADF87C00BDF87C90ADF87C90BDF87C90A1
:104BC000A4F88090ADF87C70BDF87C90ADF87C9036
:104BD000BDF87C90A4F88090C146ADF87C80BDF80B
:104BE0007C80ADF87C80BDF87C80A4F88080ADF836
:104BF0007C70BDF87C80ADF87C80BDF87C80A4F82A
:104C00008080ADF87C00BDF87C80ADF87C80BDF87C
:104C10007C80A4F88080ADF87C70BDF87C80ADF815
:104C20007C80BDF87C80A4F88080ADF87CC0BDF8A5
:104C30007C80ADF87C80BDF87C80A4F88080ADF8E5
:104C40007C70BDF87C80ADF87C80BDF87C80A4F8D9
:104C50008080ADF87C30BDF87C80ADF87C80BDF8FC
:104C60007C80A4F88080ADF87C70BDF87C80ADF8C5
:104C70007C80BDF87C80A4F880804FF05608ADF8A9
:104C80007C80BDF87C80ADF87C80BDF87C80A4F889
:104C90008080ADF87C70BDF87C80ADF87C80BDF87C
:104CA0007C80A4F880804FF02308ADF87C80BDF8AC
:104CB0007C80ADF87C80BDF87C80A4F88080ADF865
:104CC0007C70BDF87C80ADF87C80BDF87C80A4F859
:104CD00080804FF03308ADF87C80BDF87C80ADF863
:104CE0007C80BDF87C80A4F88080ADF87C70BDF835
:104CF0007C80ADF87C80BDF87C80A4F88080ADF825
:104D00007CE0BDF87C80ADF87C80BDF87C80A4F8A8
:104D10008080ADF87C70BDF87C80ADF87C80BDF8FB
:104D20007C80A4F880804FF0E808ADF87C80BDF866
:104D30007C80ADF87C80BDF87C80A4F87E80ADF8E6
:104D40007C70BDF87C80ADF87C80BDF87C80A4F8D8
:104D50008080ADF87C70BDF87C80ADF87C80BDF8BB
:104D60007C80A4F88080ADF87C00BDF87C80ADF834
:104D70007C80BDF87C80A4F88080ADF87C70BDF8A4
:104D80007C80ADF87C80BDF87C80A4F88080ADF894
:104D90007CA0BDF87C80ADF87C80BDF87C80A4F858
:104DA0008080ADF87C70BDF87C80ADF87C80BDF86B
:104DB0007C80A4F88080ADF87C20BDF87C80ADF8C4
:104DC0007C80BDF87C80A4F88080ADF87C70BDF854
:104DD0007C80ADF87C80BDF87C80A4F88080ADF844
:104DE0007CC0BDF87CC0ADF87CC0BDF87CC0A4F828
:104DF00080C0ADF87C70BDF87CC0ADF87CC0BDF85B
:104E00007CC0A4F880C0ADF87C10BDF87CC0ADF8C3
:104E10007CC0BDF87CC0A4F880C0ADF87C70BDF843
:104E20007CC0ADF87CC0BDF87CC0A4F880C0ADF8F3
:104E30007C20BDF87C20ADF87C20BDF87C20A4F857
:104E40008020ADF87C70BDF87C20ADF87C20BDF8EA
:104E50007C20A4F88020AA22ADF87C20BDF87CC07C
:104E6000ADF87CC0BDF87CC0A4F880C0ADF87C7003
:104E7000BDF87CC0ADF87CC0BDF87CC0A4F880C093
:104E8000ADF87C90BDF87CC0ADF87CC0BDF87CC0AE
:104E9000A4F880C0ADF87C70BDF87CC0ADF87CC0D3
:104EA000BDF87CC0A4F880C0ADF87C00BDF87C00E3
:104EB000ADF87C00BDF87C00A4F88000ADF87C70F3
:104EC000BDF87C00ADF87C00BDF87C00A4F8800043
:104ED000ADF87C10BDF87C00ADF87C00BDF87C001E
:104EE000A4F88000ADF87C70BDF87C00ADF87C00C3
:104EF000BDF87C00A4F88000ADF87C60BDF87C00B3
:104F0000ADF87C00BDF87C00A4F88000ADF87C70A2
:104F1000BDF87C00ADF87C00BDF87C00A4F88000F2
:104F2000ADF87C60BDF87C00ADF87C00BDF87C007D
:104F3000A4F88000ADF87C70BDF87C00ADF87C0072
:104F4000BDF87C00A4F88000ADF87C30BDF87C0092
:104F5000ADF87C00BDF87C00A4F88000ADF87C7052
:104F6000BDF87C00ADF87C00BDF87C00A4F88000A2
:104F7000ADF87C30BDF87C00ADF87C00BDF87C005D
:104F8000A4F88000ADF87C70BDF87C00ADF87C0022
:104F9000BDF87C00A4F88000ADF87C60BDF87C0012
:104FA000ADF87C00BDF87C00A4F88000ADF87C7002
:104FB000BDF87C00ADF87C00BDF87C00A4F8800052
:104FC000E920ADF87C00BDF87C00ADF87C00BDF8B0
:104FD0007C00A4F87E00ADF87C20BDF87C00ADF824
:104FE0007C00BDF87C00A4F88000ADF87C70BDF8B2
:104FF0007C00ADF87C00BDF87C00A4F88000ADF822
:105000007C70BDF87C00ADF87C00BDF87C00A4F895
:105010008000ADF87C70BDF87C00ADF87C00BDF878
:105020007C00A4F88000ADF87C70BDF87C00ADF881
:105030007C00BDF87C00A4F87E00ADF87C20BDF8B3
:105040007C00ADF87C00BDF87C00A4F88000CF2087
:10505000ADF87C00BDF87C00ADF87C00BDF87C00AC
:10506000A4F87E00ADF87C70BDF87C00ADF87C0043
:10507000BDF87C00A4F88000ADF87C70BDF87C0021
:10508000ADF87C00BDF87C00A4F88000ADF87C7021
:10509000BDF87C00ADF87C00BDF87C00A4F8800071
:1050A000ADF87C70BDF87C00ADF87C00BDF87C00EC
:1050B000A4F88000ADF87C70BDF87C00ADF87C00F1
:1050C000BDF87C00A4F88000ADF87C70BDF87C00D1
:1050D000ADF87C00BDF87C00A4F88000ADF87C70D1
:1050E000BDF87C00ADF87C00BDF87C00A4F8800021
:1050F000ADF87C70BDF87C00ADF87C00BDF87C009C
:10510000A4F88000ADF87C70BDF87C00ADF87C00A0
:10511000BDF87C00A4F88000ADF87C70BDF87C0080
:10512000ADF87C00BDF87C00A4F88000ADF87C7080
:10513000BDF87C00ADF87C00BDF87C00A4F88000D0
:10514000ADF87C70BDF87C00ADF87C00BDF87C004B
:10515000A4F88000ADF87C70BDF87C00ADF87C0050
:10516000BDF87C00A4F88000ADF87C70BDF87C0030
:10517000ADF87C00BDF87C00A4F88000ADF87C7030
:10518000BDF87C00ADF87C00BDF87C00A4F8800080
:10519000ADF87C70BDF87C00ADF87C00BDF87C00FB
:1051A000A4F88000ADF87C70BDF87C00ADF87C0000
:1051B000BDF87C00A4F88000F020ADF87C00BDF8BC
:1051C0007C00ADF87C00BDF87C00A4F87E00ADF852
:1051D0007C70BDF87C00ADF87C00BDF87C00A4F8C4
:1051E00080005020ADF87C00BDF87C00ADF87C005C
:1051F000BDF87C00A4F88000ADF87C70BDF87C00A0
:10520000ADF87C00BDF87C00A4F88000ADF87C709F
:10521000BDF87C00ADF87C00BDF87C00A4F88000EF
:10522000ADF87C70BDF87C00ADF87C00BDF87C006A
:10523000A4F88000F320ADF87C00BDF87C00ADF848
:105240007C00BDF87C00A4F87E00ADF87C70BDF851
:105250007C00ADF87C00BDF87C00A4F88000F9204B
:10526000ADF87C00BDF87C00ADF87C00BDF87C009A
:10527000A4F87E000620ADF87C00BDF87C00ADF8F7
:105280007C00BDF87C00A4F880001020ADF87C0004
:10529000BDF87C00ADF87C00BDF87C00A4F880006F
:1052A0004FF02908ADF87C80BDF87C00ADF87C009B
:1052B000BDF87C00A4F88000ADF87C70BDF87C00DF
:1052C000ADF87C00BDF87C00A4F88000ADF87CB09F
:1052D000BDF87C00ADF87C00BDF87C00A4F87E0031
:1052E000ADF87C60BDF87C00ADF87C00BDF87C00BA
:1052F000A4F880001120ADF87C00BDF87C00ADF86A
:105300007C00BDF87C00A4F87E00642003F036FD2C
:10531000ADF87C80BDF87C00ADF87C00BDF87C0069
:10532000A4F87E003520ADF87C00BDF87C00ADF817
:105330007C00BDF87C00A4F87E00ADF87C70BDF860
:105340007C00ADF87C00BDF87C00A4F88000512002
:10535000ADF87C00BDF87C00ADF87C00BDF87C00A9
:10536000A4F87E00FF20ADF87C00BDF87C00ADF80D
:105370007C00BDF87C00A4F880005320ADF87C00D0
:10538000BDF87C00ADF87C00BDF87C00A4F87E0080
:105390002C20ADF87C00BDF87C10ADF87C10BDF879
:1053A0007C10A4F88010ADF87C60BDF87C10ADF8DE
:1053B0007C10BDF87C10A4F87E108221ADF87C1022
:1053C000BDF87C10ADF87C10BDF87C10A4F88010FE
:1053D000ADF87C00BDF87C00ADF87C00BDF87C0029
:1053E000A4F87E0002F081BC4FF470415520A4F86F
:1053F0007E10A4F88000491CAA20A4F87E10A4F80E
:105400008000491C5220A4F87E10A4F88000481C9B
:105410000821A4F87E00A4F88010411C0120A4F803
:105420007E10A4F880004FF430410D20A4F87E10C7
:10543000A4F88000481C0D21A4F87E00A4F8801078
:10544000411C0D20A4F87E10A4F880004FF43641D2
:105450003420A4F87E10A4F88000491CA4F87E1023
:10546000A4F88000481C3421A4F87E00A4F8801021
:105470004FF431410D20A4F87E10A4F88000481CA0
:105480000D21A4F87E00A4F88010401CA4F87E0032
:10549000A4F880104FF437413420A4F87E10A4F80B
:1054A0008000491CA4F87E10A4F88000481C342118
:1054B000A4F87E00A4F880104FF432400021A4F834
:1054C0007E00A4F88010411C0020A4F87E10A4F8EF
:1054D0008000481C0021A4F87E00A4F880104FF43E
:1054E00038402421A4F87E00A4F88010411C242018
:1054F000A4F87E10A4F88000491CA4F87E10A4F83B
:1055000080004FF43F400121A4F87E00A4F88010F1
:105510004FF433410F20A4F87E10A4F88000491CFA
:10552000A4F87E10A4F88000481C0F21A4F87E0087
:10553000A4F880104FF439413420A4F87E10A4F868
:105540008000481C3421A4F87E00A4F88010401C80
:10555000A4F87E00A4F880104FF435400821A4F888
:105560007E00A4F88010401CA4F87E00A4F88010EF
:10557000411C0820A4F87E10A4F880004FF442419A
:105580000320A4F87E10A4F880004FF43A402421B0
:10559000A4F87E00A4F88010411C2420A4F87E10FA
:1055A000A4F88000481C2421A4F87E00A4F88010F0
:1055B0004FF43C410020A4F87E10A4F88000491C60
:1055C0007820A4F87E10A4F88000491C0020A4F8DC
:1055D0007E10A4F880004FF43D41A4F87E10A4F89A
:1055E0008000481C7821A4F87E00A4F88010401C9C
:1055F0000021A4F87E00A4F880104FF43E41002062
:10560000A4F87E10A4F88000481C6421A4F87E0051
:10561000A4F880104FF451410020A4F87E10A4F8A3
:105620008000481C3321A4F87E00A4F88010411C9F
:105630000020A4F87E10A4F88000481C3421A4F8AF
:105640007E00A4F88010411C0020A4F87E10A4F86D
:105650008000491C3A20A4F87E10A4F88000491C60
:105660000020A4F87E10A4F88000481C4A21A4F869
:105670007E00A4F88010411C0020A4F87E10A4F83D
:105680008000491C5C20A4F87E10A4F88000491C0E
:105690000020A4F87E10A4F88000481C8121A4F802
:1056A0007E00A4F88010401C0021A4F87E00A4F81D
:1056B0008010401CA621A4F87E00A4F88010401C95
:1056C0000021A4F87E00A4F88010411CE520A4F875
:1056D0007E10A4F88000481C0121A4F87E00A4F8E4
:1056E0008010411C1320A4F87E10A4F88000481CF0
:1056F0000121A4F87E00A4F88010411C5420A4F8D5
:105700007E10A4F88000481C0121A4F87E00A4F8B3
:105710008010411C8220A4F87E10A4F88000491C4F
:105720000120A4F87E10A4F88000491CCA20A4F827
:105730007E10A4F88000481C0221A4F87E00A4F882
:105740008010411C0020A4F87E10A4F88000491CA1
:105750000220A4F87E10A4F88000491C0120A4F8BF
:105760007E10A4F88000491C0220A4F87E10A4F842
:105770008000491C3420A4F87E10A4F88000481C46
:105780000221A4F87E00A4F88010401C6721A4F830
:105790007E00A4F88010411C0220A4F87E10A4F81A
:1057A0008000491C8420A4F87E10A4F88000491CC5
:1057B0000220A4F87E10A4F88000491CA420A4F8BC
:1057C0007E10A4F88000491C0220A4F87E10A4F8E2
:1057D0008000481CB721A4F87E00A4F88010411C6A
:1057E0000220A4F87E10A4F88000491CCF20A4F861
:1057F0007E10A4F88000481C0221A4F87E00A4F8C2
:105800008010401CDE21A4F87E00A4F88010411C0A
:105810000220A4F87E10A4F88000491CF220A4F80D
:105820007E10A4F88000481C0221A4F87E00A4F891
:105830008010411CFE20A4F87E10A4F88000491CB2
:105840000320A4F87E10A4F88000491C1020A4F8BE
:105850007E10A4F88000481C0321A4F87E00A4F860
:105860008010411C3320A4F87E10A4F88000481C4E
:105870000321A4F87E00A4F88010401C6D21A4F838
:105880007E00A4F880104FF452400021A4F87E005E
:10589000A4F88010411C3320A4F87E10A4F88000E6
:1058A000491C0020A4F87E10A4F88000491C342074
:1058B000A4F87E10A4F88000481C0021A4F87E0003
:1058C000A4F88010401C3A21A4F87E00A4F88010AF
:1058D000411C0020A4F87E10A4F88000491C4A2036
:1058E000A4F87E10A4F88000491C0020A4F87E10C3
:1058F000A4F88000491C5C20A4F87E10A4F8800065
:10590000481C0021A4F87E00A4F88010401C8121CE
:10591000A4F87E00A4F88010401C0021A4F87E00AA
:10592000A4F88010411CA620A4F87E10A4F88000E2
:10593000491C0020A4F87E10A4F88000491CE52032
:10594000A4F87E10A4F88000481C0121A4F87E0071
:10595000A4F88010411C1320A4F87E10A4F8800045
:10596000481C0121A4F87E00A4F88010401C54219A
:10597000A4F87E00A4F88010401C0121A4F87E0049
:10598000A4F88010411C8220A4F87E10A4F88000A6
:10599000491C0120A4F87E10A4F88000491CCA20EC
:1059A000A4F87E10A4F88000491C0220A4F87E1000
:1059B000A4F88000491C0020A4F87E10A4F8800000
:1059C000491C0220A4F87E10A4F88000491C012084
:1059D000A4F87E10A4F88000481C0221A4F87E00E0
:1059E000A4F88010411C3420A4F87E10A4F8800094
:1059F000491C0220A4F87E10A4F88000481C6721EE
:105A0000A4F87E00A4F88010411C0220A4F87E10A7
:105A1000A4F88000491C8420A4F87E10A4F880001B
:105A2000491C0220A4F87E10A4F88000481CA42180
:105A3000A4F87E00A4F88010411C0220A4F87E1077
:105A4000A4F88000491CB720A4F87E10A4F88000B8
:105A5000491C0220A4F87E10A4F88000481CCF2125
:105A6000A4F87E00A4F88010411C0220A4F87E1047
:105A7000A4F88000491CDE20A4F87E10A4F8800061
:105A8000491C0220A4F87E10A4F88000491CF220D2
:105A9000A4F87E10A4F88000491C0220A4F87E100F
:105AA000A4F88000481CFE21A4F87E00A4F8801011
:105AB000411C0320A4F87E10A4F88000491C10208B
:105AC000A4F87E10A4F88000491C0320A4F87E10DE
:105AD000A4F88000491C3320A4F87E10A4F88000AC
